:100000000C9446050C946E050C946E050C946E05CC
:100010000C946E050C946E050C946E050C946E0594
:100020000C946E050C946E050C946E050C946E0584
:100030000C946E050C946E050C946E050C946E0574
:100040000C94D4170C946E050C9444180C941E1840
:100050000C946E050C946E050C946E050C946E0554
:100060000C9476180C946E0500000000003E5B4F67
:100070005B3E3E6B4F6B3E1C3E7C3E1C183C7E3C08
:10008000181C577D571C1C5E7F5E1C00183C180016
:10009000FFE7C3E7FF0018241800FFE7DBE7FF30A6
:1000A000483A060E2629792926407F050507407F14
:1000B00005253F5A3CE73C5A7F3E1C1C08081C1C87
:1000C0003E7F14227F22145F5F005F5F06097F017D
:1000D0007F006689956A606060606094A2FFA29468
:1000E00008047E040810207E201008082A1C080836
:1000F0001C2A08081E101010100C1E0C1E0C303884
:100100003E3830060E3E0E06000000000000005F84
:1001100000000007000700147F147F14242A7F2AA0
:100120001223130864623649562050000807030062
:10013000001C2241000041221C002A1C7F1C2A08AE
:10014000083E080800807030000808080808000011
:1001500060600020100804023E5149453E00427F85
:10016000400072494949462141494D331814127FD4
:100170001027454545393C4A494931412111090774
:100180003649494936464949291E000014000000F5
:1001900040340000000814224114141414140041C7
:1001A00022140802015909063E415D594E7C121184
:1001B000127C7F494949363E414141227F414141BC
:1001C0003E7F494949417F090909013E4141517337
:1001D0007F0808087F00417F41002040413F017FA8
:1001E000081422417F404040407F021C027F7F0470
:1001F00008107F3E4141413E7F090909063E4151B9
:10020000215E7F09192946264949493203017F01A8
:10021000033F4040403F1F2040201F3F4038403FA9
:10022000631408146303047804036159494D4300BF
:100230007F4141410204081020004141417F0402F6
:10024000010204404040404000030708002054548D
:1002500078407F284444383844444428384444286B
:100260007F385454541800087E090218A4A49C78BE
:100270007F0804047800447D40002040403D007F1A
:100280001028440000417F40007C047804787C08FA
:100290000404783844444438FC18242418182424CE
:1002A00018FC7C08040408485454542404043F44B3
:1002B000243C4040207C1C2040201C3C4030403CE2
:1002C00044281028444C9090907C4464544C440042
:1002D00008364100000077000000413608000201A6
:1002E0000204023C2623263C1EA1A161123A404092
:1002F000207A38545455592155557941225454780F
:1003000042215554784020545579400C1E527212A7
:100310003955555559395454545939555454580030
:1003200000457C410002457D420001457C407D1234
:1003300011127DF0282528F07C5455450020545496
:100340007C547C0A097F4932494949323A44444441
:100350003A324A4848303A4141217A3A424020787C
:10036000009DA0A07D3D4242423D3D4040403D3C7D
:1003700024FF2424487E4943662B2FFC2F2BFF09A2
:1003800029F620C0887E0903205454794100004496
:100390007D413048484A32384040227A007A0A0A81
:1003A000727D0D19317D2629292F282629292926F4
:1003B00030484D4020380808080808080808382F39
:1003C00010C8ACBA2F102834FA00007B00000814C3
:1003D0002A142222142A14085500550055AA55AA99
:1003E00055AAFF55FF55FF000000FF00101010FF39
:1003F00000141414FF001010FF00FF1010F010F094
:10040000141414FC001414F700FF0000FF00FF1484
:1004100014F404FC141417101F10101F101F1414D0
:10042000141F00101010F0000000001F101010101A
:100430001F10101010F010000000FF10101010100E
:1004400010101010FF10000000FF140000FF00FF4C
:1004500000001F10170000FC04F4141417101714E8
:1004600014F404F40000FF00F7141414141414140A
:10047000F700F7141414171410101F101F1414147D
:10048000F4141010F010F000001F101F0000001FE7
:1004900014000000FC140000F010F01010FF10FF1A
:1004A000141414FF141010101F00000000F010FFAF
:1004B000FFFFFFFFF0F0F0F0F0FFFFFF0000000093
:1004C00000FFFF0F0F0F0F0F3844443844FC4A4A17
:1004D0004A347E02020606027E027E0263554941CC
:1004E000633844443C04407E201E2006027E020203
:1004F00099A5E7A5991C2A492A1C4C7201724C3017
:100500004A4D4D303048784830BC625A463D3E49ED
:100510004949007E0101017E2A2A2A2A2A44445F91
:10052000444440514A444040444A51400000FF0185
:1005300003E080FF000008086B6B08361236243693
:10054000060F090F060000181800000010100030F8
:1005500040FF0101001F01011E00191D1712003C80
:100560003C3C3C0000000000000103070F1F3F7FE0
:100570000080C0E0F0F8FCFEDB40A4A62EAF200017
:10058000A1C8D300408DAED580A800006000000057
:100590000000000000000000000000E0000000007B
:1005A00000000000000000000001E000000000006A
:1005B000000000000000000001F00000000000004A
:1005C0000000000000000003F00000000000000038
:1005D00000000000000007F0000000000000000024
:1005E000000000000007F80000000000000000000C
:1005F000000000000FF800000003C0007E000001B2
:10060000E0007F0FF800000003C000FE000001E0E2
:1006100000FFEFF800000003C000FE000001E00052
:10062000FFFFF800000003C000F00000000F007F93
:10063000FE7FC0000003C000F00000000F003FFE7E
:100640007FF83FF1FBCFFCFEF3BC3DEFE01FFE7FE8
:10065000FF7FFBFFDFFEFEFFBC3DEFE01FC6FFFF9D
:100660007FFBFFDFFEFEFFBC3DEFE00FE3C7FE7840
:100670007BC3DE1EF0FFBC3DEF0007FF87FC787BED
:10068000C3DE1EF0F83C3DEF0001FFFFF0007BC32E
:10069000C01EF0F03C3DEF0001F37FE03FFBC3CF15
:1006A000FEF0F03C3DEF0003E33F807FFBC3DFFE45
:1006B000F0F03C3DEF0007E73C00787BC3DE1EF026
:1006C000F03C3DEF0007FFBE00787BC3DE1EF0F07C
:1006D0003C3DEF0007FFFE00787BC3DE1EF0F03CE0
:1006E0003DEF000FFFFE007FFBFFDFFEF0F03FFD60
:1006F000EFE00FFFFF007FFBFFDFFEF0F03FFDEFBD
:10070000E00FF9FF003E79F9CF9EF0F01F3DE7E0E2
:100710001FF1FF0000000000000000000000001FAB
:1007200080FF007FFFFFFFFFFFFFFFFFFFE01C00D8
:100730007F007FFFFFFFFEB46D888D18E000001F73
:10074000007FFFFFFFFE95AD7DB577E000000F0055
:100750007FFFFFFFFEA5AD9D8D19E0000006007F25
:10076000FFFFFFFEB5ADEDB57EE00000000000012B
:100770008000000000000000000003800000000076
:10078000000000000007C0000000000000000000A2
:1007900007C00000000000000000000FC0000000C3
:1007A0000000000000001FE000000000000000004A
:1007B000001FE00000000000000000003FE000001B
:1007C000000000000000003FF000000000000000FA
:1007D00000007FF0000000000000001FF87FF00024
:1007E0000000000000003FFE7FF00000000000005D
:1007F000003FFF7FF0000000000000001FFFFBE053
:10080000000000000000000FFFF9FFC00000000022
:1008100000000FFFF9FFF800000000000007FFF1E3
:10082000FFFF00000000000003FC73FFFF800000DA
:1008300000000001FE3FFFFF80000000000000FFFD
:100840001E0FFF000000000000007FFE1FFC0000E4
:1008500000000000003FFFFFF80000000000000063
:100860000FDFFFE0000000000000001F19FFC000C4
:100870000000000000003F3CFF00000000000000FE
:10088000007E7CF800000000000000007FFE7C007D
:1008900000000000000000FFFFFC0000000000005E
:1008A0000000FFFFFE0000000000000000FFFFFE50
:1008B0000000000000000001FFEFFE00000000004B
:1008C000000001FFCFFE0000000000000003FF0752
:1008D000FE0000000000000003FC07FE0000000016
:1008E00000000003F003FE00000000000000018093
:1008F00000FE000000000000000000007E0000007C
:10090000000000000000003E0000000000000000A9
:1009100000000C000000000000078000FC00000345
:10092000C0000000078001FC000003C000000007B9
:100930008001FC000003C0000000078001E000000F
:10094000001E000000078001E00000001E007FE3A1
:10095000F79FF9FDE7787BDFC0FFF7FFBFFDFDFFE5
:10096000787BDFC0FFF7FFBFFDFDFF787BDFC0F0C6
:10097000F787BC3DE1FF787BDE00F0F787BC3DE107
:10098000F0787BDE0000F787803DE1E0787BDE00D9
:100990007FF7879FFDE1E0787BDE00FFF787BFFDF3
:1009A000E1E0787BDE00F0F787BC3DE1E0787BDEBC
:1009B00000F0F787BC3DE1E0787BDE00F0F787BC14
:1009C0003DE1E0787BDE00FFF7FFBFFDE1E07FFB6C
:1009D000DFC0FFF7FFBFFDE1E07FFBDFC07CF3F38B
:1009E0009F3DE1E03E7BCFC0000000000000000022
:1009F000000000FFFFFFFFFFFFFFFFFFFFC0FFFF43
:100A0000FFFFFD68DB111A31C0FFFFFFFFFD2B5A0E
:100A1000FB6AEFC0FFFFFFFFFD4B5B3B1A33C0FFDC
:100A2000FFFFFFFD6B5BDB6AFDC0000000002400E0
:100A300027002A0000000000250028002B000000ED
:100A4000000800020100000304070000000000008D
:100A50000000000000002300260029002200FF21E2
:100A60000404040404040404020202020202030354
:100A7000030303030102040810204080010204085C
:100A800010200102040810209519D92011241FBE3E
:100A9000CFEFD8E0DEBFCDBF23E0A8ECB1E001C0CE
:100AA0001D92AF38B207E1F711E0A0E0B1E0ECE150
:100AB000FBE402C005900D92A83CB107D9F715E000
:100AC000C5E4D5E004C02197FE010E947D23C43413
:100AD000D107C9F70E94381A0C9481250C940000A4
:100AE000089508950895CF92DF92EF92FF92CF93E9
:100AF000DF93B0913303A0E08111AB2F80913403D9
:100B000090E0880F991FAC014E5A554FC0903903A1
:100B1000D0903A03E0903B03F0903C0330E020E0BB
:100B2000FA01C591D491E881B90190E080E0EB230E
:100B3000EA130AC02F5F3F4F6C157D058E059F0598
:100B400078F36FEF7FEFCB01DF91CF91FF90EF90C4
:100B5000DF90CF900895FC01538D448D252F30E018
:100B6000842F90E0821B930B541710F0CF960895BA
:100B700001970895FC01918D828D981761F0A28DE7
:100B8000AE0FBF2FB11D5D968C91928D9F5F9F73AD
:100B9000928F90E008958FEF9FEF0895FC01918D63
:100BA000828D981731F0828DE80FF11D858D90E0D0
:100BB00008958FEF9FEF0895FC01918D228D892F6D
:100BC00090E0805C9F4F821B91098F739927089555
:100BD000FC01A48DA80FB92FB11DA35ABF4F2C91B2
:100BE000848D90E001968F739927848FA689B789A9
:100BF0002C93A089B1898C91837080648C93938DA0
:100C0000848D981306C00288F389E02D80818F7D42
:100C100080830895EF92FF920F931F93CF93DF93FA
:100C2000EC0181E0888F9B8D8C8D98131AC0E88928
:100C3000F989808185FF15C09FB7F894EE89FF89F7
:100C40006083E889F98980818370806480839FBF95
:100C500081E090E0DF91CF911F910F91FF90EF9095
:100C60000895F62E0B8D10E00F5F1F4F0F731127A5
:100C7000E02E8C8D8E110CC00FB607FCFACFE889E0
:100C8000F989808185FFF5CFCE010E94E805F1CF7B
:100C9000EB8DEC0FFD2FF11DE35AFF4FF0829FB754
:100CA000F8940B8FEA89FB8980818062CFCFCF9344
:100CB000DF93EC01888D8823B9F0AA89BB89E88984
:100CC000F9898C9185FD03C0808186FD0DC00FB62A
:100CD00007FCF7CF8C9185FFF2CF808185FFEDCFA8
:100CE000CE010E94E805E9CFDF91CF9108958FE80A
:100CF00092E00E94DC0521E0892B09F420E0822F9C
:100D0000089580E090E0892B29F00E9477068111F8
:100D10000C9400000895833081F028F4813099F01C
:100D20008230A9F008958730A9F08830C9F0843066
:100D3000B1F4809180008F7D03C0809180008F7717
:100D400080938000089584B58F7784BD089584B51D
:100D50008F7DFBCF8091B0008F778093B000089596
:100D60008091B0008F7DF9CF1F93CF93DF93282F11
:100D700030E0F901E25CF54F8491F901EC58F54F50
:100D8000D491F901E05AF54FC491CC23A9F0162F64
:100D900081110E948B06EC2FF0E0EE0FFF1FEC5C40
:100DA000F54FA591B4918FB7F894EC91111108C04B
:100DB000D095DE23DC938FBFDF91CF911F910895F3
:100DC000DE2BF8CFCF93DF9390E0FC01EC58F54F8A
:100DD0002491805A954FFC0184918823D1F090E0B2
:100DE000880F991FFC01E65DF54FA591B491FC01B8
:100DF000EC5CF54FC591D491623071F49FB7F894D3
:100E00003C91822F809583238C93E8812E2B28831D
:100E10009FBFDF91CF9108958FB7F894EC912E2B5F
:100E20002C938FBFF6CF3FB7F89480913102909109
:100E30003202A0913302B091340226B5A89B05C0BE
:100E40002F3F19F00196A11DB11D3FBFBA2FA92F49
:100E5000982F8827BC01CD01620F711D811D911D46
:100E600042E0660F771F881F991F4A95D1F70895B2
:100E70008F929F92AF92BF92CF92DF92EF92FF92AA
:100E80004B015C010E9413076B017C010E94130758
:100E90006C197D098E099F09683E73408105910593
:100EA000A8F321E0821A9108A108B10888EEC80EC3
:100EB00083E0D81EE11CF11C81149104A104B1044B
:100EC00029F7FF90EF90DF90CF90BF90AF909F9069
:100ED0008F900895CF92DF92EF92FF920F931F931E
:100EE000CF93DF93CDB7DEB7C054D1400FB6F8949F
:100EF000DEBF0FBECDBF2FB7F89480913502909121
:100F00003602A0913702B09138022FBF40913503CD
:100F10005091360360913703709138038C019D0125
:100F2000041B150B260B370BB901A801403D574098
:100F30006105710590F480913D03C05CDE4F0FB6F2
:100F4000F894DEBF0FBECDBFDF91CF911F910F91FF
:100F5000FF90EF90DF90CF900895809335039093AA
:100F60003603A0933703B0933803109230031092E6
:100F70002F0310922E0310922D0310922C0362E087
:100F8000809131030E94E20661E070E080E090E031
:100F90000E94380761E0809131030E94E20660E020
:100FA000809131030E94B4068091320385518230D2
:100FB00020F58BE291E10197F1F762E08091310336
:100FC0000E94E20680913E0390E08230910538F065
:100FD000880F991F880F991F05970197F1F7F894CB
:100FE00080E00E9473056F3F7F4F8F4F9F4F61F4EA
:100FF00010923D03789480E0A0CF64E170E080E03F
:1010000090E00E943807D9CF81E00E9473056F3FBE
:101010007F4F8F4F9F4F61F38E010F5F1F4F6E0108
:101020008FEBC81A8EEFD80A780180E00E94730512
:10103000F701608371838283938381E00E9473054B
:10104000F7016483758386839783F8E0EF0EF11CC4
:10105000EC14FD0451F7789430E020E0F801C080F2
:10106000D180E280F3804481558166817781FFEFF2
:10107000CF16DF06EF06FF0631F04F3F8FEF580720
:101080006807780719F410923D03B5CFF90183E0A2
:10109000F595E7958A95E1F7E45DFC4F8081880F2F
:1010A000C416D506E606F70610F180832F5F3F4F82
:1010B000085F1F4F2832310589F640913003209197
:1010C0002C0380912D03280F3327331F80912E038B
:1010D000280F311D80912F03820F932F911D992787
:1010E0004817190681F681E080933D0326CF816081
:1010F000DCCFAF92BF92CF92DF92EF92FF920F932D
:101100001F93CF93DF936C017B018B01040F151F9D
:10111000EB015E01AE18BF08C017D10759F0699105
:10112000D601ED91FC910190F081E02DC601099569
:10113000892B79F7C501DF91CF911F910F91FF9016
:10114000EF90DF90CF90BF90AF900895EF92FF9215
:101150000F931F93CF93DF93EC01EC80FD806E150E
:101160007F050CF070C057FF04C0240F351F50E0FE
:1011700040E08E819F81FA01E20FF31F8E179F07D7
:101180001CF49C01241B350B121613060CF05BC0DB
:10119000922F842F8695869586958E9DD0018F9D62
:1011A000B00D11246A0F7B1FAF8DB8A1A60FB71F1A
:1011B000477049F188E0841B482F682F70E0FB01DD
:1011C000E059FA4FE491281708F063C0621B7109D7
:1011D0002FEF30E002C0359527956A95E2F7E223BC
:1011E0000130110539F0B0F10230110561F58C9133
:1011F000E82702C08C91E82BEC93941720F12C8106
:101200003D81A20FB31FE92FE41BE83078F00230D4
:10121000110521F58E2F9C9190959C932C813D81F9
:10122000A20FB31F88508830B0F7E770EE2359F053
:10123000F0E0E859FA4FE49101301105F9F010F1AE
:101240000230110519F1DF91CF911F910F91FF909D
:10125000EF900895E0958C91E823CECF81E00115C1
:10126000110509F480E081959E2F8C932C813D819E
:10127000A20FB31F98509830C0F7D7CF8C91E82BAE
:10128000EC93E1CFE0958C91E823FACF8C91E8279D
:10129000F7CF0130110509F4ADCFE0F202301105AE
:1012A00009F4A5CFAE0DBF1DAECF0F931F93CF9303
:1012B000DF9377FF04C0260F371F70E060E0DC018A
:1012C0001496CD91DC91FB01E20FF31FCE17DF07DF
:1012D0001CF49E01261B370B121613064CF5FA015F
:1012E00057FD3796A3E0F595E795AA95E1F7EC9FB2
:1012F000D001ED9FB00DFC9FB00D11246A0F7B1F34
:10130000DC015F96ED91FC91E60FF71F47705527C2
:1013100081E090E001C0880F4A95EAF7482F01303C
:10132000110559F0A8F02E0F3F1F02301105E1F012
:10133000DF91CF911F910F9108952E0F3F1FE2175C
:10134000F307B1F38191DF011197842B8C93F7CFD1
:1013500080952E0F3F1FE217F30751F39191DF01A4
:10136000119798239C93F7CFE217F30709F3819124
:10137000DF01119784278C93F7CF0F931F93FA0106
:10138000DC0156964C9156974230E9F04330A1F17A
:10139000413061F514964D915C91DA01AE1BBF0BA3
:1013A000FD01E21BF30B77FD0BC0DC0116964D919E
:1013B0005C916417750724F4AB01BF010E945509C5
:1013C0001F910F91089514964D915C91DA01A61B1F
:1013D000B70BBD0161507109DC0116964D915C910E
:1013E000DA01AE1BBF0BFD01E21BF30B77FDE8CF6B
:1013F000AF010E94A608E4CF16964D915C91DA01E8
:10140000A61BB70BBD0161507109CDCF0F931F9380
:10141000FA01DC0156964C9156974230A9F04330C0
:1014200091F1413019F514964D915C91DA01AE1BA2
:10143000BF0BFD013197F7FD04C0AB01BF010E9456
:10144000A6081F910F91089514964D915C91DA01B1
:10145000A61BB70BBD01DC0116964D915C91DA011C
:10146000AE1BBF0BFD013197621B730BF7FDE9CF7C
:10147000DC0116964D915C91E417F50714F7AF0166
:101480000E945509DECF16964D915C91DA01A61B9C
:10149000B70BBD01621B730BCECFFC0177FD64C09F
:1014A00080859185681779070CF05EC057FD5CC098
:1014B00082859385481759070CF056C0868982307B
:1014C000B1F0833029F1813041F484819581841B0E
:1014D000950BAB01BC01615071092130310509F157
:1014E00008F443C02230310509F463C008958481B3
:1014F0009581DC01A61BB70BBD0161507109868186
:101500009781DC01A41BB50BAD0141505109E5CF1A
:1015100086819781861B970BBA01AC014150510916
:10152000DCCFCA0157FD0796A3E095958795AA954C
:10153000E1F7A481B5818A9F90018B9F300D9A9F1E
:10154000300D1124620F731F078CF0A1E02DE60F00
:10155000F71F4770552721E030E001C0220F4A9560
:10156000EAF78081822B80830895CA0157FD079690
:1015700033E0959587953A95E1F7A481B5818A9FE7
:1015800090018B9F300D9A9F300D1124620F731FB5
:10159000078CF0A1E02DE60FF71F4770552781E07B
:1015A00090E001C0880F4A95EAF7809590818923E1
:1015B000DACFCA0157FD079623E0959587952A95BE
:1015C000E1F7A481B5818A9F90018B9F300D9A9F8E
:1015D000300D1124620F731F078CF0A1E02DE60F70
:1015E000F71F4770552721E030E001C0220F4A95D0
:1015F000EAF780818227B7CF8EBD00000DB407FEC9
:10160000FDCF8EB508950895FC016370668B8481CB
:10161000958126813781613039F0633029F09187D7
:101620008087338722870895318720879387828731
:1016300008952F923F924F925F926F927F928F9276
:101640009F92AF92BF92CF92DF92EF92FF920F9351
:101650001F93CF93DF93CDB7DEB76A970FB6F89499
:10166000DEBF0FBECDBF9A8F898F7A8369834A010F
:10167000D22E18870F833701BC2CDC0159962D918F
:101680003C915A972115310509F015C118968D9195
:101690009C911997681779070CF0D7C11A968D910C
:1016A0009C91481759070CF0D0C14C2C512CB6E036
:1016B000CB9E600D711D11247C876B871616170653
:1016C0000CF0C3C1EA2DF0E0FA87E98793E0EE0F52
:1016D000FF1F9A95E1F7F88BEF87CF01840F951FD5
:1016E000181619060CF0B1C1A98DBA8D58968C91B7
:1016F000811104C0BFEABD1508F4D394A98DBA8D39
:10170000ED91FC9111970284F385E02DCD010995AF
:10171000B5E0DB9EC0011124E981FA81FC83EB83F3
:10172000312C212C9C0128593F4F388F2F8B4A2D6B
:1017300050E05E8B4D8BEF89F88DE20DF31D4491E7
:101740009E828D82D12CC12C69817A81620D731D9C
:101750007A8B698B842F90E09C8B8B8BE98DFA8D33
:10176000A081B18140FF82C0F1E0BF126FC0AF1213
:101770006DC01C96ED91FC912F813885A4014C0D14
:101780005D1D69897A89898D9A8D0995EB89FC8916
:10179000F595E7954E2F5FEFC51AD50A6D817E81CD
:1017A0008D899E89680F791F7E836D8398E0C916A5
:1017B000D10481F6AFEF2A1A3A0AEB81FC81E40DDD
:1017C000F51DFC83EB83F5E02F16310409F0B3CF50
:1017D0002F81388526153705B9F0A98DBA8DED9181
:1017E000FC91B1E0BB1257C0AB1255C069817A8140
:1017F0006B5F7F4F0088F189E02D830128E030E0A6
:10180000A401898D9A8D0995A98DBA8DED91FC91D0
:1018100011970688F789E02DCD016A960FB6F894E6
:10182000DEBF0FBECDBFDF91CF911F910F91FF9013
:10183000EF90DF90CF90BF90AF909F908F907F9070
:101840006F905F904F903F902F9009941E96ED916E
:10185000FC91EF80F88409851A8592014D815E81A3
:101860006B817C81898D9A8D099590CF2F813885E8
:101870002615370509F48ACF31E0B31207C0A31249
:1018800005C01C96ED91FC91930178CF1E96ED91C9
:10189000FC917301E0CF6B857C8564197509068422
:1018A000F785E02D73010F8518899201A401898DB8
:1018B0009A8D0995A9CFF901349694913297459163
:1018C0005491D91AB7E0DB9E400D511D1124F90146
:1018D000259134913C8B2B8BFA0125903490FA01A1
:1018E0003296749031963491398B32966490319659
:1018F000449041E04C1518F04A1508F07FC0662D61
:10190000062C000C770B7C836B83842D042C000C3D
:10191000990B9E838D83A98DBA8DED91FC911197C2
:101920000284F385E02DCD010995512CD12CC12CD9
:10193000EA2DF0E0FA87E9872B2D30E03C872B87F2
:10194000A401440D511D47FC5A95588F4F8B698156
:101950007A81660D711D67FC7A957E876D8779891E
:10196000C71608F051CF2C2D30E04D815E81420F1B
:10197000531FA985BA854A9FC0014B9F900D5A9F5E
:10198000900D1124FC01E80DF91DF88BEF87852DD2
:10199000612C4F89588D420F531F5E8B4D8B6714FE
:1019A00008F050C044244394480E877041F4C101AC
:1019B0000196EB89FC89E20DF31DD4901C01D7FE42
:1019C00019C0A98DBA8DED91FC91662D70E0B1E042
:1019D000BB1219C0AB1217C02D853E85620F731F55
:1019E0000484F585E02D2F8138854D895E89898DA8
:1019F0009A8D0995DD0C6394842DD1CF1E821D82B2
:101A00001C821B8288CF4B815C81640F751FAB8564
:101A1000BC856A9FC0016B9F900D7A9F900D112429
:101A200069817A81680F791F0684F785E02DEF8040
:101A3000F88409851A859D014F855889898D9A8D6D
:101A40000995D8CF570CC3948ACF6A960FB6F894ED
:101A5000DEBF0FBECDBFDF91CF911F910F91FF90E1
:101A6000EF90DF90CF90BF90AF909F908F907F903E
:101A70006F905F904F903F902F9008958F929F921C
:101A8000AF92CF92EF92FF920F931F93CF93DF937A
:101A9000EC01262F898D9A8D009709F051C06A308C
:101AA000D1F41D861C868D8948E0849F9001112405
:101AB0008E859F85820F931F9F878E8781E090E0A0
:101AC000DF91CF911F910F91FF90EF90CF90AF904A
:101AD0009F908F9008956D3089F3CC88AD888F8961
:101AE0008823C1F08C859D8536E0C39E800D911DB5
:101AF0001124488559854817590764F44E855F8538
:101B00001D861C8638E0A39EC0011124840F951FFA
:101B10009F878E87EA88FB88088919894E855F85AB
:101B20006C857D85CE010E94190B2C898C859D8545
:101B300046E0249F800D911D11249D878C87BECF88
:101B40006A3069F41D861C86FC013896E4912D8963
:101B50008E859F85E29F800D911D1124ADCF6D3044
:101B600009F4ACCFFC0134963491631708F4A6CF86
:101B70003296E491E61708F4A1CFFC0132968590E5
:101B80009490462F431B342F47E0349F800C911CC8
:101B90001124F401329634913196E4913323A9F162
:101BA000EE2399F1CC88F4013596E491AD884F8904
:101BB000442301F10E2E000CFF0BE30FF11DCE9E0E
:101BC000A001CF9E500D11246C857D85460F571FB7
:101BD00068857985641775076CF44E855F851D8669
:101BE0001C86FC013896E491AE9E400D511D1124D7
:101BF0005F874E87EA88FB88088919894E855F854B
:101C00006C857D85CE010E94190BF4013496E49118
:101C10002C898C859D85E29F800D911D11248DCF8F
:101C20006F927F928F929F92AF92BF92CF92DF92EC
:101C3000EF92FF920F931F93CF93DF93EC016B0111
:101C40005A0139014801E881F9810284F385E02DC8
:101C50000995E881F9810288F389E02D87019301D4
:101C6000A501B601CE010995A501480D591D4150A8
:101C70005109E881F9810288F389E02D9301B601C9
:101C8000CE010995E881F9810088F189E02D940160
:101C9000A501B601CE010995C60CD71CB60161504D
:101CA0007109E881F9810088F189E02D9401A5018D
:101CB000CE010995E881F9810688F789E02DCE01EA
:101CC000DF91CF911F910F91FF90EF90DF90CF9018
:101CD000BF90AF909F908F907F906F9009946F927C
:101CE0007F928F929F92AF92BF92CF92DF92EF92AC
:101CF000FF920F931F93CF93DF935C01EB016A0177
:101D0000490138018701DC01ED91FC9162177307ED
:101D100019F5641675062CF0962D872D3A01C92EFB
:101D2000D82E9601261937092F5F3F4F048CF58D69
:101D3000E02DA301BE01C5010995DF91CF911F914F
:101D40000F91FF90EF90DF90CF90BF90AF909F905A
:101D50008F907F906F9008954615570591F4261740
:101D6000370724F0892D4B01C22FD82F9E01281947
:101D700039092F5F3F4F068CF78DE02DA601B40186
:101D8000DACF0284F385E02D0995D501ED91FC9120
:101D90000488F589E02D83019401A601BE01C501E7
:101DA0000995D501ED91FC910688F789E02DC501D3
:101DB000DF91CF911F910F91FF90EF90DF90CF9027
:101DC000BF90AF909F908F907F906F900994EF920B
:101DD000FF920F931F93DC011A960D911C911B9794
:101DE00018962D913C911997ED91FC9100A0F1A1CD
:101DF000E02D7B0150E040E070E060E009951F912C
:101E00000F91FF90EF9008954F925F926F927F92A3
:101E10008F929F92AF92BF92CF92DF92EF92FF92FA
:101E20000F931F93CF93DF936C012B015A0139015C
:101E30004801DC01ED91FC910284F385E02D0995C8
:101E4000E201640C751CD601ED91FC91C615D70515
:101E50005CF40088F189E02D87019401A501BE01A1
:101E6000C60109952196EFCF0688F789E02DC601B6
:101E7000DF91CF911F910F91FF90EF90DF90CF9066
:101E8000BF90AF909F908F907F906F905F904F909A
:101E900009948F929F92AF92BF92CF92DF92EF926E
:101EA000FF920F931F93CF93DF93EC015B014A01E5
:101EB0006901E881F9810284F385E02D0995950196
:101EC0002C0D3D1D21503109E881F9810488F589E7
:101ED000E02D78018401A401B501CE010995E881C6
:101EE000F9810688F789E02DCE01DF91CF911F910E
:101EF0000F91FF90EF90DF90CF90BF90AF909F90A9
:101F00008F9009948F929F92AF92BF92CF92DF925F
:101F1000EF92FF920F931F93CF93DF93EC015B013E
:101F20004A0169017801E881F9810284F385E02D95
:101F30000995C80CD91C860101501109E881F98165
:101F40000488F589E02D9501A401B501CE0109951C
:101F5000E881F9810688F789E02DCE01DF91CF91E4
:101F60001F910F91FF90EF90DF90CF90BF90AF90B7
:101F70009F908F900994EF92FF920F931F93DC0133
:101F8000ED91FC9100A0F1A1E02D09951F910F9119
:101F9000FF90EF9008950F931F93DC01ED91FC915A
:101FA000068CF78DE02D09951F910F9108950F93E1
:101FB0001F93DC01ED91FC91048CF58DE02D0995CA
:101FC0001F910F910895DC01ED91FC910084F18542
:101FD000E02D09943F924F925F926F927F928F9281
:101FE0009F92AF92BF92CF92DF92EF92FF920F93A8
:101FF0001F93CF93DF935C017B014A016901390193
:1020000087E0680E711C93E0759467949A95E1F7E8
:102010002B01400E511E10E000E0312CD0E0C0E05A
:10202000CE0187709927330C892B59F4FE0183E088
:10203000F595E7958A95E1F7E00FF11FE80DF91D99
:10204000349037FE0AC021E030E0A701B5016C0FE3
:102050007D1F8BE493E00E94E30F2196CC16DD06F2
:10206000F9F68FEFE81AF80A060D171DE414F504C7
:10207000A9F6DF91CF911F910F91FF90EF90DF9024
:10208000CF90BF90AF909F908F907F906F905F9018
:102090004F903F9008952F923F924F925F926F9290
:1020A0007F928F929F92AF92BF92CF92DF92EF92E8
:1020B000FF920F931F93CF93DF9300D000D000D0F7
:1020C000CDB7DEB73C016A013E832D83FC82EB82F3
:1020D0005801A41AB50AB7FE03C0B194A194B1087F
:1020E0008D809E80861A970A97FE03C091948194F2
:1020F00091088A149B045CF0902F812F0D811E8122
:102100009D838E839C2D8D2D6B01692F782F0C154F
:102110001D055CF09D818E817E836D83692F782FF4
:10212000902F812F8601C92ED82E1601201A310A30
:102130002B012D813E81421A530A57FE03C0519450
:1021400041945108710137FE03C03FEFE31AF30ACF
:10215000F594E7948D819E81861797075CF5A1E041
:10216000B0E0BA83A983C016D1064CF1D301ED913A
:10217000FC910484F585E02D2B813C81A8016D81C3
:102180007E818A149B041CF04D815E81B801C301DD
:102190000995E418F508F7FE0AC02D813E81898172
:1021A0009A81280F391F3E832D83E20CF31C0F5FA9
:1021B0001F4FD9CF2FEF3FEF3A832983D4CF2696F5
:1021C0000FB6F894DEBF0FBECDBFDF91CF911F9148
:1021D0000F91FF90EF90DF90CF90BF90AF909F90C6
:1021E0008F907F906F905F904F903F902F900895C9
:1021F000089508958CBD9DBD08952091E901260F95
:102200003327331F21323105ECF420916502FC01A4
:1022100090E080E0243069F082E00895A091E90127
:102220002191AC0147535E4FA40FB52FB11D2C93E4
:102230000196861798F38091E901680F6093E90190
:1022400080E0089581E008951092650281E0809316
:10225000640210923F0261E082E10E94B40661E0F4
:1022600083E10E94B406E9EBF0E080818E7F8083F9
:1022700080818D7F808388E48093B80085E480939B
:10228000BC00089510923E0210923D0210926C0222
:1022900010928E020E94241180E795E090933C02F8
:1022A00080933B0281E795E090933A028093390254
:1022B0000895CF93DF9391E09093C8018823B9F0FC
:1022C000C091B800D091BA008091BC008A7B809305
:1022D000BC0060E082E10E94B40660E083E10E94FD
:1022E000B4060E942411D093BA00C093B800DF91C5
:1022F000CF9108958F929F92AF92BF92CF92DF922B
:10230000EF92FF920F931F93CF93DF93D0918E02A2
:10231000D13208F0D7C0182FC0918D020E94130748
:102320006B017C018091650281116BC082E080931A
:102330006502109364028FEF809363021092620231
:10234000D0936102ADE6B2E0E1E4F2E080E0D813C0
:1023500091C01092400280914002CC0FC82BC093D4
:10236000400280913F02813009F088C010923F0204
:102370000E9413076B017C01809140028093BB0097
:102380008091670290916802A0916902B0916A02FF
:10239000892B8A2B8B2BA1F00E94130700916702D7
:1023A000109168022091690230916A026C197D09CE
:1023B0008E099F09061717072807390708F442C036
:1023C0008091BC0083FDD8CF85EC8093BC000E9437
:1023D00013076B017C0180916502823009F450C0C3
:1023E000809163028F3F09F46FC080916302803255
:1023F00009F46CC080916302803309F469C084E001
:1024000026C08091670290916802A0916902B09104
:102410006A02892B8A2B8B2B09F484CF0E94130725
:102420008090670290906802A0906902B0906A0262
:102430006C197D098E099F0986169706A806B906AC
:1024400008F070CF809166020E94591185E01092C9
:102450006C0210928E0210926B02DF91CF911F914D
:102460000F91FF90EF90DF90CF90BF90AF909F9033
:102470008F9008959D9191938F5F69CF85EEA5CF41
:102480008091670290916802A0916902B0916A02FE
:10249000892B8A2B8B2B09F49ECF0E941307009166
:1024A0006702109168022091690230916A026C19EA
:1024B0007D098E099F09061717072807390708F0B5
:1024C0008ACFC0CF81E0C3CF80E0C1CF82E0BFCF51
:1024D00083E0BDCFE0913E0280913D02E81730F4E9
:1024E000F0E0E35FFD4F808190E008958FEF9FEF74
:1024F000089590913E0280913D022FEF3FEF981793
:1025000048F4E92FF0E0E35FFD4F208130E09F5F6A
:1025100090933E02C901089580913D0290913E0240
:10252000891B990B0895CF92DF92EF92FF920F9340
:102530001F93CF93DF937C01CB018A0120916B0223
:10254000222389F0EB016B01C40ED51ECC15DD05ED
:1025500069F06991D701ED91FC910190F081E02D36
:10256000C7010995F3CF642F0E94FD10C801DF91C8
:10257000CF911F910F91FF90EF90DF90CF90089532
:10258000CF93DF931F92CDB7DEB7698320916B02A3
:102590002223F9F020918E02203258F021E030E021
:1025A000FC013383228390E080E00F90DF91CF9194
:1025B000089580916C02E82FF0E0E359FD4F998176
:1025C00090838F5F80936C0280938E0281E090E015
:1025D000ECCF61E0CE0101960E94FD10F7CF81E0C3
:1025E0000C947A11EF92FF920F931F93CF93DF9386
:1025F0007C01C62F8091680390916903009709F4CC
:1026000059C020916C0331E030936B0220938D020E
:1026100010926C0210928E02DC01ED91FC910190FF
:10262000F081E02D60E009958701EE24E394F12C20
:10263000D1E0C1508091680390916903CF3F91F13F
:10264000B0E2EB16F104D8F00E94EF12809168031B
:102650009091690320916C03D0936B0220938D02BB
:1026600010926C0210928E02DC01ED91FC910190AF
:10267000F081E02D60E00995EE24E394F12C809147
:10268000680390916903F8016491DC01ED91FC917C
:102690000190F081E02D0995BFEFEB1AFB0A0F5F67
:1026A0001F4FC7CFDF91CF911F910F91FF90EF90F8
:1026B0000C94EF12E0917803F0917903908180916E
:1026C0007E038095892380838701C15008F438C038
:1026D000F80184912091660330916703232B29F040
:1026E0000E94FC0A0F5F1F4FF0CF28E030E040E867
:1026F000E0917403F091750390917C03582F54235B
:10270000D9F05081952B9083E0917603F091770377
:10271000908150917D03952B9083E0917603F09109
:102720007703508190917D039095952390834695F2
:1027300021503109E9F6D6CF508190959523E3CF0A
:10274000DF91CF911F910F91FF90EF9008951F930C
:10275000CF93DF93EC018D8D9E8D009721F1162F85
:1027600029A131E030936B0220938D0210926C020C
:1027700010928E02DC01ED91FC910190F081E02D30
:1027800060E009958D8D9E8DDC01ED91FC910190AD
:10279000F081E02D612F09958D8D9E8DDF91CF9178
:1027A0001F910C94EF12ADA5BEA59C918BA98095AD
:1027B00089238C938B8D9C8D892B31F0862FDF9113
:1027C000CF911F910C94FC0A28E030E080E8A9A585
:1027D000BAA599A9462F4823C1F04C91942B9C93FC
:1027E000ABA5BCA59C914AA9942B9C93ABA5BCA579
:1027F0004C919AA9909594239C93869521503109E8
:1028000031F7DF91CF911F9108954C9190959423CA
:10281000E6CFDF92EF92FF920F931F93CF93DF9358
:102820008091680390916903892B09F4A5C02091D8
:10283000800330918103409182035091830360E0D3
:1028400074E284EF90E00E945B232051310941093A
:10285000510956954795379527952093B80064E020
:102860008CE59AE00E94F21280914F039091500300
:102870008034910509F097C060E28BE493E00E94F8
:10288000A71360914F03615E8BE493E00E94A7134E
:102890002091510330915203C901079697FD079685
:1028A00033E0959587953A95E1F720914F03309164
:1028B0005003829F8001839F100D929F100D112461
:1028C000C0916A03D0916B03809168039091690372
:1028D0000C0F1D1F009709F498C020916C0331E084
:1028E00030936B0220938D0210926C0210928E0234
:1028F000DC01ED91FC910190F081E02D60E40995FF
:10290000EE24E394F12CDD24D3948091680390911C
:1029100069030C171D0709F44FC0B0E2EB16F10470
:10292000D8F00E94EF128091680390916903209182
:102930006C03D0926B0220938D0210926C02109265
:102940008E02DC01ED91FC910190F081E02D60E4BC
:102950000995EE24E394F12C80916803909169032A
:102960006991DC01ED91FC910190F081E02D0995D8
:10297000BFEFEB1AFB0AC9CF809166039091670302
:10298000892B31F08091890390918A030E94FA107B
:10299000E0917A03F0917B03908180917F03809591
:1029A000892380835CCF60E08BE493E00E94A713CF
:1029B00060914F03615068CF0E94EF1280916803CD
:1029C00090916903892B09F461C0209184033091AF
:1029D0008503409186035091870360E074E284EFA1
:1029E00090E00E945B23205131094109510956951D
:1029F0004795379527952093B800DF91CF911F9188
:102A00000F91FF90EF90DF900895E0917803F0919F
:102A10007903808190917E03892B80830C171D0799
:102A200069F289912091660330916703232B19F095
:102A30000E94FC0AF3CF28E030E040E8E091740304
:102A4000F091750390917C03582F5423D9F0508155
:102A5000952B9083E0917603F091770390815091CC
:102A60007D03952B9083E0917603F091770350815D
:102A700090917D039095952390834695215031093F
:102A8000E9F6CCCF508190959523E3CFE0917A037E
:102A9000F0917B03808190917F03892B8083ADCF60
:102AA0001F93CF93DF93EC01162F8D8D9E8D892B75
:102AB000B1F12DA93EA94FA958AD60E074E284EFB1
:102AC00090E00E945B23205131094109510956953C
:102AD0004795379527952093B80066EA111167EA64
:102AE000CE010E94A7138D8D9E8D892B41F129ADBA
:102AF0003AAD4BAD5CAD60E074E284EF90E00E94D3
:102B00005B23205131094109510956954795379565
:102B100027952093B800DF91CF911F9108958B8D59
:102B20009C8D892B21F08EAD9FAD0E94FA10EFA5F0
:102B3000F8A990818CA9809589238083CECFEFA5B9
:102B4000F8A980819CA9892B8083E5CFCF93DF935F
:102B5000EC018B818823A9F089819A81288131E059
:102B600030936B0220938D0210926C0210928E02B1
:102B70000E94EF1291E0811190E0892FDF91CF91B7
:102B800008950E94421181E08B83CE010E94A61518
:102B9000982F8111E1CFF1CF90E080E0089520914E
:102BA000510330915203C901079697FD079623E020
:102BB000959587952A95E1F720914F033091500321
:102BC000829FA001839F500D929F500D112470E0B1
:102BD00060E080916A0390916B030C947325FC0173
:102BE00001900020E9F73197AF01481B590BBC0158
:102BF0008BE493E00C9479088F929F92AF92BF92EE
:102C00000F931F93CF93DF93CDB7DEB7A1970FB686
:102C1000F894DEBF0FBECDBF19A2423008F44AE0DF
:102C20008E010F5D1F4F842E912CB12CA12CA5017C
:102C300094010E945B23E62FB901CA01EA30F4F443
:102C4000E05DD801EE938D01232B242B252B79F702
:102C500090E080E0109719F0CD010E94EF15A19649
:102C60000FB6F894DEBF0FBECDBFDF91CF911F919D
:102C70000F91BF90AF909F908F900895E95CE1CF46
:102C8000CF93DF930E94EF15EC0187E591E00E945E
:102C9000EF158C0F9D1FDF91CF9108954F925F929A
:102CA0006F927F928F929F92AF92BF92CF92DF925C
:102CB000EF92FF920F931F93CF936B017C01742EC1
:102CC000AC019B010E945623882399F08AE591E08C
:102CD000CF911F910F91FF90EF90DF90CF90BF9019
:102CE000AF909F908F907F906F905F904F900C94DB
:102CF000EF1546015701E894B7F82FEF3FEF4FE784
:102D00005FE7C501B4010E94562381110DC02FEF6A
:102D10003FEF4FE75FE7C501B4010E94E8201816B6
:102D20001CF48EE591E0D4CF2FEF3FEF4FE75FE447
:102D3000C701B6010E94512318161CF482E691E0E7
:102D4000C7CF2FEF3FEF4FE75FECC701B6010E94FF
:102D5000E82087FDF3CF20E030E0A901C701B601EC
:102D60000E94E82010E000E087FF0AC06DE28BE4DB
:102D700093E00E943E0D8C01F7FAF094F7F8F0947E
:102D8000C0E060E070E080E09FE37C1641F020E06E
:102D900030E040E251E40E94B022CF5FF6CFA701BD
:102DA00096010E9444222B013C010E9422234B01E8
:102DB0005C014AE00E94FC157C01E00EF11ECC2370
:102DC000C1F1C501B4010E94ED209B01AC01C3011A
:102DD000B2010E9443224B015C016EE28BE493E05E
:102DE0000E943E0DE80EF91EC15018F120E030E0BF
:102DF00040E251E4C501B4010E944E212B013C0187
:102E00000E9422234B01B12CA12C4AE0C501B40140
:102E10000E94FC15E80EF91EC501B4010E94ED20C8
:102E20009B01AC01C301B2010E9443224B015C0132
:102E3000DBCFC701CF911F910F91FF90EF90DF90F3
:102E4000CF90BF90AF909F908F907F906F905F904A
:102E50004F900895CF93DF93EC010A9724F486E610
:102E600091E00E94EF15BE01DD0F880B990B4AE03F
:102E7000DF91CF910C94FC150E9465250F931F9351
:102E8000CF93DF93EC0188819981009759F02A81D3
:102E90003B812617370730F081E0DF91CF911F91FA
:102EA0000F9108958B016F5F7F4F0E94A8240097B8
:102EB00059F0998388831B830A832C813D81232BBE
:102EC00059F7FC011082E8CF80E0E7CFEF92FF9244
:102ED0000F931F93CF93DF93EC017B01FB010190D4
:102EE0000020E9F731978F01061B170BB8010E94EC
:102EF0003E1728813981811113C02115310519F040
:102F0000C9010E941F24198218821D821C821B8203
:102F10001A82DF91CF911F910F91FF90EF9008954A
:102F20001D830C83B701C901DF91CF911F910F91D0
:102F3000FF90EF900C947A2585ED8093BC008091F2
:102F4000670290916802A0916902B0916A020796A7
:102F5000A11DB11D23E0B695A795979587952A9554
:102F6000D1F72091BC0024FD03C0109265020895A2
:102F700040916702509168026091690270916A0203
:102F8000452B462B472B69F30097A105B10541F06E
:102F90002AE22A95F1F700C00197A109B109E1CF12
:102FA000809166020C9459111F920F920FB60F92E6
:102FB00011242F933F938F939F93AF93BF9380914F
:102FC000350290913602A0913702B09138023091CB
:102FD000300223E0230F2D3758F50196A11DB11DB6
:102FE000209330028093350290933602A0933702EB
:102FF000B09338028091310290913202A091330255
:10300000B09134020196A11DB11D809331029093BD
:103010003202A0933302B0933402BF91AF919F91DB
:103020008F913F912F910F900FBE0F901F90189589
:1030300026E8230F0296A11DB11DD2CF1F920F9239
:103040000FB60F9211242F933F934F935F936F937B
:103050007F938F939F93AF93BF93EF93FF938FE8EB
:1030600092E00E94E805FF91EF91BF91AF919F918F
:103070008F917F916F915F914F913F912F910F9021
:103080000FBE0F901F9018951F920F920FB60F92C0
:1030900011242F938F939F93EF93FF93E0919F02BF
:1030A000F091A0028081E091A502F091A60282FD3C
:1030B0001BC090818091A8028F5F8F732091A9021D
:1030C000821741F0E091A802F0E0E157FD4F958FA3
:1030D0008093A802FF91EF919F918F912F910F9074
:1030E0000FBE0F901F9018958081F4CF1F920F9202
:1030F0000FB60F9211242F933F934F935F936F93CB
:103100007F938F939F93AF93BF93EF93FF938091A0
:10311000B900887F803609F44AC0F0F5883209F496
:10312000A7C018F5803109F49BC0B8F4882309F4CE
:10313000F9C0883009F494C0FF91EF91BF91AF912D
:103140009F918F917F916F915F914F913F912F91BF
:103150000F900FBE0F901F901895883109F488C00A
:10316000803251F78093630214C0803409F49DC00B
:1031700040F48033B9F38833F9F68093630285EC29
:10318000B0C0803509F485C0883509F496C088340C
:1031900099F60E949C17D0CF883909F48CC038F575
:1031A000883729F050F4883611F0803729F683E00B
:1031B0008093650210920B0257C0883809F47BC0D7
:1031C000803919F0803809F0B7CF80910B02803236
:1031D00008F071C0E0910B0281E08E0F80930B022A
:1031E0008091BB00F0E0E551FE4F80833DC0803B05
:1031F00039F0E0F4803A09F479C0883A09F09CCFBC
:1032000084E0809365021092EA011092E901E09156
:103210003B02F0913C0209958091E90181110FC0B8
:1032200081E08093E9011092C90109C0803C09F452
:10323000A6CF883C09F4A3CF883B09F07DCFE0916D
:10324000EA0181E08E0F8093EA01F0E0E753FE4F40
:1032500080818093BB009091EA018091E90129C0AF
:10326000809140028093BB0085EC8093BC0064CFCA
:103270009091620280916102981758F5E091620284
:1032800081E08E0F80936202F0E0EF5BFD4F808162
:10329000E9CFE091620281E08E0F8093620280911B
:1032A000BB00F0E0EF5BFD4F808390916202809164
:1032B00061029817C8F285E8D8CFE091620281E0F8
:1032C0008E0F809362028091BB00F0E0EF5BFD4FB8
:1032D00080838091640281115CCF81E080933F0202
:1032E00084EA8093BC001092650226CF85EC80931F
:1032F000BC001092650280910B02803230F4E091A4
:103300000B02F0E0E551FE4F108260910B0270E07D
:10331000E0913902F0913A028BEE91E0099510921A
:103320000B020ACF1092630234CFEFE8F2E013826F
:10333000128248EE53E060E070E044835583668378
:1033400077838BE091E09183808385EC90E0958793
:10335000848784EC90E09787868780EC90E0918B5F
:10336000808B81EC90E0938B828B82EC90E0958B4C
:10337000848B86EC90E0978B868B118E128E138E49
:10338000148EAFE3B3E013961C921E92129714961C
:103390004D935D936D937C9317978DE191E011961A
:1033A0009C938E93EBE4F3E01382128220E830E0EA
:1033B0003583248380E490E0978386833187208758
:1033C00093878287168A158614861786168681E06B
:1033D000858B848B2FEF3FEF338B228B318B208BB0
:1033E000878B108E128E118E8FE291E091838083F5
:1033F000148E138EB68FA58F10A2178E8FEF84A315
:1034000085A386A387A380A780E89AE1A6E0B0E021
:1034100085AB96ABA7ABB0AF80EA96E8A1E0B0E091
:1034200081AF92AFA3AFB4AF80E586AF17AEACE289
:10343000B3E087E015968C9315978BE016968C93E6
:103440001697EBE7FAE0E4911796EC931797E7E607
:10345000FAE0E4911896EC93189740E85EE360E098
:1034600070E01D964D935D936D937C9350970895F6
:10347000CF93DF9300D000D000D01F92CDB7DEB73E
:10348000789484B5826084BD84B5816084BD85B53F
:10349000826085BD85B5816085BD80916E0081604B
:1034A00080936E00109281008091810082608093F1
:1034B00081008091810081608093810080918000F3
:1034C0008160809380008091B10084608093B1001E
:1034D0008091B00081608093B00080917A00846018
:1034E00080937A0080917A00826080937A00809144
:1034F0007A00816080937A0080917A00806880935E
:103500007A001092C10061E082E00E94E20661E070
:1035100083E00E94E20661E085E00E94E20662E04C
:1035200088E00E94E2060E94421180912D02909153
:103530002E02009711F00E941F2486E090E00E9466
:1035400083238C0188E6D8018C938FE393E0129655
:103550009C938E93119713961C92139780E290E0A0
:1035600015969C938E93149710932E0200932D0220
:103570000E94421181E0F8018383C8010E94A615D0
:1035800062E0809131030E94E2062FB7F8948091A7
:10359000350290913602A0913702B09138022FBFC8
:1035A000805D9740A109B10980933503909336035C
:1035B000A0933703B093380387E380933E03809151
:1035C0006A0390916B03892B11F52091510330917F
:1035D0005203C901079697FD0796B3E09595879525
:1035E000BA95E1F720914F0330915003AC01429F0F
:1035F000C001439F900D529F900D11240E94832380
:1036000090936B0380936A03892B09F47DC20E9417
:10361000CF15209151033091520380914F03909127
:103620005003B901213231050CF456C160547109BF
:1036300077FF02C06F5F7F4F75956795825591093F
:1036400097FD019600E410E022E530E04AE657E0FD
:10365000959587950E94EA0F82E080936D03809193
:10366000680390916903892B09F449C18CE3809325
:103670006C030E9442118091730387FD1EC061E0BC
:103680000E94E20661E0809173030E94B40661E04B
:1036900070E080E090E00E94380760E08091730362
:1036A0000E94B4066AE070E080E090E00E94380773
:1036B00061E0809173030E94B40680916803909149
:1036C0006903892B09F4DAC12091800330918103C9
:1036D000409182035091830360E074E284EF90E0B4
:1036E0000E945B23205131094109510956954795A4
:1036F000379527952093B80064E086E895E00E940E
:10370000F2126091510361508BE493E00E94A71381
:1037100064E082E895E00E94F21280916D0360E11E
:10372000813009F064E18BE493E00E94A71364E028
:103730008EE795E00E94F2128FE8809388038091D3
:103740004F03909150038038910509F0AEC18091EC
:103750005103909152038034910509F0B6C18091D4
:103760006D03813009F0C4C18FE98093880312E1B1
:103770006AED8BE493E00E94A713612F8BE493E042
:103780000E94A71361E88BE493E00E94A713609165
:1037900088038BE493E00E94A71369ED8BE493E028
:1037A0000E94A71380916D0362E2813009F061EFFE
:1037B0008BE493E00E94A71366E088E795E00E94FF
:1037C000F2128091680390916903892B09F492C1E8
:1037D00020918403309185034091860350918703A3
:1037E00060E074E284EF90E00E945B232051310995
:1037F0004109510956954795379527952093B8006B
:103800000E94CF150E94091466246394712CE6E48B
:10381000FAE08491ECE7FAE00491E8E6FAE014912A
:10382000111173C1109100011123B9F110912F02F0
:1038300068EC70E080E090E00E94380781E0182793
:1038400010932F02112309F471C10E94CF1582E059
:1038500080935F038093600370925E0360925D03C8
:1038600070925C0360925B034AE050E0509358030F
:103870004093570389E190E090935A038093590352
:1038800088E691E00E9440160E94091460ED77E0FE
:1038900080E090E00E94380710E0109300018091D2
:1038A0002F0281116FC160E082E00E94B40660E0E7
:1038B00083E00E94B40660E085E00E94B40680E0E8
:1038C00090E0892B09F4A3CF0E947706882309F49E
:1038D0009ECF0E9400009BCF6052710977FF02C00B
:1038E0006F5F7F4F759567958357910997FD019697
:1038F00000E210E023E730E04AE855E0A9CE61E0BD
:10390000809171030E94E20661E0809172030E943F
:10391000E20680917103082E000C990BFC01E05A1D
:10392000F54FE491F0E0EE0FFF1FEC5CF54F2591B1
:1039300034913093790320937803FC01EC58F54FD0
:10394000E491E0937E0380917203082E000C990BA2
:10395000FC01E05AF54FE491F0E0EE0FFF1FEC5C44
:10396000F54FA591B491B0937B03A0937A03FC012A
:10397000EC58F54FE491E0937F038C91E82BEC93A6
:103980008091660390916703892B09F434C01FB7B7
:10399000F89480910C02811127C0EAE6FAE0849144
:1039A000EEE7FAE09491E82FF0E0EE0FFF1FE65DFE
:1039B000F54FA591B491EC91E92321F461E08AE0FF
:1039C0000E94B40661E08AE00E94E2068CB5806144
:1039D0008CBD8CB580648CBD61E08DE00E94E206F8
:1039E00061E08BE00E94E20680910C028F5F809381
:1039F0000C021FBF40CE61E080916F030E94E2067F
:103A000061E0809170030E94E20680916F03082EAE
:103A1000000C990BFC01E05AF54FE491F0E0EE0F39
:103A2000FF1FEC5CF54F2591349130937503209383
:103A30007403FC01EC58F54FE491E0937C03809112
:103A40007003082E000C990BFC01E05AF54FE4912D
:103A5000F0E0EE0FFF1FEC5CF54FA591B491B09331
:103A60007703A0937603FC01EC58F54FE491E093C3
:103A70007D038C91E095E823EC93FDCD8091660366
:103A800090916703892B31F08091890390918A038B
:103A90000E94FA10E0917A03F0917B03908180916B
:103AA0007F0380958923808327CE8036910589F412
:103AB0008091510390915203409739F480916D03A6
:103AC000813029F480E18093880312E051CE8FEA9F
:103AD000FACF80349105C9F7809151039091520338
:103AE000809799F780916D03813011F480E13DCE8C
:103AF0008FEC3BCEE0917A03F0917B038081909133
:103B00007F03892B80837CCEFFCF81110E948B069F
:103B1000E12FF0E0EE0FFF1FEE5AF54FA591B491A3
:103B20008C91082309F47ECE11E0B7CE0E94CF1508
:103B300082E080935F038093600370925E036092E3
:103B40005D0370925C0360925B03AAE0B0E0B09307
:103B50005803A0935703E9E1F0E0F0935A03E09390
:103B6000590381E791E00E9440160E94091460ED1C
:103B700077E080E090E00E9438070E94CF150E9415
:103B800009148BCE1982A0902D02B0902E02D5017F
:103B900014968D919C911597892B09F425C1119646
:103BA0008D919C9112972C9131E030936B02209370
:103BB0008D0210926C0210928E02DC01ED91FC914C
:103BC0000280F381E02D41E050E0BE016F5F7F4F46
:103BD0000995019709F008C180E00E947A118111CE
:103BE00003C1D12CC12CF50184819581F7E0EF2E22
:103BF000F12CEC18FD088E159F0508F47C01D50109
:103C00000C910E9413071B012C0180916502811108
:103C100074C01E2D113208F010E2B1E0B0936502BD
:103C200021E087E090E08E199F09C816D90608F4B4
:103C300020E020936402EFEFE093630210926202AF
:103C40008FEF810F80936102F1E0F0934002809149
:103C50004002000F082B0093400280913F02813008
:103C600009F095C010923F020E9413071B012C011E
:103C7000809140028093BB0080916702909168021E
:103C8000A0916902B0916A02892B8A2B8B2BA1F03B
:103C90000E941307209167023091680240916902E7
:103CA00050916A026219730984099509261737072A
:103CB0004807590708F442C08091BC0083FDD8CF63
:103CC00045EC4093BC000E9413071B012C0180911E
:103CD0006502813009F45FC080916202811710F49F
:103CE00010916202A1E4B2E0EDE0F2E080E0811721
:103CF00051F19D9191938F5FFACF809167029091DE
:103D00006802A0916902B0916A02892B8A2B8B2BE1
:103D100009F47BCF0E94130720916702309168025B
:103D20004091690250916A026219730984099509E8
:103D3000261737074807590708F067CF80916602B2
:103D40000E94591110E010923E0210933D021E1580
:103D50001F0409F049C001E010E00C0F1D1F0C0DFD
:103D60001D1D4801C801881999098E159F05A8F5E0
:103D7000D50111968D919C91DC01ED91FC9102840D
:103D8000F385E02D0995F80181938F01EBCF55EE76
:103D90005093BC0098CF8091670290916802A091E7
:103DA0006902B0916A02892B8A2B8B2B09F48FCF81
:103DB0000E941307209167023091680240916902C6
:103DC00050916A0262197309840995092617370709
:103DD0004807590708F07BCFB1CFCE0CDF1CF7E0C6
:103DE000CF16D10408F4FFCE19810A815B800E94AE
:103DF0006A07882341F0809132038C3009F462C055
:103E000048F48B3001F1C12CD12C60ECE62E6FE729
:103E1000F62E43C085518230B0F7B0902E036B2D43
:103E200070E0762F662766277F7780912F03682BB7
:103E300090E080E00E94ED202DEC3CEC4CEC5DE34A
:103E40000E944E215BC060912E0370E090E080E004
:103E50000E94ED206B017C01B0902F03B7FE0AC0D9
:103E6000AC019B0160E070E080E89FEB0E94432280
:103E70006B017C016B2D6F7070E090E080E00E9420
:103E8000EF202DEC3CEC4CEC5DE30E944E21A701B1
:103E900096010E9444226B017C010E946A078823DC
:103EA00051F0809132038B3030F08D3080F18551AC
:103EB000823008F43DC1812C912C50ECA52E5FE797
:103EC000B52E43C0B0902E036B2D70E090E080E0E3
:103ED0000E94ED206B017C0160912F036F7070E0F8
:103EE00090E080E00E94EF202DEC3CEC4CEC5DE398
:103EF0000E944E21A70196010E9444226B017C0181
:103F0000B7FECBCFF7FAF094F7F8F094C6CF6091F4
:103F10002D0370E090E080E00E94EF202DEC3CEC5F
:103F20004CEC5DE30E944E214B015C0160912C033F
:103F300070E090E080E00E94EF209B01AC01C501A1
:103F4000B4010E9444224B015C011A8219821C8236
:103F50001B821E821D8270E060E0CE0101960E94ED
:103F60003E1729813A818111F5C02115310519F0DB
:103F7000C9010E941F241A8219821E821D821C827E
:103F80001B8220E030E04CE052E4C701B6010E9401
:103F9000512318160CF0E6C061E082E00E94B406DE
:103FA00060E083E00E94B40660E085E00E94B40611
:103FB0006BE771E0CE0101960E9466171F770E94A1
:103FC000CF1581E080935F038093600370925E035E
:103FD00060925D0370925C0360925B0310925803E1
:103FE0001092570310925A031092590383E991E0FB
:103FF0000E94401610925803109257034FE050E071
:1040000050935A034093590382EA91E00E94EF15BE
:10401000852D90E024E0959587952A95E1F7982FD6
:10402000990F990F891B880F850D90E00E942A1720
:1040300086EC91E00E94EF15802F90E034E095959A
:1040400087953A95E1F7982F990F990F891B880F5B
:10405000800F90E00E942A1786EC91E00E94EF15F5
:10406000812F90E044E0959587954A95E1F7982F48
:10407000990F990F891B880F810F90E00E942A17D2
:1040800010925803109257038EE190E090935A03D8
:10409000809359038AEA91E00E94EF1542E0C7013C
:1040A000B6010E944E1682EB91E00E9440161092DB
:1040B000580310925703AAE2B0E0B0935A03A093BA
:1040C000590385EB91E00E94EF1542E0C501B40170
:1040D0000E944E168DEB91E00E94401610925803FC
:1040E0001092570387E390E090935A03809359030B
:1040F00080EC91E00E94EF154D815E8169817A81AB
:104100008BE493E00E94790887E591E00E94EF1527
:104110000E94091468EE73E080E090E00E94380786
:1041200089819A81009709F4CACB0E941F24C7CBCA
:1041300060912C0370912D0376276727762790E0F6
:1041400080E00E94ED202DEC3CEC4CEC5DE30E9405
:104150004E21F9CE1E821D8269E571E0C9010E94DF
:104160007A250FCF20E030E040EA51E4C701B601E4
:104170000E94E82060E087FF0EC082E00E94B40643
:1041800060E083E00E94B40661E085E00E94B4062E
:1041900067E871E00FCF82E00E94B40661E083E03F
:1041A0000E94B40660E085E00E94B4066CE871E00D
:1041B00001CF8FE291E090934C0380934B03809169
:1041C0006A0390916B03009711F00C941F240895DB
:1041D0000E942A2108F481E00895E89409C097FB21
:1041E0003EF490958095709561957F4F8F4F9F4FCE
:1041F0009923A9F0F92F96E9BB279395F695879512
:1042000077956795B795F111F8CFFAF4BB0F11F4D4
:1042100060FF1BC06F5F7F4F8F4F9F4F16C088237B
:1042200011F096E911C0772321F09EE8872F762FB1
:1042300005C0662371F096E8862F70E060E02AF0F2
:104240009A95660F771F881FDAF7880F96958795DE
:1042500097F90895990F0008550FAA0BE0E8FEEFB3
:1042600016161706E807F907C0F012161306E4073A
:10427000F50798F0621B730B840B950B39F40A2633
:1042800061F0232B242B252B21F408950A2609F411
:10429000A140A6958FEF811D811D08950E94612187
:1042A0000C94D2210E94C42138F00E94CB2120F02E
:1042B000952311F00C94BB210C94C12111240C9472
:1042C00006220E94E32170F3959FC1F3950F50E001
:1042D000551F629FF001729FBB27F00DB11D639FB8
:1042E000AA27F00DB11DAA1F649F6627B00DA11D5E
:1042F000661F829F2227B00DA11D621F739FB00D04
:10430000A11D621F839FA00D611D221F749F332773
:10431000A00D611D231F849F600D211D822F762F0C
:104320006A2F11249F5750409AF0F1F088234AF0E9
:10433000EE0FFF1FBB1F661F771F881F9150504055
:10434000A9F79E3F510580F00C94BB210C940622E6
:104350005F3FE4F3983ED4F3869577956795B795DC
:10436000F795E7959F5FC1F7FE2B880F911D9695F6
:10437000879597F9089597F99F6780E870E060E066
:1043800008959FEF80EC089500240A9416161706EE
:1043900018060906089500240A9412161306140636
:1043A00005060895092E0394000C11F4882352F099
:1043B000BB0F40F4BF2B11F460FF04C06F5F7F4F51
:1043C0008F4F9F4F089557FD9058440F551F59F038
:1043D0005F3F71F04795880F97FB991F61F09F3FF2
:1043E00079F087950895121613061406551FF2CF1B
:1043F0004695F1DF08C0161617061806991FF1CF6B
:1044000086957105610508940895E894BB27662791
:104410007727CB0197F908952F923F924F925F92A1
:104420006F927F928F929F92AF92BF92CF92DF92C4
:10443000EF92FF920F931F93CF93DF93CDB7DEB729
:10444000CA1BDB0B0FB6F894DEBF0FBECDBF0994BD
:104450002A88398848885F846E847D848C849B8414
:10446000AA84B984C884DF80EE80FD800C811B8122
:10447000AA81B981CE0FD11D0FB6F894DEBF0FBE51
:10448000CDBFED0108955058BB27AA270E945B229B
:104490000C94D2210E94C42138F00E94CB2120F03C
:1044A00039F49F3F19F426F40C94C1210EF4E095E1
:1044B000E7FB0C94BB21E92F0E94E32158F3BA17C4
:1044C000620773078407950720F079F4A6F50C942A
:1044D00005220EF4E0950B2EBA2FA02D0B01B90189
:1044E00090010C01CA01A0011124FF27591B99F06A
:1044F000593F50F4503E68F11A16F040A22F232F76
:10450000342F4427585FF3CF469537952795A795C5
:10451000F0405395C9F77EF41F16BA0B620B730B6C
:10452000840BBAF09150A1F0FF0FBB1F661F771FDD
:10453000881FC2F70EC0BA0F621F731F841F48F492
:10454000879577956795B795F7959E3F08F0B0CF1B
:104550009395880F08F09927EE0F97958795089502
:104560000E94C4220C94D2210E94CB2158F00E94B8
:10457000C42140F029F45F3F29F00C94BB21511174
:104580000C9406220C94C1210E94E32168F3992324
:10459000B1F3552391F3951B550BBB27AA2762173F
:1045A0007307840738F09F5F5F4F220F331F441F4C
:1045B000AA1FA9F335D00E2E3AF0E0E832D0915080
:1045C0005040E695001CCAF72BD0FE2F29D0660F6D
:1045D000771F881FBB1F261737074807AB07B0E8B0
:1045E00009F0BB0B802DBF01FF2793585F4F3AF0B6
:1045F0009E3F510578F00C94BB210C9406225F3F3E
:10460000E4F3983ED4F3869577956795B795F7953B
:104610009F5FC9F7880F911D9695879597F9089523
:10462000E1E0660F771F881FBB1F621773078407BF
:10463000BA0720F0621B730B840BBA0BEE1F88F7CE
:10464000E09508950E94EB2188F09F5798F0B92FCC
:104650009927B751B0F0E1F0660F771F881F991FB7
:104660001AF0BA95C9F714C0B13091F00E94052232
:10467000B1E008950C940522672F782F8827B85F42
:1046800039F0B93FCCF3869577956795B395D9F70F
:104690003EF490958095709561957F4F8F4F9F4F19
:1046A00008950E942A2108F48FEF08950E942A217C
:1046B000880B990B0895A1E21A2EAA1BBB1BFD01C2
:1046C0000DC0AA1FBB1FEE1FFF1FA217B307E407F1
:1046D000F50720F0A21BB30BE40BF50B661F771F49
:1046E000881F991F1A9469F7609570958095909529
:1046F0009B01AC01BD01CF010895EE0FFF1F059096
:10470000F491E02D09940F931F93CF93DF938230A0
:10471000910510F482E090E0E0918D03F0918E031A
:1047200030E020E0B0E0A0E0309799F421153105A9
:1047300009F44AC0281B390B24303105D8F58A8189
:104740009B816115710589F1FB0193838283FE01D1
:1047500011C0408151810281138148175907E0F04F
:104760004817590799F4109761F012960C93129715
:1047700013961C933296CF01DF91CF911F910F9129
:10478000089500938D0310938E03F4CF2115310506
:1047900051F04217530738F0A901DB019A01BD011E
:1047A000DF01F801C1CFEF01F9CF90938E03809321
:1047B0008D03CDCFFE01E20FF31F81939193225021
:1047C000310939832883D7CF20918B0330918C0313
:1047D000232B41F4209103013091040130938C0389
:1047E00020938B03209101013091020121153105A5
:1047F00041F42DB73EB74091050150910601241BAD
:10480000350BE0918B03F0918C03E217F307A0F4D2
:104810002E1B3F0B2817390778F0AC014E5F5F4F16
:104820002417350748F04E0F5F1F50938C034093B9
:104830008B03819391939FCFF0E0E0E09CCFCF93E7
:10484000DF930097E9F0FC01329713821282A09166
:104850008D03B0918E03ED0130E020E01097A1F4BC
:1048600020813181820F931F20918B0330918C0323
:104870002817390709F061C0F0938C03E0938B038C
:10488000DF91CF910895EA01CE17DF07E8F54A815D
:104890005B819E0141155105B1F7E901FB83EA8374
:1048A00049915991C40FD51FEC17FD0761F4808120
:1048B00091810296840F951FE901998388838281F3
:1048C00093819B838A83F0E0E0E012968D919C9126
:1048D00013970097B9F52D913C911197CD01029650
:1048E000820F931F20918B0330918C032817390777
:1048F00039F6309751F510928E0310928D03B093D4
:104900008C03A0938B03BCCFD383C283408151819E
:10491000840F951FC817D90761F44E5F5F4F8881D8
:104920009981480F591F518340838A819B819383CA
:1049300082832115310509F0B0CFF0938E03E09307
:104940008D039ECFFD01DC01C0CF13821282D7CF31
:10495000B0E0A0E0EEEAF4E20C940E228C010097A5
:1049600051F4CB010E9483238C01C801CDB7DEB77F
:10497000E0E10C942A22FC01E60FF71F9C01225073
:104980003109E217F30708F49DC0D901CD91DC91FC
:104990001197C617D70798F0C530D10530F3CE016F
:1049A00004978617970708F3C61BD70B2297C19366
:1049B000D1936D937C93CF010E941F24D6CF5B01CE
:1049C000AC1ABD0A4C018C0E9D1EA0918D03B091B6
:1049D0008E03512C412CF12CE12C109731F5809154
:1049E0008B0390918C038815990509F05CC04616DD
:1049F000570608F058C0809101019091020100977C
:104A000041F48DB79EB74091050150910601841B7A
:104A1000950BE817F90708F055C0F0938C03E09365
:104A20008B03F90171836083A0CF8D919C911197C5
:104A300012966C90129713967C901397A815B9054F
:104A400059F56C0142E0C40ED11CCA14DB0420F1FC
:104A5000AC014A195B09DA011296159780F062825F
:104A6000738251834083D9016D937C93E114F104E7
:104A700071F0D7011396FC93EE93129776CF22969E
:104A80008C0F9D1FF90191838083F301EFCFF09389
:104A90008E03E0938D0369CF4816590608F42C0164
:104AA0007D01D3019ACFCB010E9483237C01009723
:104AB00049F0AE01B8010E946A25C8010E941F2476
:104AC000870153CF10E000E050CF81E090E0F894F0
:104AD0000C948125FB01DC0102C001900D92415034
:104AE0005040D8F70895DC0101C06D93415050400B
:104AF000E0F70895FB01DC0101900D920020E1F741
:104B0000089515E0C5E4D5E004C0FE010E947D23B0
:0C4B10002196C634D107C9F7F894FFCFF6
:104B1C000100008F038000000000000A067908AB3A
:104B2C00055706DC05BA05CE0500000000C012933F
:104B3C0012CC1572058C1279126A12000000003E1C
:104B4C000D7908CC15F8104D0A7205E30FBB0FD781
:104B5C000FCB0F4B107205040B5015BD09060A0440
:104B6C000FE70E6F0E100E0D0A006E616E00696E6F
:104B7C0066006F7666003000504F574552204F4EFE
:104B8C0000504F574552204F464600455854524509
:104B9C004D4520484F5400434F4C44004E4F524D0E
:104BAC00414C0057454154484552205359535445A4
:104BBC004D0054494D45203A200054454D50203A63
:104BCC00200020430048554D20203A20002025008D
:084BDC005354415455533A00B3
:00000001FF
