:100000000C94C3050C94EB050C94EB050C94EB05D8
:100010000C94EB050C94EB050C94EB050C94EB05A0
:100020000C94EB050C94EB050C94EB050C94EB0590
:100030000C94EB050C94EB050C94EB050C94EB0580
:100040000C94D9160C94EB050C9449170C942317B7
:100050000C94EB050C94EB050C94EB050C94EB0560
:100060000C947B170C94EB0500407A10F35A00A017
:10007000724E18090010A5D4E80000E87648170071
:1000800000E40B54020000CA9A3B000000E1F505B1
:10009000000080969800000040420F000000A086FB
:1000A00001000000102700000000E803000000002D
:1000B0006400000000000A000000000001000000D1
:1000C00000002C76D888DC674F0823DFC1DFAE59EB
:1000D000E1B1B796E5E3E453C63AE651997696E87E
:1000E000E6C28426EB898C9B62ED407C6FFCEFBC02
:1000F0009C9F40F2BAA56FA5F490055A2AF75C932D
:100100006B6CF9676DC11BFCE0E40D47FEF520E662
:10011000B500D0ED902E0300943577050080841E45
:10012000080000204E0A000000C80C333333330FA0
:10013000986E12831141EF8D2114893BE65516CF3D
:10014000FEE6DB18D1844B381BF77C1D901DA4BB49
:10015000E424203284725E228100C9F124ECA1E5FE
:100160003D2700000000003E5B4F5B3E3E6B4F6B47
:100170003E1C3E7C3E1C183C7E3C181C577D571C88
:100180001C5E7F5E1C00183C1800FFE7C3E7FF0001
:1001900018241800FFE7DBE7FF30483A060E26294F
:1001A000792926407F050507407F05253F5A3CE712
:1001B0003C5A7F3E1C1C08081C1C3E7F14227F22D8
:1001C000145F5F005F5F06097F017F006689956AA3
:1001D000606060606094A2FFA29408047E0408102E
:1001E000207E201008082A1C08081C2A08081E1057
:1001F0001010100C1E0C1E0C30383E3830060E3E0F
:100200000E06000000000000005F0000000700076D
:1002100000147F147F14242A7F2A12231308646297
:1002200036495620500008070300001C22410000F8
:1002300041221C002A1C7F1C2A08083E0808008056
:1002400070300008080808080000606000201008EE
:1002500004023E5149453E00427F400072494949EF
:10026000462141494D331814127F10274545453921
:100270003C4A494931412111090736494949364625
:100280004949291E00001400000040340000000805
:1002900014224114141414140041221408020159A8
:1002A00009063E415D594E7C1211127C7F49494935
:1002B000363E414141227F4141413E7F49494941CA
:1002C0007F090909013E414151737F0808087F00F9
:1002D000417F41002040413F017F081422417F407F
:1002E0004040407F021C027F7F0408107F3E414156
:1002F000413E7F090909063E4151215E7F091929C6
:1003000046264949493203017F01033F4040403FAF
:100310001F2040201F3F4038403F631408146303F0
:10032000047804036159494D43007F41414102046F
:10033000081020004141417F040201020440404076
:100340004040000307080020545478407F2844446C
:10035000383844444428384444287F385454541886
:1003600000087E090218A4A49C787F080404780081
:10037000447D40002040403D007F10284400004163
:100380007F40007C047804787C0804047838444476
:100390004438FC1824241818242418FC7C0804046D
:1003A00008485454542404043F44243C4040207CD6
:1003B0001C2040201C3C4030403C44281028444C29
:1003C0009090907C4464544C4400083641000000F6
:1003D000770000004136080002010204023C262397
:1003E000263C1EA1A161123A4040207A385454554F
:1003F0005921555579412254547842215554784019
:1004000020545579400C1E527212395555555939A0
:100410005454545939555454580000457C410002F5
:10042000457D420001457C407D1211127DF028255A
:1004300028F07C545545002054547C547C0A097F94
:100440004932494949323A4444443A324A484830A8
:100450003A4141217A3A42402078009DA0A07D3D5A
:100460004242423D3D4040403D3C24FF2424487EE2
:100470004943662B2FFC2F2BFF0929F620C0887ECD
:10048000090320545479410000447D413048484AD2
:1004900032384040227A007A0A0A727D0D19317D85
:1004A0002629292F28262929292630484D40203859
:1004B0000808080808080808382F10C8ACBA2F1018
:1004C0002834FA00007B000008142A142222142A7F
:1004D00014085500550055AA55AA55AAFF55FF55B1
:1004E000FF000000FF00101010FF00141414FF00A4
:1004F0001010FF00FF1010F010F0141414FC001482
:1005000014F700FF0000FF00FF1414F404FC14149F
:1005100017101F10101F101F1414141F001010109C
:10052000F0000000001F101010101F10101010F02D
:1005300010000000FF101010101010101010FF100D
:10054000000000FF140000FF00FF00001F10170054
:1005500000FC04F414141710171414F404F400002D
:10056000FF00F714141414141414F700F7141414DF
:10057000171410101F101F141414F4141010F0107E
:10058000F000001F101F0000001F14000000FC14EA
:100590000000F010F01010FF10FF141414FF1410DE
:1005A00010101F00000000F010FFFFFFFFFFF0F031
:1005B000F0F0F0FFFFFF0000000000FFFF0F0F0F43
:1005C0000F0F3844443844FC4A4A4A347E0202063B
:1005D00006027E027E0263554941633844443C046E
:1005E000407E201E2006027E020299A5E7A5991CE6
:1005F0002A492A1C4C7201724C304A4D4D30304809
:10060000784830BC625A463D3E494949007E010166
:10061000017E2A2A2A2A2A44445F444440514A44FB
:100620004040444A51400000FF0103E080FF0000C9
:1006300008086B6B083612362436060F090F0600C1
:100640000018180000001010003040FF0101001FCA
:1006500001011E00191D1712003C3C3C3C0000002B
:100660000000000103070F1F3F7F0080C0E0F0F88B
:10067000FCFEDB40A4A62EAF2000A1C8D300408D15
:10068000AED580A80000600000000000000000005F
:100690000000000000E0000000000000000000007A
:1006A00000000001E0000000000000000000000069
:1006B000000001F000000000000000000000000049
:1006C0000003F00000000000000000000000000037
:1006D00007F000000000000000000000000000071C
:1006E000F8000000000000000000000000000FF80B
:1006F00000000003C0007E000001E0007F0FF80052
:10070000000003C000FE000001E000FFEFF8000061
:100710000003C000FE000001E000FFFFF800000041
:1007200003C000F00000000F007FFE7FC000000348
:10073000C000F00000000F003FFE7FF83FF1FBCF4C
:10074000FCFEF3BC3DEFE01FFE7FFF7FFBFFDFFE03
:10075000FEFFBC3DEFE01FC6FFFF7FFBFFDFFEFE9D
:10076000FFBC3DEFE00FE3C7FE787BC3DE1EF0FF6A
:10077000BC3DEF0007FF87FC787BC3DE1EF0F83C32
:100780003DEF0001FFFFF0007BC3C01EF0F03C3DD9
:10079000EF0001F37FE03FFBC3CFFEF0F03C3DEF05
:1007A0000003E33F807FFBC3DFFEF0F03C3DEF0042
:1007B00007E73C00787BC3DE1EF0F03C3DEF00070E
:1007C000FFBE00787BC3DE1EF0F03C3DEF0007FF6C
:1007D000FE00787BC3DE1EF0F03C3DEF000FFFFE15
:1007E000007FFBFFDFFEF0F03FFDEFE00FFFFF00BB
:1007F0007FFBFFDFFEF0F03FFDEFE00FF9FF003E73
:1008000079F9CF9EF0F01F3DE7E01FF1FF000000F7
:100810000000000000000000001F80FF007FFFFFBD
:10082000FFFFFFFFFFFFFFE01C007F007FFFFFFFD8
:10083000FEB46D888D18E000001F007FFFFFFFFEF3
:1008400095AD7DB577E000000F007FFFFFFFFEA5AF
:10085000AD9D8D19E0000006007FFFFFFFFEB5ADE6
:10086000EDB57EE000000000000180000000000007
:1008700000000000038000000000000000000007EE
:10088000C000000000000000000007C000000000E1
:1008900000000000000FC000000000000000000089
:1008A0001FE00000000000000000001FE00000004A
:1008B0000000000000003FE0000000000000000019
:1008C000003FF00000000000000000007FF000008A
:1008D00000000000001FF87FF00000000000000092
:1008E0003FFE7FF0000000000000003FFF7FF000AF
:1008F0000000000000001FFFFBE0000000000000FF
:10090000000FFFF9FFC00000000000000FFFF9FF1B
:10091000F800000000000007FFF1FFFF00000000EA
:10092000000003FC73FFFF80000000000001FE3F99
:10093000FFFF80000000000000FF1E0FFF0000000E
:10094000000000007FFE1FFC000000000000003FD0
:10095000FFFFF8000000000000000FDFFFE00000D4
:1009600000000000001F19FFC00000000000000090
:100970003F3CFF00000000000000007E7CF800000B
:100980000000000000007FFE7C000000000000006E
:1009900000FFFFFC0000000000000000FFFFFE0061
:1009A00000000000000000FFFFFE0000000000004B
:1009B0000001FFEFFE0000000000000001FFCFFE7D
:1009C0000000000000000003FF07FE000000000020
:1009D000000003FC07FE0000000000000003F0031D
:1009E000FE00000000000000018000FE000000008A
:1009F0000000000000007E00000000000000000079
:100A0000003E000000000000000000000C0000009C
:100A1000000000078000FC000003C0000000078009
:100A200001FC000003C0000000078001FC0000037F
:100A3000C0000000078001E00000001E0000000769
:100A40008001E00000001E007FE3F79FF9FDE778DA
:100A50007BDFC0FFF7FFBFFDFDFF787BDFC0FFF747
:100A6000FFBFFDFDFF787BDFC0F0F787BC3DE1FFF6
:100A7000787BDE00F0F787BC3DE1F0787BDE00009C
:100A8000F787803DE1E0787BDE007FF7879FFDE11F
:100A9000E0787BDE00FFF787BFFDE1E0787BDE00DA
:100AA000F0F787BC3DE1E0787BDE00F0F787BC3DE6
:100AB000E1E0787BDE00F0F787BC3DE1E0787BDEAB
:100AC00000FFF7FFBFFDE1E07FFBDFC0FFF7FFBFE7
:100AD000FDE1E07FFBDFC07CF3F39F3DE1E03E7B87
:100AE000CFC00000000000000000000000FFFFFF7A
:100AF000FFFFFFFFFFFFFFC0FFFFFFFFFD68DB11F0
:100B00001A31C0FFFFFFFFFD2B5AFB6AEFC0FFFF4A
:100B1000FFFFFD4B5B3B1A33C0FFFFFFFFFD6B5B2D
:100B2000DB6AFDC000000000240027002A0000004E
:100B30000000250028002B00000000080002010032
:100B40000003040700000000000000000000000097
:100B50002300260029002200FF21040404040404C9
:100B6000040402020202020203030303030301025C
:100B7000040810204080010204081020010204082B
:100B800010209A18A21D11241FBECFEFD8E0DEBF9F
:100B9000CDBF23E0AAE5B1E001C01D92AF31B2079D
:100BA000E1F711E0A0E0B1E0E2E0F8E402C0059076
:100BB0000D92AA35B107D9F715E0C2ECD5E004C013
:100BC0002197FE010E94F021C13CD107C9F70E9484
:100BD0003C190C94F4230C9400000895CF92DF92FA
:100BE000EF92FF92CF93DF93B0910F03A0E08111BA
:100BF000AB2F8091100390E0880F991FAC01445BEC
:100C0000544FC0901503D0901603E0901703F09056
:100C1000180330E020E0FA01C591D491E881B901D0
:100C200090E080E0EB23EA130AC02F5F3F4F6C1582
:100C30007D058E059F0578F36FEF7FEFCB01DF9188
:100C4000CF91FF90EF90DF90CF900895FC01538DEE
:100C5000448D252F30E0842F90E0821B930B541796
:100C600010F0CF96089501970895FC01918D828D23
:100C7000981761F0A28DAE0FBF2FB11D5D968C91BC
:100C8000928D9F5F9F73928F90E008958FEF9FEFFB
:100C90000895FC01918D828D981731F0828DE80FB7
:100CA000F11D858D90E008958FEF9FEF0895FC0171
:100CB000918D228D892F90E0805C9F4F821B91093E
:100CC0008F7399270895FC01A48DA80FB92FB11D2A
:100CD000A35ABF4F2C91848D90E001968F73992772
:100CE000848FA689B7892C93A089B1898C91837050
:100CF00080648C93938D848D981306C00288F38949
:100D0000E02D80818F7D80830895EF92FF920F9375
:100D10001F93CF93DF93EC0181E0888F9B8D8C8DA7
:100D200098131AC0E889F989808185FF15C09FB79B
:100D3000F894EE89FF896083E889F989808183705E
:100D4000806480839FBF81E090E0DF91CF911F910D
:100D50000F91FF90EF900895F62E0B8D10E00F5F2E
:100D60001F4F0F731127E02E8C8D8E110CC00FB604
:100D700007FCFACFE889F989808185FFF5CFCE019C
:100D80000E946306F1CFEB8DEC0FFD2FF11DE35AAE
:100D9000FF4FF0829FB7F8940B8FEA89FB8980811F
:100DA0008062CFCFCF93DF93EC01888D8823B9F099
:100DB000AA89BB89E889F9898C9185FD03C0808166
:100DC00086FD0DC00FB607FCF7CF8C9185FFF2CFE3
:100DD000808185FFEDCFCE010E946306E9CFDF91D0
:100DE000CF9108958FE192E00E94570621E0892B70
:100DF00009F420E0822F089580E090E0892B29F00B
:100E00000E94F20681110C9400000895833081F055
:100E100028F4813099F08230A9F008958730A9F044
:100E20008830C9F08430B1F4809180008F7D03C098
:100E3000809180008F7780938000089584B58F77AC
:100E400084BD089584B58F7DFBCF8091B0008F77EE
:100E50008093B00008958091B0008F7DF9CF1F93EB
:100E6000CF93DF93282F30E0F901E85CF44F8491B1
:100E7000F901E259F44FD491F901E65AF44FC491C3
:100E8000CC23A9F0162F81110E940607EC2FF0E069
:100E9000EE0FFF1FE25DF44FA591B4918FB7F89468
:100EA000EC91111108C0D095DE23DC938FBFDF9148
:100EB000CF911F910895DE2BF8CFCF93DF9390E071
:100EC000FC01E259F44F2491865A944FFC0184911D
:100ED0008823D1F090E0880F991FFC01EC5DF44F5E
:100EE000A591B491FC01E25DF44FC591D4916230BB
:100EF00071F49FB7F8943C91822F809583238C9353
:100F0000E8812E2B28839FBFDF91CF9108958FB763
:100F1000F894EC912E2B2C938FBFF6CF3FB7F8941B
:100F20008091130290911402A0911502B0911602C3
:100F300026B5A89B05C02F3F19F00196A11DB11D34
:100F40003FBFBA2FA92F982F8827BC01CD01620F70
:100F5000711D811D911D42E0660F771F881F991F2B
:100F60004A95D1F708958F929F92AF92BF92CF92F8
:100F7000DF92EF92FF924B015C010E948E076B01A2
:100F80007C010E948E076C197D098E099F09683EBD
:100F9000734081059105A8F321E0821A9108A10808
:100FA000B10888EEC80E83E0D81EE11CF11C811444
:100FB0009104A104B10429F7FF90EF90DF90CF9046
:100FC000BF90AF909F908F900895CF92DF92EF9255
:100FD000FF920F931F93CF93DF93CDB7DEB7C0542B
:100FE000D1400FB6F894DEBF0FBECDBF2FB7F89437
:100FF0008091170290911802A0911902B0911A02E3
:101000002FBF40911103509112036091130370910F
:1010100014038C019D01041B150B260B370BB90122
:10102000A801403D57406105710590F48091190376
:10103000C05CDE4F0FB6F894DEBF0FBECDBFDF91B0
:10104000CF911F910F91FF90EF90DF90CF90089577
:101050008093110390931203A0931303B09314038E
:1010600010920C0310920B0310920A0310920903C2
:101070001092080362E080910D030E945D0761E019
:1010800070E080E090E00E94B30761E080910D0382
:101090000E945D0760E080910D030E942F07809100
:1010A0000E038551823020F58BE291E10197F1F733
:1010B00062E080910D030E945D0780911A0390E029
:1010C0008230910538F0880F991F880F991F059776
:1010D0000197F1F7F89480E00E94EE056F3F7F4F93
:1010E0008F4F9F4F61F410921903789480E0A0CF46
:1010F00064E170E080E090E00E94B307D9CF81E026
:101100000E94EE056F3F7F4F8F4F9F4F61F38E011F
:101110000F5F1F4F6E018FEBC81A8EEFD80A780150
:1011200080E00E94EE05F7016083718382839383E0
:1011300081E00E94EE05F7016483758386839783BF
:10114000F8E0EF0EF11CEC14FD0451F7789430E058
:1011500020E0F801C080D180E280F3804481558195
:1011600066817781FFEFCF16DF06EF06FF0631F0CD
:101170004F3F8FEF58076807780719F4109219034B
:10118000B5CFF90183E0F595E7958A95E1F7E85F3A
:10119000FC4F8081880FC416D506E606F70610F1CD
:1011A00080832F5F3F4F085F1F4F2832310589F63C
:1011B00040910C032091080380910903280F3327E5
:1011C000331F80910A03280F311D80910B03820F7A
:1011D000932F911D99274817190681F681E0809376
:1011E000190326CF8160DCCF08950895AF92BF9296
:1011F000CF92DF92EF92FF920F931F93CF93DF93E3
:101200006C017B018B01040F151FEB015E01AE1811
:10121000BF08C017D10759F06991D601ED91FC9133
:101220000190F081E02DC6010995892B79F7C50160
:10123000DF91CF911F910F91FF90EF90DF90CF90B2
:10124000BF90AF900895EF92FF920F931F93CF93AB
:10125000DF93EC01EC80FD806E157F050CF070C013
:1012600057FF04C0240F351F50E040E08E819F815E
:10127000FA01E20FF31F8E179F071CF49C01241B39
:10128000350B121613060CF05BC0922F842F869537
:10129000869586958E9DD0018F9DB00D11246A0F85
:1012A0007B1FAF8DB8A1A60FB71F477049F188E02B
:1012B000841B482F682F70E0FB01E659F94FE49139
:1012C000281708F063C0621B71092FEF30E002C0DD
:1012D000359527956A95E2F7E2230130110539F03B
:1012E000B0F10230110561F58C91E82702C08C91B4
:1012F000E82BEC93941720F12C813D81A20FB31FB2
:10130000E92FE41BE83078F00230110521F58E2F2B
:101310009C9190959C932C813D81A20FB31F885086
:101320008830B0F7E770EE2359F0F0E0EE59F94F4E
:10133000E49101301105F9F010F10230110519F1B5
:10134000DF91CF911F910F91FF90EF900895E0955D
:101350008C91E823CECF81E00115110509F480E0DE
:1013600081959E2F8C932C813D81A20FB31F9850A5
:101370009830C0F7D7CF8C91E82BEC93E1CFE09574
:101380008C91E823FACF8C91E827F7CF0130110533
:1013900009F4ADCFE0F20230110509F4A5CFAE0D8E
:1013A000BF1DAECF0F931F93CF93DF9377FF04C082
:1013B000260F371F70E060E0DC011496CD91DC91C0
:1013C000FB01E20FF31FCE17DF071CF49E01261B63
:1013D000370B121613064CF5FA0157FD3796A3E0AA
:1013E000F595E795AA95E1F7EC9FD001ED9FB00D3B
:1013F000FC9FB00D11246A0F7B1FDC015F96ED91FD
:10140000FC91E60FF71F4770552781E090E001C07F
:10141000880F4A95EAF7482F0130110559F0A8F0D6
:101420002E0F3F1F02301105E1F0DF91CF911F9188
:101430000F9108952E0F3F1FE217F307B1F381912B
:10144000DF011197842B8C93F7CF80952E0F3F1FD0
:10145000E217F30751F39191DF01119798239C93C1
:10146000F7CFE217F30709F38191DF011197842782
:101470008C93F7CF0F931F93FA01DC0156964C9192
:1014800056974230E9F04330A1F1413061F51496AE
:101490004D915C91DA01AE1BBF0BFD01E21BF30B1A
:1014A00077FD0BC0DC0116964D915C9164177507B2
:1014B00024F4AB01BF010E94D2091F910F9108953E
:1014C00014964D915C91DA01A61BB70BBD016150DA
:1014D0007109DC0116964D915C91DA01AE1BBF0BD0
:1014E000FD01E21BF30B77FDE8CFAF010E9423095A
:1014F000E4CF16964D915C91DA01A61BB70BBD01A6
:1015000061507109CDCF0F931F93FA01DC015696FC
:101510004C9156974230A9F0433091F1413019F582
:1015200014964D915C91DA01AE1BBF0BFD01319712
:10153000F7FD04C0AB01BF010E9423091F910F9169
:10154000089514964D915C91DA01A61BB70BBD016D
:10155000DC0116964D915C91DA01AE1BBF0BFD01CB
:101560003197621B730BF7FDE9CFDC0116964D91A5
:101570005C91E417F50714F7AF010E94D209DECFA2
:1015800016964D915C91DA01A61BB70BBD01621B4B
:10159000730BCECFFC0177FD64C080859185681701
:1015A00079070CF05EC057FD5CC0828593854817B3
:1015B00059070CF056C086898230B1F0833029F18A
:1015C000813041F484819581841B950BAB01BC0172
:1015D000615071092130310509F108F443C022300E
:1015E000310509F463C0089584819581DC01A61B4F
:1015F000B70BBD016150710986819781DC01A41B85
:10160000B50BAD0141505109E5CF86819781861B0D
:10161000970BBA01AC0141505109DCCFCA0157FD0B
:101620000796A3E095958795AA95E1F7A481B581E2
:101630008A9F90018B9F300D9A9F300D1124620F6D
:10164000731F078CF0A1E02DE60FF71F4770552799
:1016500021E030E001C0220F4A95EAF78081822B19
:1016600080830895CA0157FD079633E095958795C5
:101670003A95E1F7A481B5818A9F90018B9F300D47
:101680009A9F300D1124620F731F078CF0A1E02D7B
:10169000E60FF71F4770552781E090E001C0880FE3
:1016A0004A95EAF7809590818923DACFCA0157FDE0
:1016B000079623E0959587952A95E1F7A481B58152
:1016C0008A9F90018B9F300D9A9F300D1124620FDD
:1016D000731F078CF0A1E02DE60FF71F4770552709
:1016E00021E030E001C0220F4A95EAF7808182278D
:1016F000B7CF08958EBD00000DB407FEFDCF8EB5A7
:1017000008958CBD9DBD08950895FC016370668B9E
:101710008481958126813781613039F0633029F0E9
:101720009187808733872287089531872087938721
:10173000828708952F923F924F925F926F927F928D
:101740008F929F92AF92BF92CF92DF92EF92FF92D1
:101750000F931F93CF93DF93CDB7DEB76A970FB682
:10176000F894DEBF0FBECDBF9A8F898F7A836983CD
:101770004A01D22E18870F833701BC2CDC01599601
:101780002D913C915A972115310509F015C11896F4
:101790008D919C911997681779070CF0D7C11A960B
:1017A0008D919C91481759070CF0D0C14C2C512CAD
:1017B000B6E0CB9E600D711D11247C876B871616D9
:1017C00017060CF0C3C1EA2DF0E0FA87E98793E031
:1017D000EE0FFF1F9A95E1F7F88BEF87CF01840F8B
:1017E000951F181619060CF0B1C1A98DBA8D58961F
:1017F0008C91811104C0BFEABD1508F4D394A98D62
:10180000BA8DED91FC9111970284F385E02DCD0105
:101810000995B5E0DB9EC0011124E981FA81FC83C2
:10182000EB83312C212C9C012E593E4F388F2F8B6E
:101830004A2D50E05E8B4D8BEF89F88DE20DF31D44
:1018400044919E828D82D12CC12C69817A81620D56
:10185000731D7A8B698B842F90E09C8B8B8BE98D29
:10186000FA8DA081B18140FF82C0F1E0BF126FC04C
:10187000AF126DC01C96ED91FC912F813885A401AB
:101880004C0D5D1D69897A89898D9A8D0995EB8941
:10189000FC89F595E7954E2F5FEFC51AD50A6D8146
:1018A0007E818D899E89680F791F7E836D8398E084
:1018B000C916D10481F6AFEF2A1A3A0AEB81FC81EE
:1018C000E40DF51DFC83EB83F5E02F16310409F0E0
:1018D000B3CF2F81388526153705B9F0A98DBA8D7C
:1018E000ED91FC91B1E0BB1257C0AB1255C06981BC
:1018F0007A816B5F7F4F0088F189E02D830128E0BA
:1019000030E0A401898D9A8D0995A98DBA8DED914C
:10191000FC9111970688F789E02DCD016A960FB6E4
:10192000F894DEBF0FBECDBFDF91CF911F910F9115
:10193000FF90EF90DF90CF90BF90AF909F908F90EF
:101940007F906F905F904F903F902F9009941E96DC
:10195000ED91FC91EF80F88409851A8592014D8103
:101960005E816B817C81898D9A8D099590CF2F81C5
:1019700038852615370509F48ACF31E0B31207C040
:10198000A31205C01C96ED91FC91930178CF1E9691
:10199000ED91FC917301E0CF6B857C85641975092D
:1019A0000684F785E02D73010F8518899201A40143
:1019B000898D9A8D0995A9CFF90134969491329722
:1019C00045915491D91AB7E0DB9E400D511D112469
:1019D000F901259134913C8B2B8BFA0125903490A1
:1019E000FA013296749031963491398B3296649024
:1019F0003196449041E04C1518F04A1508F07FC02C
:101A0000662D062C000C770B7C836B83842D042CB5
:101A1000000C990B9E838D83A98DBA8DED91FC915D
:101A200011970284F385E02DCD010995512CD12C1D
:101A3000C12CEA2DF0E0FA87E9872B2D30E03C87B6
:101A40002B87A401440D511D47FC5A95588F4F8B8D
:101A500069817A81660D711D67FC7A957E876D8735
:101A60007989C71608F051CF2C2D30E04D815E8169
:101A7000420F531FA985BA854A9FC0014B9F900D05
:101A80005A9F900D1124FC01E80DF91DF88BEF878A
:101A9000852D612C4F89588D420F531F5E8B4D8BC6
:101AA000671408F050C044244394480E877041F4F2
:101AB000C1010196EB89FC89E20DF31DD4901C0154
:101AC000D7FE19C0A98DBA8DED91FC91662D70E0FD
:101AD000B1E0BB1219C0AB1217C02D853E85620F55
:101AE000731F0484F585E02D2F8138854D895E892B
:101AF000898D9A8D0995DD0C6394842DD1CF1E823A
:101B00001D821C821B8288CF4B815C81640F751FF4
:101B1000AB85BC856A9FC0016B9F900D7A9F900D2D
:101B2000112469817A81680F791F0684F785E02D79
:101B3000EF80F88409851A859D014F855889898D24
:101B40009A8D0995D8CF570CC3948ACF6A960FB651
:101B5000F894DEBF0FBECDBFDF91CF911F910F91E3
:101B6000FF90EF90DF90CF90BF90AF909F908F90BD
:101B70007F906F905F904F903F902F9008958F923D
:101B80009F92AF92CF92EF92FF920F931F93CF93BA
:101B9000DF93EC01262F898D9A8D009709F051C0B3
:101BA0006A30D1F41D861C868D8948E0849F90019F
:101BB00011248E859F85820F931F9F878E8781E0DA
:101BC00090E0DF91CF911F910F91FF90EF90CF9018
:101BD000AF909F908F9008956D3089F3CC88AD8839
:101BE0008F898823C1F08C859D8536E0C39E800D4A
:101BF000911D1124488559854817590764F44E856D
:101C00005F851D861C8638E0A39EC0011124840FC9
:101C1000951F9F878E87EA88FB88088919894E85DA
:101C20005F856C857D85CE010E949A0B2C898C8501
:101C30009D8546E0249F800D911D11249D878C87F2
:101C4000BECF6A3069F41D861C86FC013896E4918B
:101C50002D898E859F85E29F800D911D1124ADCF2A
:101C60006D3009F4ACCFFC0134963491631708F45D
:101C7000A6CF3296E491E61708F4A1CFFC01329684
:101C800085909490462F431B342F47E0349F800C5F
:101C9000911C1124F401329634913196E49133234E
:101CA000A9F1EE2399F1CC88F4013596E491AD8841
:101CB0004F89442301F10E2E000CFF0BE30FF11DA1
:101CC000CE9EA001CF9E500D11246C857D85460FC0
:101CD000571F68857985641775076CF44E855F8595
:101CE0001D861C86FC013896E491AE9E400D511D68
:101CF00011245F874E87EA88FB88088919894E85F9
:101D00005F856C857D85CE010E949A0BF401349627
:101D1000E4912C898C859D85E29F800D911D112475
:101D20008DCF6F927F928F929F92AF92BF92CF9200
:101D3000DF92EF92FF920F931F93CF93DF93EC010B
:101D40006B015A0139014801E881F9810284F38568
:101D5000E02D0995E881F9810288F389E02D87015A
:101D60009301A501B601CE010995A501480D591DA4
:101D700041505109E881F9810288F389E02D9301EE
:101D8000B601CE010995E881F9810088F189E02D3D
:101D90009401A501B601CE010995C60CD71CB60168
:101DA00061507109E881F9810088F189E02D940181
:101DB000A501CE010995E881F9810688F789E02D12
:101DC000CE01DF91CF911F910F91FF90EF90DF90A7
:101DD000CF90BF90AF909F908F907F906F9009941D
:101DE0006F927F928F929F92AF92BF92CF92DF922B
:101DF000EF92FF920F931F93CF93DF935C01EB0160
:101E00006A01490138018701DC01ED91FC916217FB
:101E1000730719F5641675062CF0962D872D3A0177
:101E2000C92ED82E9601261937092F5F3F4F048CF3
:101E3000F58DE02DA301BE01C5010995DF91CF917C
:101E40001F910F91FF90EF90DF90CF90BF90AF90D8
:101E50009F908F907F906F9008954615570591F44D
:101E60002617370724F0892D4B01C22FD82F9E014A
:101E7000281939092F5F3F4F068CF78DE02DA601F9
:101E8000B401DACF0284F385E02D0995D501ED91F7
:101E9000FC910488F589E02D83019401A601BE011F
:101EA000C5010995D501ED91FC910688F789E02DD2
:101EB000C501DF91CF911F910F91FF90EF90DF90BF
:101EC000CF90BF90AF909F908F907F906F9009942C
:101ED000EF92FF920F931F93DC011A960D911C91C4
:101EE0001B9718962D913C911997ED91FC9100A0AC
:101EF000F1A1E02D7B0150E040E070E060E0099549
:101F00001F910F91FF90EF9008954F925F926F9203
:101F10007F928F929F92AF92BF92CF92DF92EF9279
:101F2000FF920F931F93CF93DF936C012B015A0104
:101F300039014801DC01ED91FC910284F385E02D2B
:101F40000995E201640C751CD601ED91FC91C61552
:101F5000D7055CF40088F189E02D87019401A50183
:101F6000BE01C60109952196EFCF0688F789E02DBD
:101F7000C601DF91CF911F910F91FF90EF90DF90FD
:101F8000CF90BF90AF909F908F907F906F905F9019
:101F90004F9009948F929F92AF92BF92CF92DF920F
:101FA000EF92FF920F931F93CF93DF93EC015B01AE
:101FB0004A016901E881F9810284F385E02D0995E0
:101FC00095012C0D3D1D21503109E881F9810488CE
:101FD000F589E02D78018401A401B501CE010995B0
:101FE000E881F9810688F789E02DCE01DF91CF9154
:101FF0001F910F91FF90EF90DF90CF90BF90AF9027
:102000009F908F9009948F929F92AF92BF92CF92A0
:10201000DF92EF92FF920F931F93CF93DF93EC0128
:102020005B014A0169017801E881F9810284F38545
:10203000E02D0995C80CD91C860101501109E881D1
:10204000F9810488F589E02D9501A401B501CE013F
:102050000995E881F9810688F789E02DCE01DF91A5
:10206000CF911F910F91FF90EF90DF90CF90BF9095
:10207000AF909F908F900994EF92FF920F931F93D0
:10208000DC01ED91FC9100A0F1A1E02D09951F91DB
:102090000F91FF90EF9008950F931F93DC01ED9146
:1020A000FC91068CF78DE02D09951F910F910895F5
:1020B0000F931F93DC01ED91FC91048CF58DE02DC5
:1020C00009951F910F910895DC01ED91FC91008419
:1020D000F185E02D09943F924F925F926F927F922B
:1020E0008F929F92AF92BF92CF92DF92EF92FF9228
:1020F0000F931F93CF93DF935C017B014A0169012A
:10210000390187E0680E711C93E0759467949A9585
:10211000E1F72B01400E511E10E000E0312CD0E021
:10212000C0E0CE0187709927330C892B59F4FE014A
:1021300083E0F595E7958A95E1F7E00FF11FE80D4B
:10214000F91D349037FE0AC021E030E0A701B50147
:102150006C0F7D1F88EC92E00E9464102196CC16D3
:10216000DD06F9F68FEFE81AF80A060D171DE414DC
:10217000F504A9F6DF91CF911F910F91FF90EF9099
:10218000DF90CF90BF90AF909F908F907F906F9097
:102190005F904F903F9008952F923F924F925F92A1
:1021A0006F927F928F929F92AF92BF92CF92DF9267
:1021B000EF92FF920F931F93CF93DF9300D000D045
:1021C00000D0CDB7DEB73C016A013E832D83FC828F
:1021D000EB825801A41AB50AB7FE03C0B194A194CA
:1021E000B1088D809E80861A970A97FE03C091944D
:1021F000819491088A149B045CF0902F812F0D81AB
:102200001E819D838E839C2D8D2D6B01692F782FD0
:102210000C151D055CF09D818E817E836D83692F79
:10222000782F902F812F8601C92ED82E1601201AC3
:10223000310A2B012D813E81421A530A57FE03C0F9
:10224000519441945108710137FE03C03FEFE31AE6
:10225000F30AF594E7948D819E81861797075CF5C4
:10226000A1E0B0E0BA83A983C016D1064CF1D30136
:10227000ED91FC910484F585E02D2B813C81A80132
:102280006D817E818A149B041CF04D815E81B801B2
:10229000C3010995E418F508F7FE0AC02D813E81B7
:1022A00089819A81280F391F3E832D83E20CF31C0C
:1022B0000F5F1F4FD9CF2FEF3FEF3A832983D4CF42
:1022C00026960FB6F894DEBF0FBECDBFDF91CF913B
:1022D0001F910F91FF90EF90DF90CF90BF90AF9044
:1022E0009F908F907F906F905F904F903F902F9036
:1022F000089508952091C001260F3327331F2132FE
:102300003105ECF42091E401FC0190E080E0243000
:1023100069F082E00895A091C0012191AC0140567E
:102320005E4FA40FB52FB11D2C930196861798F31D
:102330008091C001680F6093C00180E0089581E042
:1023400008951092E40181E08093E6011092E50186
:1023500061E082E10E942F0761E083E10E942F0784
:10236000E9EBF0E080818E7F808380818D7F8083A8
:1023700088E48093B80085E48093BC000895CF93EF
:10238000DF9391E090939F018823B9F0C091B8004A
:10239000D091BA008091BC008A7B8093BC0060E041
:1023A00082E10E942F0760E083E10E942F070E94D4
:1023B000A111D093BA00C093B800DF91CF910895D6
:1023C000E091100280910F02E81730F4F0E0E65837
:1023D000FE4F808190E008958FEF9FEF08959091D8
:1023E000100280910F022FEF3FEF981748F4E92F6A
:1023F000F0E0E658FE4F208130E09F5F909310029E
:10240000C901089580910F0290911002891B990BC8
:102410000895CF92DF92EF92FF920F931F93CF9385
:10242000DF937C01CB018A0120911E02222389F0D7
:10243000EB016B01C40ED51ECC15DD0569F0699169
:10244000D701ED91FC910190F081E02DC701099534
:10245000F3CF642F0E947A11C801DF91CF911F91B1
:102460000F91FF90EF90DF90CF900895CF93DF937F
:102470001F92CDB7DEB7698320911E022223F9F0A7
:1024800020911B02203258F021E030E0FC01338320
:10249000228390E080E00F90DF91CF9108958091AA
:1024A0001C02E82FF0E0E65AFE4F998190838F5F7F
:1024B00080931C0280931B0281E090E0ECCF61E0EE
:1024C000CE0101960E947A11F7CFCF92DF92EF9260
:1024D000FF920F931F93CF93DF93D0911B0281E064
:1024E000D13208F09CC0C0911D020E948E076B0182
:1024F0007C018091E40181116CC082E08093E40151
:1025000081E08093E6018FEF8093E301109208024F
:10251000D0930702AAE5B1E0E7EEF1E080E0D8133E
:102520008DC01092090280910902CC0FC82BC09374
:1025300009028091E501813009F084C01092E50123
:102540000E948E076B017C01809109028093BB0081
:1025500080919B0190919C01A0919D01B0919E0161
:10256000892B8A2B8B2BA1F00E948E0700919B0157
:1025700010919C0120919D0130919E016C197D0963
:102580008E099F09061717072807390708F442C064
:102590008091BC0083FDD8CF85EC8093BC000E9465
:1025A0008E076B017C018091E401823009F44CC0FC
:1025B0008091E3018F3F09F469C08091E30180328B
:1025C00009F466C08091E301803309F463C084E0BC
:1025D00026C080919B0190919C01A0919D01B0919A
:1025E0009E01892B8A2B8B2B09F483CF0E948E07A7
:1025F00000919B0110919C0120919D0130919E01C1
:102600006C197D098E099F090617170728073907D6
:1026100008F06FCF80919A010E94BF1185E010925F
:102620001C0210921B0210921E02DF91CF911F918B
:102630000F91FF90EF90DF90CF9008959D9191932F
:102640008F5F6DCF85EEA9CF80919B0190919C010A
:10265000A0919D01B0919E01892B8A2B8B2B09F4AF
:10266000A2CF0E948E0700919B0110919C012091A6
:102670009D0130919E016C197D098E099F090617F5
:1026800017072807390708F08ECFC4CF80E0C7CFDF
:1026900082E0C5CF83E0C3CFEF92FF920F931F93E9
:1026A000CF93DF937C01C62F8091E5029091E602E3
:1026B000009709F459C02091E90231E030931E02DD
:1026C00020931D0210921C0210921B02DC01ED915E
:1026D000FC910190F081E02D60E009958701EE24E6
:1026E000E394F12CD1E0C1508091E5029091E60293
:1026F000CF3F91F1B0E2EB16F104D8F00E946512E1
:102700008091E5029091E6022091E902D0931E02A9
:1027100020931D0210921C0210921B02DC01ED910D
:10272000FC910190F081E02D60E00995EE24E394A6
:10273000F12C8091E5029091E602F8016491DC01B0
:10274000ED91FC910190F081E02D0995BFEFEB1A1E
:10275000FB0A0F5F1F4FC7CFDF91CF911F910F91E2
:10276000FF90EF900C946512E091F502F091F60263
:1027700090818091FB028095892380838701C150DD
:1027800008F438C0F80184912091E3023091E4020A
:10279000232B29F00E947A0B0F5F1F4FF0CF28E008
:1027A00030E040E8E091F102F091F2029091F902FC
:1027B000582F5423D9F05081952B9083E091F30248
:1027C000F091F40290815091FA02952B9083E09160
:1027D000F302F091F40250819091FA0290959523C2
:1027E0009083469521503109E9F6D6CF50819095D6
:1027F0009523E3CFDF91CF911F910F91FF90EF9041
:1028000008951F93CF93DF93EC018D8D9E8D0097DC
:1028100021F1162F29A131E030931E0220931D02D1
:1028200010921C0210921B02DC01ED91FC910190B0
:10283000F081E02D60E009958D8D9E8DDC01ED919C
:10284000FC910190F081E02D612F09958D8D9E8D79
:10285000DF91CF911F910C946512ADA5BEA59C91FF
:102860008BA9809589238C938B8D9C8D892B31F03E
:10287000862FDF91CF911F910C947A0B28E030E0E6
:1028800080E8A9A5BAA599A9462F4823C1F04C9183
:10289000942B9C93ABA5BCA59C914AA9942B9C938B
:1028A000ABA5BCA54C919AA9909594239C93869531
:1028B0002150310931F7DF91CF911F9108954C914B
:1028C00090959423E6CFDF92EF92FF920F931F93A0
:1028D000CF93DF938091E5029091E602892B09F472
:1028E000A5C02091FD023091FE024091FF0250915F
:1028F000000360E074E284EF90E00E94CE2120515A
:1029000031094109510956954795379527952093E7
:10291000B80064E086E59BE00E944C138091CC02F5
:102920009091CD028034910509F097C060E288EC67
:1029300092E00E9401146091CC02615E88EC92E00A
:102940000E9401142091CE023091CF02C901079656
:1029500097FD079633E0959587953A95E1F7209195
:10296000CC023091CD02829F8001839F100D929FF7
:10297000100D1124C091E702D091E8028091E50288
:102980009091E6020C0F1D1F009709F498C020914A
:10299000E90231E030931E0220931D0210921C02C6
:1029A00010921B02DC01ED91FC910190F081E02D71
:1029B00060E40995EE24E394F12CDD24D394809116
:1029C000E5029091E6020C171D0709F44FC0B0E232
:1029D000EB16F104D8F00E9465128091E502909107
:1029E000E6022091E902D0921E0220931D0210926D
:1029F0001C0210921B02DC01ED91FC910190F08110
:102A0000E02D60E40995EE24E394F12C8091E50239
:102A10009091E6026991DC01ED91FC910190F081C9
:102A2000E02D0995BFEFEB1AFB0AC9CF8091E302B5
:102A30009091E402892B31F0809106039091070375
:102A40000E94810BE091F702F091F8029081809151
:102A5000FC028095892380835CCF60E088EC92E063
:102A60000E9401146091CC02615068CF0E946512EF
:102A70008091E5029091E602892B09F461C02091D2
:102A8000010330910203409103035091040360E07D
:102A900074E284EF90E00E94CE2120513109410977
:102AA000510956954795379527952093B800DF91A2
:102AB000CF911F910F91FF90EF90DF900895E091DB
:102AC000F502F091F60280819091FB02892B8083C0
:102AD0000C171D0769F289912091E3023091E402FD
:102AE000232B19F00E947A0BF3CF28E030E040E866
:102AF000E091F102F091F2029091F902582F5423E3
:102B0000D9F05081952B9083E091F302F091F4027B
:102B100090815091FA02952B9083E091F302F0910D
:102B2000F40250819091FA029095952390834695F6
:102B300021503109E9F6CCCF508190959523E3CF10
:102B4000E091F702F091F80280819091FC02892BCC
:102B50008083ADCF1F93CF93DF93EC01162F8D8D24
:102B60009E8D892BB1F12DA93EA94FA958AD60E0EA
:102B700074E284EF90E00E94CE2120513109410996
:102B8000510956954795379527952093B80066EAE1
:102B9000111167EACE010E9401148D8D9E8D892B43
:102BA00041F129AD3AAD4BAD5CAD60E074E284EF2C
:102BB00090E00E94CE2120513109410951095695DA
:102BC0004795379527952093B800DF91CF911F91B6
:102BD00008958B8D9C8D892B21F08EAD9FAD0E9429
:102BE000810BEFA5F8A990818CA98095892380831A
:102BF000CECFEFA5F8A980819CA9892B8083E5CF52
:102C000090E080E008952091CE023091CF02C9017A
:102C1000079697FD079623E0959587952A95E1F706
:102C20002091CC023091CD02829FA001839F500D54
:102C3000929F500D112470E060E08091E702909126
:102C4000E8020C94E6230E94D8230F931F93CF939E
:102C5000DF93EC0188819981009759F02A813B81AB
:102C60002617370730F081E0DF91CF911F910F9148
:102C700008958B016F5F7F4F0E941B23009759F0CF
:102C8000998388831B830A832C813D81232B59F7E9
:102C9000FC011082E8CF80E0E7CFCF93DF93EC0117
:102CA00088819981009711F00E94922219821882DE
:102CB0001D821C821B821A82DF91CF910895EF92B0
:102CC000FF920F931F93CF93DF93EC011982188229
:102CD0001B821A821D821C828617970719F1FB013D
:102CE0000081118101151105E9F0E480F580B7013B
:102CF0000E942516811109C0CE01DF91CF911F914D
:102D00000F91FF90EF900C944D16FD82EC82B8016C
:102D100088819981DF91CF911F910F91FF90EF9062
:102D20000C94ED23DF91CF911F910F91FF90EF90C5
:102D30000895FC0180819181009711F00C949222FA
:102D4000089585ED8093BC0080919B0190919C013A
:102D5000A0919D01B0919E010796A11DB11D23E098
:102D6000B695A795979587952A95D1F72091BC00A0
:102D700024FD03C01092E401089540919B015091FD
:102D80009C0160919D0170919E01452B462B472B24
:102D900069F30097A105B10541F02AE22A95F1F700
:102DA00000C00197A109B109E1CF80919A010C946B
:102DB000BF111F920F920FB60F9211242F933F93C2
:102DC0008F939F93AF93BF938091170290911802B6
:102DD000A0911902B0911A023091120223E0230F40
:102DE0002D3758F50196A11DB11D20931202809335
:102DF000170290931802A0931902B0931A028091BF
:102E0000130290911402A0911502B091160201963E
:102E1000A11DB11D8093130290931402A09315027B
:102E2000B0931602BF91AF919F918F913F912F91D7
:102E30000F900FBE0F901F90189526E8230F029653
:102E4000A11DB11DD2CF1F920F920FB60F92112468
:102E50002F933F934F935F936F937F938F939F93A2
:102E6000AF93BF93EF93FF938FE192E00E946306CD
:102E7000FF91EF91BF91AF919F918F917F916F9152
:102E80005F914F913F912F910F900FBE0F901F9028
:102E900018951F920F920FB60F9211242F938F93B4
:102EA0009F93EF93FF93E0912F02F0913002808186
:102EB000E0913502F091360282FD1BC09081809135
:102EC00038028F5F8F7320913902821741F0E091B1
:102ED0003802F0E0E15EFD4F958F80933802FF915C
:102EE000EF919F918F912F910F900FBE0F901F9098
:102EF00018958081F4CF1F920F920FB60F92112474
:102F00002F933F934F935F936F937F938F939F93F1
:102F1000AF93BF93EF93FF938091B900887F803682
:102F200009F44AC0F0F5883209F4A7C018F58031D9
:102F300009F49BC0B8F4882309F4F9C0883009F477
:102F400094C0FF91EF91BF91AF919F918F917F912D
:102F50006F915F914F913F912F910F900FBE0F9006
:102F60001F901895883109F488C0803251F78093FA
:102F7000E30114C0803409F49DC040F48033B9F3F8
:102F80008833F9F68093E30185ECB0C0803509F40D
:102F900085C0883509F496C0883499F60E94A11638
:102FA000D0CF883909F48CC038F5883729F050F42F
:102FB000883611F0803729F683E08093E40110927F
:102FC000E20157C0883809F47BC0803919F0803895
:102FD00009F0B7CF8091E201803208F071C0E09132
:102FE000E20181E08E0F8093E2018091BB00F0E06E
:102FF000EE53FE4F80833DC0803B39F0E0F4803AD1
:1030000009F479C0883A09F09CCF84E08093E40108
:103010001092C1011092C001E0910D02F0910E02D8
:1030200009958091C00181110FC081E08093C0019A
:103030001092A00109C0803C09F4A6CF883C09F495
:10304000A3CF883B09F07DCFE091C10181E08E0FD5
:103050008093C101F0E0E056FE4F80818093BB0079
:103060009091C1018091C00129C080910902809393
:10307000BB0085EC8093BC0064CF909108028091E6
:103080000702981758F5E091080281E08E0F8093AF
:103090000802F0E0E951FE4F8081E9CFE09108029B
:1030A00081E08E0F809308028091BB00F0E0E9512F
:1030B000FE4F808390910802809107029817C8F212
:1030C00085E8D8CFE091080281E08E0F8093080256
:1030D0008091BB00F0E0E951FE4F80838091E601D2
:1030E00081115CCF81E08093E50184EA8093BC008C
:1030F0001092E40126CF85EC8093BC001092E4018D
:103100008091E201803230F4E091E201F0E0EE5390
:10311000FE4F10826091E20170E0E0910B02F091AD
:103120000C0282EC91E009951092E2010ACF109214
:10313000E30134CFCF93DF93EFE1F2E01382128209
:1031400088EE93E0A0E0B0E084839583A683B78304
:103150002AE031E03183208325EC30E03587248775
:1031600024EC30E03787268720EC30E0318B208B51
:1031700021EC30E0338B228B22EC30E0358B248B3A
:1031800026EC30E0378B268B118E128E138E148E28
:10319000CCEBD2E01B821A828C839D83AE83BF83EB
:1031A0008CE191E099838883A8E0B3E082E01596F2
:1031B0008C9315978BE016968C931697E0E7FBE0BF
:1031C000E4911796EC931797ECE5FBE0E4911896E1
:1031D000EC93189740E85EE360E070E01D964D9335
:1031E0005D936D937C935097E8ECF2E0138212822A
:1031F00020E830E03583248380E490E09783868361
:103200003187208793878287168A158614861786CA
:10321000168681E0858B848B2FEF3FEF338B228BDB
:10322000318B208B878B108E128E118E8EE291E067
:1032300091838083148E138ED68FC58F10A2178E24
:103240008FEF84A385A386A387A380A780E89AE154
:10325000A6E0B0E085AB96ABA7ABB0AF80EA96E84E
:10326000A1E0B0E081AF92AFA3AFB4AF80E586AF8D
:1032700017AEDF91CF910895CF93DF93CDB7DEB72F
:10328000AD970FB6F894DEBF0FBECDBF789484B56E
:10329000826084BD84B5816084BD85B5826085BD52
:1032A00085B5816085BD80916E00816080936E00E0
:1032B00010928100809181008260809381008091D2
:1032C0008100816080938100809180008160809383
:1032D00080008091B10084608093B1008091B00043
:1032E00081608093B00080917A00846080937A003E
:1032F00080917A00826080937A0080917A00816068
:1033000080937A0080917A00806880937A0010928E
:10331000C10062E080910D030E945D072FB7F89411
:103320008091170290911802A0911902B0911A028F
:103330002FBF805D9740A109B1098093110390933D
:103340001203A0931303B093140387E380931A032B
:103350008091E7029091E802892B11F10E940316F7
:103360002091CE023091CF028091CC029091CD027B
:10337000213231050CF08AC0B9016052710977FF22
:1033800002C06F5F7F4F759567958357910997FDD1
:10339000019600E210E023E730E044E856E089C0FF
:1033A0002091CE023091CF02C901079697FD079672
:1033B000B3E095958795BA95E1F72091CC023091CD
:1033C000CD02AC01429FC001439F900D529F900DD2
:1033D00011240E94F6219093E8028093E702892B42
:1033E00009F0BCCF0E94031661E083E00E945D07F4
:1033F00061E084E00E945D0761E089E00E945D0772
:1034000061E088E00E945D0762E087E00E945D075E
:1034100070E8272E312CCC24C394D12CF8E18F2EC8
:10342000912C60E0A62E60E0B62EEFE3FBE08491E5
:10343000E5E7FBE01491E1E6FBE0049101112BC20A
:1034400080911102F1E08F27809311026CE271E00C
:1034500080E090E00E94B30780911102882309F474
:103460005CC30E94E507882351F080910E038C30E5
:1034700009F40BC308F01FC28B3009F436C2412C8B
:10348000512C30EC632E3FE7732E59C2B9016054C2
:10349000710977FF02C06F5F7F4F75956795825501
:1034A000910997FD019600E410E022E530E044E642
:1034B00058E0959587950E946B1082E08093EA0210
:1034C0008091E5029091E602892B09F494C08CE387
:1034D0008093E9021092100210920F0210921C02C7
:1034E00010921B020E94A11184EF98E090930E02AB
:1034F00080930D0285EF98E090930C0280930B026D
:103500008091F00287FD1EC061E00E945D0761E0CE
:103510008091F0020E942F0761E070E080E090E06F
:103520000E94B30760E08091F0020E942F076AE0DA
:1035300070E080E090E00E94B30761E08091F002CB
:103540000E942F078091E5029091E602892B09F4F1
:1035500011C12091FD023091FE024091FF02509175
:10356000000360E074E284EF90E00E94CE212051DD
:10357000310941095109569547953795279520936B
:10358000B80064E080E896E00E944C136091CE029F
:10359000615088EC92E00E94011464E08CE796E0B0
:1035A0000E944C138091EA0264E1813009F460E1E9
:1035B00088EC92E00E94011464E088E796E00E94A3
:1035C0004C138FE8809305038091CC029091CD023B
:1035D0008038910509F031C18091CE029091CF02DF
:1035E0008034910509F039C18091EA02813009F4F3
:1035F000D8C08FECD7C061E08091EE020E945D07D9
:1036000061E08091EF020E945D078091EE02082E3A
:10361000000C990BFC01E65AF44FE491F0E0EE0F38
:10362000FF1FE25DF44F259134913093F602209311
:10363000F502FC01E259F44FE491E093FB02809122
:10364000EF02082E000C990BFC01E65AF44FE491AE
:10365000F0E0EE0FFF1FE25DF44FA591B491B0933F
:10366000F802A093F702FC01E259F44FE491E093D1
:10367000FC028C91E82BEC938091E3029091E402A0
:10368000892B09F434C01FB7F89480910A02811184
:1036900027C0E4E6FBE08491E8E7FBE09491E82FA3
:1036A000F0E0EE0FFF1FEC5DF44FA591B491EC91AB
:1036B000E92321F461E08AE00E942F0761E08AE0BB
:1036C0000E945D078CB580618CBD8CB580648CBD1B
:1036D00061E08DE00E945D0761E08BE00E945D0784
:1036E00080910A028F5F80930A021FBF09CF61E0B9
:1036F0008091EC020E945D0761E08091ED020E94E2
:103700005D078091EC02082E000C990BFC01E65A33
:10371000F44FE491F0E0EE0FFF1FE25DF44F2591CE
:1037200034913093F2022093F102FC01E259F44FFC
:10373000E491E093F9028091ED02082E000C990BC0
:10374000FC01E65AF44FE491F0E0EE0FFF1FE25D5A
:10375000F44FA591B491B093F402A093F302FC014D
:10376000E259F44FE491E093FA028C91E095E8235A
:10377000EC93C6CE8091E3029091E402892B31F064
:1037800080910603909107030E94810BE091F7025C
:10379000F091F80290818091FC02809589238083CA
:1037A000F0CE8FE98093050312E16AED88EC92E098
:1037B0000E940114612F88EC92E00E94011461E8DC
:1037C00088EC92E00E9401146091050388EC92E07D
:1037D0000E94011469ED88EC92E00E94011480912E
:1037E000EA0261EF813009F462E288EC92E00E9423
:1037F000011466E082E796E00E944C138091E50296
:103800009091E602892BE9F12091010330910203A6
:10381000409103035091040360E074E284EF90E070
:103820000E94CE21205131094109510956954795F1
:10383000379527952093B800D5CD8036910589F42A
:103840008091CE029091CF02409739F48091EA02A4
:10385000813029F08FEA8093050312E0A6CF80E142
:10386000FACF80349105C9F78091CE029091CF02B2
:10387000809799F78091EA02813009F0BACE80E111
:1038800091CFE091F702F091F80280819091FC02D3
:10389000892B8083A7CD81110E940607E02FF0E0DD
:1038A000EE0FFF1FE45BF44FA591B4918C911823A8
:1038B00009F4C6CDD1CD8551823008F0E0CD10910C
:1038C0000A03612F70E0762F662766277F77809145
:1038D0000B03682B90E080E00E9406202DEC3CEC6E
:1038E0004CEC5DE30E946720ECC060910A0370E03D
:1038F00090E080E00E9406202B013C0110910B0318
:1039000017FF0AC0AC019B0160E070E080E89FEB0C
:103910000E945C212B013C011F70612F70E090E040
:1039200080E00E9408202DEC3CEC4CEC5DE30E9412
:103930006720A30192010E945D212B013C010E949E
:10394000031622E02093DC022093DD02D092DB02FA
:10395000C092DA02D092D902C092D8021BA21AA257
:103960001DA21CA21FA21EA28E010F5F1F4F44E0CA
:10397000C301B2010E94B11D7C01009779F0FC01E6
:1039800001900020E9F731978F01081B190BB8014E
:10399000CE0182960E94251681119CC0CE0182968E
:1039A0000E944D16BE016E5D7F4FCE0101960E94B2
:1039B0005F160D811E810E5F1F4FB801CE0101966B
:1039C0000E94251681118EC0CE0101960E944D16CF
:1039D000BE016F5F7F4FCE0188960E945F16CE01B9
:1039E00001960E949916CE0182960E9499164CA5C6
:1039F0005DA53CE0349FC001359F900D1124F1017D
:103A0000E81BF90BCF01969587959093D50280938B
:103A1000D4029092D7028092D60268A579A588EC4C
:103A200092E00E94F6080E94631420E030E040EE2D
:103A300051E4C301B2010E94C92187FD60C061E069
:103A400083E00E942F0760E084E00E942F0761E07E
:103A500089E00E942F0760E088E00E942F07CE01D6
:103A600088960E94991668EE73E080E090E00E94CC
:103A7000B307A114B10409F4D8CC0E94F20688233C
:103A800009F4CFCC0E940000CCCC10910A03612F26
:103A900070E090E080E00E9406202B013C016091E4
:103AA0000B036F7070E090E080E00E9408202DEC26
:103AB0003CEC4CEC5DE30E946720A30192010E9464
:103AC0005D212B013C0117FF3ACF77FA709477F80C
:103AD000709435CF1FA30EA3B7018AA19BA10E94AA
:103AE000ED2360CF29813A818D819E8166E571E069
:103AF000820F931F0E94ED231E830D8369CF60E028
:103B000083E00E942F0761E084E00E942F0760E0BD
:103B100089E00E942F0761E09FCF60E083E00E9470
:103B20002F0760E084E00E942F0760E089E00E9498
:103B30002F0760E088E00E942F070E9403160E9472
:103B4000631491CF8EE291E09093C9028093C802F2
:103B50008091E7029091E802009711F00C94922274
:103B60000895EF920F931F93CF93DF93E80134E012
:103B700047FD34E1042E000C550B57FF03C051954F
:103B800041955109E32E022F242FAE010E94CF1D33
:103B9000CE01DF91CF911F910F91EF900895A9E091
:103BA000B0E0E5EDFDE10C942B216A01F22EB02E80
:103BB000102FFBE3AF2EA01608F41BE31F5F012FAD
:103BC00027E0AE014F5F5F4F0E942E1FBC0189812D
:103BD000982F9970913009F43FC09BE2E1FC04C03A
:103BE0009E2D9170E0FC3AC05E2D5071E82FE87078
:103BF00083FF46C084E0911101C083E0EF2DE81BF4
:103C00008F1508F0E0E0D6018E2F20E2552351F108
:103C1000992329F0D6019C93C60101966C01960167
:103C20002D5F3F4FE2FE24C08EE4D6018C9391E4D9
:103C300011969C93119712968C93D9018E2F90E236
:103C400081111BC0E20FF32FF11D10828EEF9FEF49
:103C50002996ECE00C9447219DE2C6CF90E2C4CFB8
:103C60002D9381508111FCCFCE0ED11CE0E0D0CF3E
:103C70008EE6D6018C9391E6DBCF9D938150E0CF09
:103C8000482F447082FF3DC084E0911101C083E061
:103C90008F1510F4EF2DE81BD6018E2F20E255234F
:103CA00009F1992329F0D6019C93C60101966C0174
:103CB00096012D5F3F4FE2FE1BC089E4D6018C9335
:103CC0008EE411968C93119786E412968C93D90109
:103CD0008E2F90E2882309F4B5CF9D938150FACFBF
:103CE0002D9381508111FCCFCE0ED11CE0E0D9CFB5
:103CF00089E6D6018C938EE611968C93119786E611
:103D0000E4CF9B0177FF02C030E020E0A1E0B0E00B
:103D1000911102C0B0E0A0E0F9013196AE0FBF1FD3
:103D20008B2C912CBB2009F461C05401EFEFAE1A2B
:103D3000BE0AAA0DBB1DFA161B0619F014F04F2D72
:103D40004A1B511188C0E3FC59C07601A42FB0E290
:103D5000A1114FC0C40ED11C992309F45BC040E0EF
:103D6000D6011196F60190836D01552309F448C0E0
:103D7000012F060F9A81582F507184FF03C0913391
:103D800009F4015010160CF047C0093008F008E0A3
:103D9000EEE2FE2E5B01A01AB10885019194819498
:103DA00091082F3F320729F4D601FC92F601319693
:103DB0006F016217730794F1021713077CF5DB019B
:103DC000A21BB30BAA24A394B12CAC0EBD1EAA0D4A
:103DD000BB1D11968C9121503109D60111962815E1
:103DE0003905F4F0F60180836D01DBCFB12CA12CF5
:103DF000A0CFF701B1937F01A150AACF9111B0CF0D
:103E0000D601942F50E302C05D9391509111FCCFE5
:103E1000C40ED11C40E0ACCF01E0BACF80E3DBCFD1
:103E20006217730731F4963388F4953311F45523F0
:103E300069F0F6018083FD01842F90E2811108C0B2
:103E4000A40FB11D1C9290E080E002CF81E3F1CF7E
:103E500091938150F3CF911183CF8ACF283008F00E
:103E600027E03327DA01990F311D87FD9160009615
:103E70006105710539F432602E5F3D9330E32A9578
:103E8000E1F708959F3F30F080387105610509F032
:103E90003C5F3C5F3D93913008F08068911DDF935B
:103EA000CF931F930F93FF92EF92192F987F9695C0
:103EB000E92F96959695E90FFF27EE53FF4F992727
:103EC0003327EE24FF24A701E70105900894079407
:103ED00028F4360FE71EF81E491F511D660F771F85
:103EE000881F991F0694A1F70590079428F4E70E00
:103EF000F81E491F561FC11D770F881F991F661F87
:103F00000694A1F70590079428F4F80E491F561F50
:103F1000C71FD11D880F991F661F771F0694A1F731
:103F20000590079420F4490F561FC71FD81F990FFB
:103F3000661F771F881F0694A9F784911095177044
:103F400041F0D695C79557954795F794E7941A95FC
:103F5000C1F7E8E6F0E06894159015913591659108
:103F6000959105907FE27395E118F10A430B560B8A
:103F7000C90BD009C0F7E10CF11E431F561FC91F22
:103F8000D01D7EF4703311F48A95E6CFE894015089
:103F900030F0080F0AF40027021708F4202F2395A9
:103FA000022F7A3328F079E37D932A95E9F710C040
:103FB0007D932A9589F60694979567953795179579
:103FC0001794E118F10A430B560BC90BD00998F06E
:103FD00023957E9173957A3308F070E37C932013D8
:103FE000B8F77E9170617D9330F0839571E37D9396
:103FF00070E32A95E1F71124EF90FF900F911F9144
:10400000CF91DF91992787FD90950895E89409C095
:1040100097FB3EF490958095709561957F4F8F4FFB
:104020009F4F9923A9F0F92F96E9BB279395F69511
:10403000879577956795B795F111F8CFFAF4BB0F8F
:1040400011F460FF1BC06F5F7F4F8F4F9F4F16C0F3
:10405000882311F096E911C0772321F09EE8872F7D
:10406000762F05C0662371F096E8862F70E060E039
:104070002AF09A95660F771F881FDAF7880F9695B2
:10408000879597F90895990F0008550FAA0BE0E856
:10409000FEEF16161706E807F907C0F0121613060A
:1040A000E407F50798F0621B730B840B950B39F44A
:1040B0000A2661F0232B242B252B21F408950A26B0
:1040C00009F4A140A6958FEF811D811D08950E94DE
:1040D0007A200C94EB200E94DD2038F00E94E4202E
:1040E00020F0952311F00C94D4200C94DA201124A4
:1040F0000C941F210E94FC2070F3959FC1F3950F33
:1041000050E0551F629FF001729FBB27F00DB11D5B
:10411000639FAA27F00DB11DAA1F649F6627B00DEB
:10412000A11D661F829F2227B00DA11D621F739FD4
:10413000B00DA11D621F839FA00D611D221F749FE2
:104140003327A00D611D231F849F600D211D822F29
:10415000762F6A2F11249F5750409AF0F1F0882350
:104160004AF0EE0FFF1FBB1F661F771F881F91507D
:104170005040A9F79E3F510580F00C94D4200C9438
:104180001F215F3FE4F3983ED4F3869577956795BA
:10419000B795F795E7959F5FC1F7FE2B880F911DA7
:1041A0009695879597F9089597F99F6780E870E04D
:1041B00060E008959FEF80EC089500240A9416169D
:1041C000170618060906089500240A941216130605
:1041D000140605060895092E0394000C11F4882393
:1041E00052F0BB0F40F4BF2B11F460FF04C06F5FAF
:1041F0007F4F8F4F9F4F089557FD9058440F551F85
:1042000059F05F3F71F04795880F97FB991F61F058
:104210009F3F79F087950895121613061406551FCF
:10422000F2CF4695F1DF08C0161617061806991F3B
:10423000F1CF86957105610508940895E894BB2730
:1042400066277727CB0197F908952F923F924F92D7
:104250005F926F927F928F929F92AF92BF92CF9216
:10426000DF92EF92FF920F931F93CF93DF93CDB71F
:10427000DEB7CA1BDB0B0FB6F894DEBF0FBECDBF97
:1042800009942A88398848885F846E847D848C8468
:104290009B84AA84B984C884DF80EE80FD800C8171
:1042A0001B81AA81B981CE0FD11D0FB6F894DEBF54
:1042B0000FBECDBFED0108955058BB27AA270E941D
:1042C00074210C94EB200E94DD2038F00E94E42041
:1042D00020F039F49F3F19F426F40C94DA200EF400
:1042E000E095E7FB0C94D420E92F0E94FC2058F3C2
:1042F000BA17620773078407950720F079F4A6F5CB
:104300000C941E210EF4E0950B2EBA2FA02D0B015C
:10431000B90190010C01CA01A0011124FF27591B0A
:1043200099F0593F50F4503E68F11A16F040A22F10
:10433000232F342F4427585FF3CF46953795279581
:10434000A795F0405395C9F77EF41F16BA0B620B80
:10435000730B840BBAF09150A1F0FF0FBB1F661FC7
:10436000771F881FC2F70EC0BA0F621F731F841F0A
:1043700048F4879577956795B795F7959E3F08F030
:10438000B0CF9395880F08F09927EE0F97958795F2
:1043900008950E94432008F48FEF0895A1E21A2E99
:1043A000AA1BBB1BFD010DC0AA1FBB1FEE1FFF1FD9
:1043B000A217B307E407F50720F0A21BB30BE40B29
:1043C000F50B661F771F881F991F1A9469F7609570
:1043D0007095809590959B01AC01BD01CF0108952A
:1043E000EE0FFF1F0590F491E02D09940F931F939A
:1043F000CF93DF938230910510F482E090E0E0915A
:104400001D03F0911E0330E020E0B0E0A0E0309703
:1044100099F42115310509F44AC0281B390B2430C1
:104420003105D8F58A819B816115710589F1FB0100
:1044300093838283FE0111C04081518102811381E7
:1044400048175907E0F04817590799F4109761F099
:1044500012960C93129713961C933296CF01DF910C
:10446000CF911F910F91089500931D0310931E0388
:10447000F4CF2115310551F04217530738F0A90147
:10448000DB019A01BD01DF01F801C1CFEF01F9CFD6
:1044900090931E0380931D03CDCFFE01E20FF31F07
:1044A000819391932250310939832883D7CF20916A
:1044B0001B0330911C03232B41F420910201309106
:1044C000030130931C0320931B03209100013091C2
:1044D00001012115310541F42DB73EB7409104018A
:1044E00050910501241B350BE0911B03F0911C0337
:1044F000E217F307A0F42E1B3F0B2817390778F0BB
:10450000AC014E5F5F4F2417350748F04E0F5F1F19
:1045100050931C0340931B03819391939FCFF0E032
:10452000E0E09CCFCF93DF930097E9F0FC01329756
:1045300013821282A0911D03B0911E03ED0130E0A1
:1045400020E01097A1F420813181820F931F2091E8
:104550001B0330911C032817390709F061C0F09341
:104560001C03E0931B03DF91CF910895EA01CE175E
:10457000DF07E8F54A815B819E0141155105B1F7DE
:10458000E901FB83EA8349915991C40FD51FEC17C8
:10459000FD0761F4808191810296840F951FE901E6
:1045A00099838883828193819B838A83F0E0E0E012
:1045B00012968D919C9113970097B9F52D913C918E
:1045C0001197CD010296820F931F20911B0330910A
:1045D0001C032817390739F6309751F510921E033E
:1045E00010921D03B0931C03A0931B03BCCFD38375
:1045F000C28340815181840F951FC817D90761F488
:104600004E5F5F4F88819981480F591F51834083C6
:104610008A819B81938382832115310509F0B0CF74
:10462000F0931E03E0931D039ECFFD01DC01C0CF7C
:1046300013821282D7CFB0E0A0E0E1E2F3E20C9463
:1046400027218C01009751F4CB010E94F6218C01A7
:10465000C801CDB7DEB7E0E10C944321FC01E60FC1
:10466000F71F9C0122503109E217F30708F49DC09F
:10467000D901CD91DC911197C617D70798F0C530B5
:10468000D10530F3CE0104978617970708F3C61BB0
:10469000D70B2297C193D1936D937C93CF010E9446
:1046A0009222D6CF5B01AC1ABD0A4C018C0E9D1E26
:1046B000A0911D03B0911E03512C412CF12CE12C33
:1046C000109731F580911B0390911C038815990573
:1046D00009F05CC04616570608F058C080910001EA
:1046E00090910101009741F48DB79EB7409104016C
:1046F00050910501841B950BE817F90708F055C088
:10470000F0931C03E0931B03F90171836083A0CF36
:104710008D919C91119712966C90129713967C90A4
:104720001397A815B90559F56C0142E0C40ED11CC8
:10473000CA14DB0420F1AC014A195B09DA011296B4
:10474000159780F06282738251834083D9016D9303
:104750007C93E114F10471F0D7011396FC93EE936E
:10476000129776CF22968C0F9D1FF901918380833B
:10477000F301EFCFF0931E03E0931D0369CF4816BA
:10478000590608F42C017D01D3019ACFCB010E9478
:10479000F6217C01009749F0AE01B8010E94DD23AB
:1047A000C8010E949222870153CF10E000E050CF51
:1047B00081E090E0F8940C94F423FB01DC0102C04A
:1047C00001900D9241505040D8F70895DC0101C08E
:1047D0006D9341505040E0F70895FB01DC010190DA
:1047E0000D920020E1F7089515E0C2ECD5E004C079
:1047F000FE010E94F0212196C33CD107C9F7F8942D
:02480000FFCFE8
:1048020000001F038000000000008506F60826064F
:10481200D206570635064906000000003612091274
:104822000016ED050212EF11E01100000000BF0DAD
:10483200F60800167911CA0AED0564103C105810EA
:104842004C10CC10ED05850BAA153A0A830A850F88
:0A485200680FF00E910E20430000E5
:00000001FF
