:100000000C9462000C948A000C948A000C948A0070
:100010000C948A000C948A000C948A000C948A0038
:100020000C948A000C948A000C948A000C948A0028
:100030000C948A000C948A000C948A000C948A0018
:100040000C94B4030C948A000C9424040C94FE03C6
:100050000C948A000C948A000C948A000C948A00F8
:100060000C948A000C948A000000000024002700F1
:100070002A0000000000250028002B0000000008D6
:10008000000201000003040700000000000000005F
:1000900000000000230026002900040404040404D6
:1000A0000404020202020202030303030303010227
:1000B00004081020408001020408102001020408F6
:1000C0001020560411241FBECFEFD8E0DEBFCDBFF5
:1000D00011E0A0E0B1E0E6E6FEE002C005900D927E
:1000E000A231B107D9F721E0A2E1B1E001C01D9230
:1000F000AB3CB207E1F710E0C2E6D0E004C02197C4
:10010000FE010E942B07C136D107C9F70E94A30444
:100110000C9431070C940000CF92DF92EF92FF9283
:10012000CF93DF93B091BF01A0E08111AB2F8091FD
:10013000C00190E0880F991FAC0140575F4FC090FD
:10014000C501D090C601E090C701F090C80130E031
:1001500020E0FA01C591D491E881B90190E080E0F6
:10016000EB23EA130AC02F5F3F4F6C157D058E0508
:100170009F0578F36FEF7FEFCB01DF91CF91FF9079
:10018000EF90DF90CF900895FC01538D448D252F83
:1001900030E0842F90E0821B930B541710F0CF9621
:1001A000089501970895FC01918D828D981761F053
:1001B000A28DAE0FBF2FB11D5D968C91928D9F5F6A
:1001C0009F73928F90E008958FEF9FEF0895FC0149
:1001D000918D828D981731F0828DE80FF11D858DFC
:1001E00090E008958FEF9FEF0895FC01918D228D8F
:1001F000892F90E0805C9F4F821B91098F73992714
:100200000895FC01A48DA80FB92FB11DA35ABF4FAB
:100210002C91848D90E001968F739927848FA68905
:10022000B7892C93A089B1898C91837080648C9359
:10023000938D848D981306C00288F389E02D808108
:100240008F7D80830895EF92FF920F931F93CF933A
:10025000DF93EC0181E0888F9B8D8C8D98131AC001
:10026000E889F989808185FF15C09FB7F894EE89E8
:10027000FF896083E889F989808183708064808345
:100280009FBF81E090E0DF91CF911F910F91FF9090
:10029000EF900895F62E0B8D10E00F5F1F4F0F7338
:1002A0001127E02E8C8D8E110CC00FB607FCFACFF3
:1002B000E889F989808185FFF5CFCE010E9401018F
:1002C000F1CFEB8DEC0FFD2FF11DE35AFF4FF082C4
:1002D0009FB7F8940B8FEA89FB8980818062CFCF2A
:1002E000CF93DF93EC01888D8823B9F0AA89BB896D
:1002F000E889F9898C9185FD03C0808186FD0DC058
:100300000FB607FCF7CF8C9185FFF2CF808185FF78
:10031000EDCFCE010E940101E9CFDF91CF91089589
:100320008BE191E00E94F50021E0892B09F420E0A7
:10033000822F089580E090E0892B29F00E9490019F
:1003400081110C940000089590E0FC01E458FF4FE7
:100350002491FC01E255FF4F3491FC01E656FF4F1A
:10036000E491EE23C9F0222339F0233001F1A8F4FF
:10037000213019F1223029F1F0E0EE0FFF1FEE5885
:10038000FF4FA591B4918FB7F894EC91611126C0FD
:1003900030953E233C938FBF08952730A9F0283035
:1003A000C9F0243049F7809180008F7D03C080918F
:1003B00080008F7780938000DFCF84B58F7784BDF6
:1003C000DBCF84B58F7DFBCF8091B0008F7780939A
:1003D000B000D2CF8091B0008F7DF9CF3E2BDACF25
:1003E000CF93DF9390E0FC01E255FF4F24918656B6
:1003F0009F4FFC0184918823D1F090E0880F991FD2
:10040000FC01E859FF4FA591B491FC01EE58FF4F54
:10041000C591D491623071F49FB7F8943C91822FCA
:10042000809583238C93E8812E2B28839FBFDF91B7
:10043000CF9108958FB7F894EC912E2B2C938FBF0A
:10044000F6CF3FB7F8948091130190911401A091D9
:100450001501B091160126B5A89B05C02F3F19F0D4
:100460000196A11DB11D3FBFBA2FA92F982F882734
:10047000BC01CD01620F711D811D911D42E0660F0F
:10048000771F881F991F4A95D1F708958F929F92E1
:10049000AF92BF92CF92DF92EF92FF924B015C013D
:1004A0000E9421026B017C010E9421026C197D09CE
:1004B0008E099F09683E734081059105A8F321E0EC
:1004C000821A9108A108B10888EEC80E83E0D81EF0
:1004D000E11CF11C81149104A104B10429F7FF90DF
:1004E000EF90DF90CF90BF90AF909F908F90089546
:1004F000CF92DF92EF92FF920F931F93CF93DF93F0
:10050000CDB7DEB7C054D1400FB6F894DEBF0FBEF2
:10051000CDBF2FB7F8948091170190911801A09149
:100520001901B0911A012FBF4091C1015091C20130
:100530006091C3017091C4018C019D01041B150BD6
:10054000260B370BB901A801403D574061057105E5
:1005500090F48091C901C05CDE4F0FB6F894DEBF05
:100560000FBECDBFDF91CF911F910F91FF90EF9004
:10057000DF90CF9008958093C1019093C201A09322
:10058000C301B093C4011092BC011092BB01109240
:10059000BA011092B9011092B80162E08091BD01D8
:1005A0000E94F00161E070E080E090E00E9446026D
:1005B00061E08091BD010E94F00160E08091BD0189
:1005C0000E94A4018091BE018551823020F58BE20A
:1005D00091E10197F1F762E08091BD010E94F00185
:1005E0008091CA0190E08230910538F0880F991F00
:1005F000880F991F05970197F1F7F89480E00E9402
:100600008C006F3F7F4F8F4F9F4F61F41092C90155
:10061000789480E0A0CF64E170E080E090E00E94F8
:100620004602D9CF81E00E948C006F3F7F4F8F4FF1
:100630009F4F61F38E010F5F1F4F6E018FEBC81A42
:100640008EEFD80A780180E00E948C00F701608369
:1006500071838283938381E00E948C00F70164831D
:10066000758386839783F8E0EF0EF11CEC14FD048C
:1006700051F7789430E020E0F801C080D180E2802A
:10068000F3804481558166817781FFEFCF16DF06C5
:10069000EF06FF0631F04F3F8FEF580768077807E6
:1006A00019F41092C901B5CFF90183E0F595E795EA
:1006B0008A95E1F7E854FE4F8081880FC416D5066D
:1006C000E606F70610F180832F5F3F4F085F1F4F4C
:1006D0002832310589F64091BC012091B801809102
:1006E000B901280F3327331F8091BA01280F311D1C
:1006F0008091BB01820F932F911D992748171906EE
:1007000081F681E08093C90126CF8160DCCFAF9272
:10071000BF92CF92DF92EF92FF920F931F93CF93EE
:10072000DF936C017B018B01040F151FEB015E0150
:10073000AE18BF08C017D10759F06991D601ED91E5
:10074000FC910190F081E02DC6010995892B79F784
:10075000C501DF91CF911F910F91FF90EF90DF9036
:10076000CF90BF90AF9008951F920F920FB60F9247
:1007700011242F933F938F939F93AF93BF938091B7
:10078000170190911801A0911901B0911A013091AF
:10079000120123E0230F2D3758F50196A11DB11D3D
:1007A000209312018093170190931801A0931901CF
:1007B000B0931A018091130190911401A091150139
:1007C000B09116010196A11DB11D80931301909364
:1007D0001401A0931501B0931601BF91AF919F91A1
:1007E0008F913F912F910F900FBE0F901F901895F2
:1007F00026E8230F0296A11DB11DD2CF1F920F92A2
:100800000FB60F9211242F933F934F935F936F93E3
:100810007F938F939F93AF93BF93EF93FF938BE15E
:1008200091E00E940101FF91EF91BF91AF919F91E3
:100830008F917F916F915F914F913F912F910F9089
:100840000FBE0F901F9018951F920F920FB60F9228
:1008500011242F938F939F93EF93FF93E0912B019C
:10086000F0912C018081E0913101F091320182FD03
:100870001BC09081809134018F5F8F73209135016F
:10088000821741F0E0913401F0E0E55EFE4F958F74
:1008900080933401FF91EF919F918F912F910F9051
:1008A0000FBE0F901F9018958081F4CFEBE1F1E01F
:1008B0001382128288EE93E0A0E0B0E084839583F7
:1008C000A683B78384E091E09183808385EC90E0F8
:1008D0009587848784EC90E09787868780EC90E00A
:1008E000918B808B81EC90E0938B828B82EC90E0FB
:1008F000958B848B86EC90E0978B868B118E128E75
:10090000138E148EA8EBB1E081E015968C931597A9
:100910008BE016968C931697EFEAF0E0E491179629
:10092000EC931797EBE9F0E0E4911896EC931897A5
:1009300040E85EE360E070E01D964D935D936D933B
:100940007C9350970895789484B5826084BD84B573
:10095000816084BD85B5826085BD85B5816085BDBA
:1009600080916E00816080936E0010928100809172
:1009700081008260809381008091810081608093FA
:100980008100809180008160809380008091B1001F
:1009900084608093B1008091B00081608093B0004A
:1009A00080917A00846080937A0080917A008260DE
:1009B00080937A0080917A00816080937A008091A0
:1009C0007A00806880937A001092C10061E088E02C
:1009D0000E94F00162E08091BD010E94F0012FB7FA
:1009E000F8948091170190911801A0911901B0918C
:1009F0001A012FBF805D9740A109B1098093C10101
:100A00009093C201A093C301B093C40187E3809384
:100A1000CA01C0E0D0E00E947802882341F08091B2
:100A2000BE018C3009F466C038F48B30F1F060E020
:100A300070E080EC9FE741C085518230C0F7109193
:100A4000BA01612F70E0762F662766277F77809145
:100A5000BB01682B90E080E00E9407062DEC3CEC87
:100A60004CEC5DE30E949A0661C06091BA0170E0AF
:100A700090E080E00E9407066B017C011091BB01B1
:100A800017FF0AC0AC019B0160E070E080E89FEBBB
:100A90000E949A056B017C011F70612F70E090E04D
:100AA00080E00E9409062DEC3CEC4CEC5DE30E94DA
:100AB0009A06A70196010E949B0520E030E048E4D9
:100AC00052E40E94950661E087FD60E088E00E94A4
:100AD000A40168EE73E080E090E00E944602209757
:100AE00009F499CF0E949001882309F494CF0E94C1
:100AF000000091CF1091BA01612F70E090E080E08A
:100B00000E9407066B017C016091BB016F7070E071
:100B100090E080E00E9409062DEC3CEC4CEC5DE39B
:100B20000E949A06A70196010E949B0517FFC5CF58
:100B30009058C3CF5058BB27AA270E94B2050C94E7
:100B40005B060E944D0638F00E94540620F039F4EE
:100B50009F3F19F426F40C944A060EF4E095E7FB47
:100B60000C944406E92F0E946C0658F3BA176207EA
:100B700073078407950720F079F4A6F50C948E0688
:100B80000EF4E0950B2EBA2FA02D0B01B9019001A8
:100B90000C01CA01A0011124FF27591B99F0593FEC
:100BA00050F4503E68F11A16F040A22F232F342F34
:100BB0004427585FF3CF469537952795A795F04082
:100BC0005395C9F77EF41F16BA0B620B730B840B97
:100BD000BAF09150A1F0FF0FBB1F661F771F881F4F
:100BE000C2F70EC0BA0F621F731F841F48F48795A7
:100BF00077956795B795F7959E3F08F0B0CF939599
:100C0000880F08F09927EE0F979587950895E89437
:100C100009C097FB3EF490958095709561957F4F44
:100C20008F4F9F4F9923A9F0F92F96E9BB279395F2
:100C3000F695879577956795B795F111F8CFFAF402
:100C4000BB0F11F460FF1BC06F5F7F4F8F4F9F4F33
:100C500016C0882311F096E911C0772321F09EE891
:100C6000872F762F05C0662371F096E8862F70E0F7
:100C700060E02AF09A95660F771F881FDAF7880FD1
:100C80009695879597F9089597F99F6780E870E0A2
:100C900060E008959FEF80EC089500240A941616F2
:100CA000170618060906089500240A94121613065A
:100CB000140605060895092E0394000C11F48823E8
:100CC00052F0BB0F40F4BF2B11F460FF04C06F5F04
:100CD0007F4F8F4F9F4F089557FD9058440F551FDA
:100CE00059F05F3F71F04795880F97FB991F61F0AE
:100CF0009F3F79F087950895121613061406551F25
:100D0000F2CF4695F1DF08C0161617061806991F90
:100D1000F1CF86957105610508940895E894BB2785
:100D200066277727CB0197F908950E94070708F4F3
:100D30008FEF08950E94AD060C945B060E944D064D
:100D400038F00E94540620F0952311F00C944406CC
:100D50000C944A0611240C948F060E946C0670F3C2
:100D6000959FC1F3950F50E0551F629FF001729F50
:100D7000BB27F00DB11D639FAA27F00DB11DAA1F5F
:100D8000649F6627B00DA11D661F829F2227B00DAC
:100D9000A11D621F739FB00DA11D621F839FA00D37
:100DA000611D221F749F3327A00D611D231F849F87
:100DB000600D211D822F762F6A2F11249F575040DE
:100DC0009AF0F1F088234AF0EE0FFF1FBB1F661F59
:100DD000771F881F91505040A9F79E3F510580F022
:100DE0000C9444060C948F065F3FE4F3983ED4F3D2
:100DF000869577956795B795F795E7959F5FC1F7C6
:100E0000FE2B880F911D9695879597F90895990F58
:100E10000008550FAA0BE0E8FEEF16161706E807C4
:100E2000F907C0F012161306E407F50798F0621BE5
:100E3000730B840B950B39F40A2661F0232B242BBA
:100E4000252B21F408950A2609F4A140A6958FEFD9
:100E5000811D811D0895EE0FFF1F0590F491E02D77
:060E60000994F894FFCF95
:100E66000000000023018703C4007001F500D300D1
:020E7600E70093
:00000001FF
