:100000000C945C000C9479000C9479000C947900A9
:100010000C9479000C9479000C9479000C9479007C
:100020000C9479000C9479000C9479000C9479006C
:100030000C9479000C9479000C9479000C9479005C
:100040000C94C0010C9479000C9479000C94790004
:100050000C9479000C9479000C9479000C9479003C
:100060000C9479000C947900000000080002010053
:100070000003040700000000000000000000000072
:10008000250028002B0000000000240027002A0083
:10009000040404040404040402020202020203032E
:1000A0000303030301020408102040800102040836
:1000B000102001020408102011241FBECFEFD8E049
:1000C000DEBFCDBF11E0A0E0B1E0E4EEF4E002C09D
:1000D00005900D92A832B107D9F721E0A8E2B1E06E
:1000E00001C01D92A133B207E1F70E940A020C94ED
:1000F00070020C94000090E0FC01EC55FF4F24913D
:1001000080579F4FFC018491882399F090E0880FDD
:10011000991FFC01EA57FF4FA591B491FC01E458E7
:10012000FF4F859194918FB7F894EC91E22BEC936B
:100130008FBF089590E0FC01E859FF4F2491FC0126
:10014000EC55FF4F3491FC01E057FF4FE491EE2353
:10015000C9F0222339F0233001F1A8F4213019F13C
:10016000223029F1F0E0EE0FFF1FE458FF4FA59178
:10017000B4918FB7F894EC91611126C030953E236D
:100180003C938FBF08952730A9F02830C9F0243060
:1001900049F7809180008F7D03C0809180008F7728
:1001A00080938000DFCF84B58F7784BDDBCF84B5AB
:1001B0008F7DFBCF8091B0008F778093B000D2CF3E
:1001C0008091B0008F7DF9CF3E2BDACF3FB7F89406
:1001D00080912D0190912E01A0912F01B0913001BD
:1001E00026B5A89B05C02F3F19F00196A11DB11D92
:1001F0003FBFBA2FA92F982F8827BC01CD01620FCE
:10020000711D811D911D42E0660F771F881F991F88
:100210004A95D1F708952F923F924F925F926F9235
:100220007F928F929F92AF92BF92CF92DF92EF9286
:10023000FF920F931F93CF93DF9300D000D0CDB7E1
:10024000DEB743E0880F991F4A95E1F79C012050E3
:100250003F4F3A8329835AEFC52ED12C68E1262ED1
:1002600061E0362E00E211E0E980FA8080E291E060
:100270009C838B8360E0EB81FC818191FC83EB8329
:100280000E949A0028E231E08B819C81281739076F
:1002900089F738E1A32E31E0B32E61E0F5018191B9
:1002A0005F010E949A00F0E2AF16F1E0BF06A9F7E5
:1002B00061E0F80181918F010E949A0027E0A22E4F
:1002C000B12CF701808190E00A2C02C095958795AA
:1002D0000A94E2F780FF07C060E0F101EA19FB0928
:1002E00087810E949A00F1E0AF1AB10850F70E948E
:1002F000E6004B015C0192E0492E512C612C712CDF
:100300000E94E600681979098A099B09683E7340D2
:1003100081059105A8F338EE830E33E0931EA11CEE
:10032000B11C4A9445284628472829F0412C512CD5
:1003300032014394E5CFFFEFEF1AFF0A2B813C8196
:100340000217130709F092CF31E0C31AD10809F060
:1003500089CF0F900F900F900F90DF91CF911F9149
:100360000F91FF90EF90DF90CF90BF90AF909F9054
:100370008F907F906F905F904F903F902F90089557
:100380001F920F920FB60F9211242F933F938F93CA
:100390009F93AF93BF938091290190912A01A091DF
:1003A0002B01B0912C013091280123E0230F2D3730
:1003B00058F50196A11DB11D2093280180932901B4
:1003C00090932A01A0932B01B0932C0180912D01D1
:1003D00090912E01A0912F01B09130010196A11DA5
:1003E000B11D80932D0190932E01A0932F01B09306
:1003F0003001BF91AF919F918F913F912F910F90BD
:100400000FBE0F901F90189526E8230F0296A11D8E
:10041000B11DD2CF789484B5826084BD84B58160EB
:1004200084BD85B5826085BD85B5816085BD8091BF
:100430006E00816080936E00109281008091810037
:10044000826080938100809181008160809381002F
:10045000809180008160809380008091B1008460F1
:100460008093B1008091B00081608093B000809152
:100470007A00846080937A0080917A008260809311
:100480007A0080917A00816080937A0080917A006E
:10049000806880937A001092C100C0E2D1E008E148
:1004A00011E089910E947B00F80181918F010E94E7
:1004B0007B00F1E0C832DF07A1F7C0E0D0E090E0B8
:1004C00080E00E940B0181E090E00E940B0182E03D
:1004D00090E00E940B01209791F30E940000EFCF63
:0404E000F894FFCFBE
:1004E4003C42A581A599423C3C42A58199A5423C48
:1004F400000000000000000013121110090A0B0C88
:080504000102030405060708CB
:00000001FF
