:100000000C94C3050C94EB050C94EB050C94EB05D8
:100010000C94EB050C94EB050C94EB050C94EB05A0
:100020000C94EB050C94EB050C94EB050C94EB0590
:100030000C94EB050C94EB050C94EB050C94EB0580
:100040000C94EE170C94EB050C945E180C94381875
:100050000C94EB050C94EB050C94EB050C94EB0560
:100060000C9490180C94EB0500407A10F35A00A001
:10007000724E18090010A5D4E80000E87648170071
:1000800000E40B54020000CA9A3B000000E1F505B1
:10009000000080969800000040420F000000A086FB
:1000A00001000000102700000000E803000000002D
:1000B0006400000000000A000000000001000000D1
:1000C00000002C76D888DC674F0823DFC1DFAE59EB
:1000D000E1B1B796E5E3E453C63AE651997696E87E
:1000E000E6C28426EB898C9B62ED407C6FFCEFBC02
:1000F0009C9F40F2BAA56FA5F490055A2AF75C932D
:100100006B6CF9676DC11BFCE0E40D47FEF520E662
:10011000B500D0ED902E0300943577050080841E45
:10012000080000204E0A000000C80C333333330FA0
:10013000986E12831141EF8D2114893BE65516CF3D
:10014000FEE6DB18D1844B381BF77C1D901DA4BB49
:10015000E424203284725E228100C9F124ECA1E5FE
:100160003D2700000000003E5B4F5B3E3E6B4F6B47
:100170003E1C3E7C3E1C183C7E3C181C577D571C88
:100180001C5E7F5E1C00183C1800FFE7C3E7FF0001
:1001900018241800FFE7DBE7FF30483A060E26294F
:1001A000792926407F050507407F05253F5A3CE712
:1001B0003C5A7F3E1C1C08081C1C3E7F14227F22D8
:1001C000145F5F005F5F06097F017F006689956AA3
:1001D000606060606094A2FFA29408047E0408102E
:1001E000207E201008082A1C08081C2A08081E1057
:1001F0001010100C1E0C1E0C30383E3830060E3E0F
:100200000E06000000000000005F0000000700076D
:1002100000147F147F14242A7F2A12231308646297
:1002200036495620500008070300001C22410000F8
:1002300041221C002A1C7F1C2A08083E0808008056
:1002400070300008080808080000606000201008EE
:1002500004023E5149453E00427F400072494949EF
:10026000462141494D331814127F10274545453921
:100270003C4A494931412111090736494949364625
:100280004949291E00001400000040340000000805
:1002900014224114141414140041221408020159A8
:1002A00009063E415D594E7C1211127C7F49494935
:1002B000363E414141227F4141413E7F49494941CA
:1002C0007F090909013E414151737F0808087F00F9
:1002D000417F41002040413F017F081422417F407F
:1002E0004040407F021C027F7F0408107F3E414156
:1002F000413E7F090909063E4151215E7F091929C6
:1003000046264949493203017F01033F4040403FAF
:100310001F2040201F3F4038403F631408146303F0
:10032000047804036159494D43007F41414102046F
:10033000081020004141417F040201020440404076
:100340004040000307080020545478407F2844446C
:10035000383844444428384444287F385454541886
:1003600000087E090218A4A49C787F080404780081
:10037000447D40002040403D007F10284400004163
:100380007F40007C047804787C0804047838444476
:100390004438FC1824241818242418FC7C0804046D
:1003A00008485454542404043F44243C4040207CD6
:1003B0001C2040201C3C4030403C44281028444C29
:1003C0009090907C4464544C4400083641000000F6
:1003D000770000004136080002010204023C262397
:1003E000263C1EA1A161123A4040207A385454554F
:1003F0005921555579412254547842215554784019
:1004000020545579400C1E527212395555555939A0
:100410005454545939555454580000457C410002F5
:10042000457D420001457C407D1211127DF028255A
:1004300028F07C545545002054547C547C0A097F94
:100440004932494949323A4444443A324A484830A8
:100450003A4141217A3A42402078009DA0A07D3D5A
:100460004242423D3D4040403D3C24FF2424487EE2
:100470004943662B2FFC2F2BFF0929F620C0887ECD
:10048000090320545479410000447D413048484AD2
:1004900032384040227A007A0A0A727D0D19317D85
:1004A0002629292F28262929292630484D40203859
:1004B0000808080808080808382F10C8ACBA2F1018
:1004C0002834FA00007B000008142A142222142A7F
:1004D00014085500550055AA55AA55AAFF55FF55B1
:1004E000FF000000FF00101010FF00141414FF00A4
:1004F0001010FF00FF1010F010F0141414FC001482
:1005000014F700FF0000FF00FF1414F404FC14149F
:1005100017101F10101F101F1414141F001010109C
:10052000F0000000001F101010101F10101010F02D
:1005300010000000FF101010101010101010FF100D
:10054000000000FF140000FF00FF00001F10170054
:1005500000FC04F414141710171414F404F400002D
:10056000FF00F714141414141414F700F7141414DF
:10057000171410101F101F141414F4141010F0107E
:10058000F000001F101F0000001F14000000FC14EA
:100590000000F010F01010FF10FF141414FF1410DE
:1005A00010101F00000000F010FFFFFFFFFFF0F031
:1005B000F0F0F0FFFFFF0000000000FFFF0F0F0F43
:1005C0000F0F3844443844FC4A4A4A347E0202063B
:1005D00006027E027E0263554941633844443C046E
:1005E000407E201E2006027E020299A5E7A5991CE6
:1005F0002A492A1C4C7201724C304A4D4D30304809
:10060000784830BC625A463D3E494949007E010166
:10061000017E2A2A2A2A2A44445F444440514A44FB
:100620004040444A51400000FF0103E080FF0000C9
:1006300008086B6B083612362436060F090F0600C1
:100640000018180000001010003040FF0101001FCA
:1006500001011E00191D1712003C3C3C3C0000002B
:100660000000000103070F1F3F7F0080C0E0F0F88B
:10067000FCFEDB40A4A62EAF2000A1C8D300408D15
:10068000AED580A80000600000000000000000005F
:100690000000000000E0000000000000000000007A
:1006A00000000001E0000000000000000000000069
:1006B000000001F000000000000000000000000049
:1006C0000003F00000000000000000000000000037
:1006D00007F000000000000000000000000000071C
:1006E000F8000000000000000000000000000FF80B
:1006F00000000003C0007E000001E0007F0FF80052
:10070000000003C000FE000001E000FFEFF8000061
:100710000003C000FE000001E000FFFFF800000041
:1007200003C000F00000000F007FFE7FC000000348
:10073000C000F00000000F003FFE7FF83FF1FBCF4C
:10074000FCFEF3BC3DEFE01FFE7FFF7FFBFFDFFE03
:10075000FEFFBC3DEFE01FC6FFFF7FFBFFDFFEFE9D
:10076000FFBC3DEFE00FE3C7FE787BC3DE1EF0FF6A
:10077000BC3DEF0007FF87FC787BC3DE1EF0F83C32
:100780003DEF0001FFFFF0007BC3C01EF0F03C3DD9
:10079000EF0001F37FE03FFBC3CFFEF0F03C3DEF05
:1007A0000003E33F807FFBC3DFFEF0F03C3DEF0042
:1007B00007E73C00787BC3DE1EF0F03C3DEF00070E
:1007C000FFBE00787BC3DE1EF0F03C3DEF0007FF6C
:1007D000FE00787BC3DE1EF0F03C3DEF000FFFFE15
:1007E000007FFBFFDFFEF0F03FFDEFE00FFFFF00BB
:1007F0007FFBFFDFFEF0F03FFDEFE00FF9FF003E73
:1008000079F9CF9EF0F01F3DE7E01FF1FF000000F7
:100810000000000000000000001F80FF007FFFFFBD
:10082000FFFFFFFFFFFFFFE01C007F007FFFFFFFD8
:10083000FEB46D888D18E000001F007FFFFFFFFEF3
:1008400095AD7DB577E000000F007FFFFFFFFEA5AF
:10085000AD9D8D19E0000006007FFFFFFFFEB5ADE6
:10086000EDB57EE000000000000180000000000007
:1008700000000000038000000000000000000007EE
:10088000C000000000000000000007C000000000E1
:1008900000000000000FC000000000000000000089
:1008A0001FE00000000000000000001FE00000004A
:1008B0000000000000003FE0000000000000000019
:1008C000003FF00000000000000000007FF000008A
:1008D00000000000001FF87FF00000000000000092
:1008E0003FFE7FF0000000000000003FFF7FF000AF
:1008F0000000000000001FFFFBE0000000000000FF
:10090000000FFFF9FFC00000000000000FFFF9FF1B
:10091000F800000000000007FFF1FFFF00000000EA
:10092000000003FC73FFFF80000000000001FE3F99
:10093000FFFF80000000000000FF1E0FFF0000000E
:10094000000000007FFE1FFC000000000000003FD0
:10095000FFFFF8000000000000000FDFFFE00000D4
:1009600000000000001F19FFC00000000000000090
:100970003F3CFF00000000000000007E7CF800000B
:100980000000000000007FFE7C000000000000006E
:1009900000FFFFFC0000000000000000FFFFFE0061
:1009A00000000000000000FFFFFE0000000000004B
:1009B0000001FFEFFE0000000000000001FFCFFE7D
:1009C0000000000000000003FF07FE000000000020
:1009D000000003FC07FE0000000000000003F0031D
:1009E000FE00000000000000018000FE000000008A
:1009F0000000000000007E00000000000000000079
:100A0000003E000000000000000000000C0000009C
:100A1000000000078000FC000003C0000000078009
:100A200001FC000003C0000000078001FC0000037F
:100A3000C0000000078001E00000001E0000000769
:100A40008001E00000001E007FE3F79FF9FDE778DA
:100A50007BDFC0FFF7FFBFFDFDFF787BDFC0FFF747
:100A6000FFBFFDFDFF787BDFC0F0F787BC3DE1FFF6
:100A7000787BDE00F0F787BC3DE1F0787BDE00009C
:100A8000F787803DE1E0787BDE007FF7879FFDE11F
:100A9000E0787BDE00FFF787BFFDE1E0787BDE00DA
:100AA000F0F787BC3DE1E0787BDE00F0F787BC3DE6
:100AB000E1E0787BDE00F0F787BC3DE1E0787BDEAB
:100AC00000FFF7FFBFFDE1E07FFBDFC0FFF7FFBFE7
:100AD000FDE1E07FFBDFC07CF3F39F3DE1E03E7B87
:100AE000CFC00000000000000000000000FFFFFF7A
:100AF000FFFFFFFFFFFFFFC0FFFFFFFFFD68DB11F0
:100B00001A31C0FFFFFFFFFD2B5AFB6AEFC0FFFF4A
:100B1000FFFFFD4B5B3B1A33C0FFFFFFFFFD6B5B2D
:100B2000DB6AFDC000000000240027002A0000004E
:100B30000000250028002B000000000023002600F4
:100B40002900040404040404040402020202020250
:100B50000303030303030102040810204080010281
:100B60000408102001020408102000000008000200
:100B70000100000304070000000000000000220044
:100B8000FF21AF19902011241FBECFEFD8E0DEBFA8
:100B9000CDBF23E0A2EAB1E001C01D92AA3EB20798
:100BA000E1F711E0A0E0B1E0E0EAFEE402C0059068
:100BB0000D92A23AB107D9F715E0C2ECD5E004C016
:100BC0002197FE010E943F25C13CD107C9F70E9431
:100BD000F01A0C9443270C940000089596E0899F26
:100BE000D0011124A55DBC4F90967C936E935F97C6
:100BF00091E091969C939197E0919803F0919903DD
:100C000090919703992339F0309751F0811108C0E2
:100C1000809147030994309719F05C968C91FACF34
:100C20000895CF92DF92EF92FF920F931F9396E079
:100C3000899FF0011124E55DFC4F11A2278D30A1A1
:100C40002130310551F178F02230310509F451C0DD
:100C50002330310509F452C01F910F91FF90EF909E
:100C6000DF90CF9008956623B9F361E070E00E94B1
:100C7000EE052FB7F8948091620290916302A091E3
:100C80006402B09165022FBF809383039093840325
:100C9000A0938503B0938603DFCF9FB7F894C090ED
:100CA0006202D0906302E0906402F09065029FBF00
:100CB0000091830310918403209185033091860372
:100CC000C01AD10AE20AF30A009195031091960323
:100CD00030E020E00C151D052E053F0550F462E0C4
:100CE00070E01F910F91FF90EF90DF90CF900C94E8
:100CF000EE056111B1CF63E070E0F3CF70E060E02A
:100D0000F0CF833081F028F4813099F08230A9F05F
:100D100008958730A9F08830C9F08430B1F480910B
:100D200080008F7D03C0809180008F77809380004A
:100D3000089584B58F7784BD089584B58F7DFBCFEA
:100D40008091B0008F778093B00008958091B000BB
:100D50008F7DF9CFCF93DF93282F30E0F901E6594B
:100D6000F44F8491F901EA5AF44FD491F901EE5B02
:100D7000F44FC491CC23A1F081110E948106EC2F85
:100D8000F0E0EE0FFF1FE85CF44FA591B491EC91F9
:100D9000ED2381E090E009F480E0DF91CF910895A8
:100DA00080E090E0FACF1F93CF93DF93282F30E0BD
:100DB000F901E659F44F8491F901EA5AF44FD491BC
:100DC000F901EE5BF44FC491CC23A9F0162F8111E9
:100DD0000E948106EC2FF0E0EE0FFF1FE25DF44F62
:100DE000A591B4918FB7F894EC91111108C0D095EA
:100DF000DE23DC938FBFDF91CF911F910895DE2B0F
:100E0000F8CFCF93DF9390E0FC01EA5AF44F24919E
:100E10008E5B944FFC0184918823C9F090E0880F89
:100E2000991FFC01EC5DF44FA591B491FC01E25DCA
:100E3000F44FC591D49161110DC09FB7F8948C9176
:100E4000209582238C938881282328839FBFDF915C
:100E5000CF910895623051F49FB7F8943C91822F5E
:100E6000809583238C93E8812E2BEFCF8FB7F89456
:100E7000EC912E2B2C938FBFEACF3FB7F894809143
:100E80005E0290915F02A0916002B091610226B56E
:100E9000A89B05C02F3F19F00196A11DB11D3FBFB2
:100EA000BA2FA92F982F8827BC01CD01620F711D81
:100EB000811D911D42E0660F771F881F991F4A957B
:100EC000D1F708958F929F92AF92BF92CF92DF9207
:100ED000EF92FF924B015C010E943D076B017C0188
:100EE0000E943D076C197D098E099F09683E734079
:100EF00081059105A8F321E0821A9108A108B108A3
:100F000088EEC80E83E0D81EE11CF11C8114910408
:100F1000A104B10429F7FF90EF90DF90CF90BF902C
:100F2000AF909F908F900895862F642F0C940107A7
:100F3000862F642F0C94D306862F0C94AA0608954E
:100F400008950895AF92BF92CF92DF92EF92FF92F1
:100F50000F931F93CF93DF936C017B018B01040FE1
:100F6000151FEB015E01AE18BF08C017D10759F07D
:100F70006991D601ED91FC910190F081E02DC601BF
:100F80000995892B79F7C501DF91CF911F910F91B9
:100F9000FF90EF90DF90CF90BF90AF900895FC014D
:100FA000538D448D252F30E0842F90E0821B930BCE
:100FB000541710F0CF96089501970895FC01918D74
:100FC000828D981761F0A28DAE0FBF2FB11D5D9677
:100FD0008C91928D9F5F9F73928F90E008958FEF19
:100FE0009FEF0895FC01918D828D981731F0828DCD
:100FF000E80FF11D858D90E008958FEF9FEF089524
:10100000FC01918D228D892F90E0805C9F4F821B87
:1010100091098F73992708958AE692E00E9400084B
:1010200021E0892B09F420E0822F089580E090E0F0
:10103000892B29F00E940C0881110C94000008955E
:10104000FC01A48DA80FB92FB11DA35ABF4F2C913D
:10105000848D90E001968F739927848FA689B78934
:101060002C93A089B1898C91837080648C93938D2B
:10107000848D981306C00288F389E02D80818F7DCE
:1010800080830895EF92FF920F931F93CF93DF9386
:10109000EC0181E0888F9B8D8C8D98131AC0E889B4
:1010A000F989808185FF15C09FB7F894EE89FF8983
:1010B0006083E889F98980818370806480839FBF21
:1010C00081E090E0DF91CF911F910F91FF90EF9021
:1010D0000895F62E0B8D10E00F5F1F4F0F73112731
:1010E000E02E8C8D8E110CC00FB607FCFACFE8896C
:1010F000F989808185FFF5CFCE010E942008F1CFCC
:10110000EB8DEC0FFD2FF11DE35AFF4FF0829FB7DF
:10111000F8940B8FEA89FB8980818062CFCFCF93CF
:10112000DF93EC01888D8823B9F0AA89BB89E8890F
:10113000F9898C9185FD03C0808186FD0DC00FB6B5
:1011400007FCF7CF8C9185FFF2CF808185FFEDCF33
:10115000CE010E942008E9CFDF91CF910895EF9250
:10116000FF920F931F93CF93DF93EC01EC80FD80F0
:101170006E157F050CF070C057FF04C0240F351F9B
:1011800050E040E08E819F81FA01E20FF31F8E173D
:101190009F071CF49C01241B350B121613060CF040
:1011A0005BC0922F842F8695869586958E9DD00163
:1011B0008F9DB00D11246A0F7B1FAF8DB8A1A60FB4
:1011C000B71F477049F188E0841B482F682F70E0F3
:1011D000FB01E659F94FE491281708F063C0621B40
:1011E00071092FEF30E002C0359527956A95E2F737
:1011F000E2230130110539F0B0F10230110561F53B
:101200008C91E82702C08C91E82BEC93941720F185
:101210002C813D81A20FB31FE92FE41BE83078F049
:101220000230110521F58E2F9C9190959C932C8175
:101230003D81A20FB31F88508830B0F7E770EE23CE
:1012400059F0F0E0EE59F94FE49101301105F9F051
:1012500010F10230110519F1DF91CF911F910F911B
:10126000FF90EF900895E0958C91E823CECF81E038
:101270000115110509F480E081959E2F8C932C8136
:101280003D81A20FB31F98509830C0F7D7CF8C91F3
:10129000E82BEC93E1CFE0958C91E823FACF8C9189
:1012A000E827F7CF0130110509F4ADCFE0F20230A5
:1012B000110509F4A5CFAE0DBF1DAECF0F931F933F
:1012C000CF93DF9377FF04C0260F371F70E060E0F5
:1012D000DC011496CD91DC91FB01E20FF31FCE17D8
:1012E000DF071CF49E01261B370B121613064CF564
:1012F000FA0157FD3796A3E0F595E795AA95E1F732
:10130000EC9FD001ED9FB00DFC9FB00D11246A0F32
:101310007B1FDC015F96ED91FC91E60FF71F477094
:10132000552781E090E001C0880F4A95EAF7482FE1
:101330000130110559F0A8F02E0F3F1F02301105A2
:10134000E1F0DF91CF911F910F9108952E0F3F1F74
:10135000E217F307B1F38191DF011197842B8C938E
:10136000F7CF80952E0F3F1FE217F30751F39191AE
:10137000DF01119798239C93F7CFE217F30709F346
:101380008191DF01119784278C93F7CF0F931F93DF
:10139000FA01DC0156964C9156974230E9F0433001
:1013A000A1F1413061F514964D915C91DA01AE1BCB
:1013B000BF0BFD01E21BF30B77FD0BC0DC011696A2
:1013C0004D915C916417750724F4AB01BF010E9435
:1013D0005E091F910F91089514964D915C91DA0169
:1013E000A61BB70BBD0161507109DC0116964D912A
:1013F0005C91DA01AE1BBF0BFD01E21BF30B77FD25
:10140000E8CFAF010E94AF08E4CF16964D915C91F2
:10141000DA01A61BB70BBD0161507109CDCF0F9347
:101420001F93FA01DC0156964C9156974230A9F071
:10143000433091F1413019F514964D915C91DA01E8
:10144000AE1BBF0BFD013197F7FD04C0AB01BF011F
:101450000E94AF081F910F91089514964D915C91D1
:10146000DA01A61BB70BBD01DC0116964D915C910C
:10147000DA01AE1BBF0BFD013197621B730BF7FD49
:10148000E9CFDC0116964D915C91E417F50714F74E
:10149000AF010E945E09DECF16964D915C91DA0194
:1014A000A61BB70BBD01621B730BCECFFC0177FDF2
:1014B00064C080859185681779070CF05EC057FD80
:1014C0005CC082859385481759070CF056C0868901
:1014D0008230B1F0833029F1813041F484819581EB
:1014E000841B950BAB01BC016150710921303105A2
:1014F00009F108F443C02230310509F463C00895AE
:1015000084819581DC01A61BB70BBD016150710977
:1015100086819781DC01A41BB50BAD0141505109B7
:10152000E5CF86819781861B970BBA01AC014150AC
:101530005109DCCFCA0157FD0796A3E09595879521
:10154000AA95E1F7A481B5818A9F90018B9F300D08
:101550009A9F300D1124620F731F078CF0A1E02DAC
:10156000E60FF71F4770552721E030E001C0220F3A
:101570004A95EAF78081822B80830895CA0157FD3E
:10158000079633E0959587953A95E1F7A481B58163
:101590008A9F90018B9F300D9A9F300D1124620F0E
:1015A000731F078CF0A1E02DE60FF71F477055273A
:1015B00081E090E001C0880F4A95EAF7809590811C
:1015C0008923DACFCA0157FD079623E095958795C1
:1015D0002A95E1F7A481B5818A9F90018B9F300DF8
:1015E0009A9F300D1124620F731F078CF0A1E02D1C
:1015F000E60FF71F4770552721E030E001C0220FAA
:101600004A95EAF780818227B7CF08958EBD000002
:101610000DB407FEFDCF8EB508958CBD9DBD089518
:101620000895FC016370668B8481958126813781E2
:10163000613039F0633029F09187808733872287C2
:101640000895318720879387828708952F923F924C
:101650004F925F926F927F928F929F92AF92BF92C2
:10166000CF92DF92EF92FF920F931F93CF93DF936E
:10167000CDB7DEB76A970FB6F894DEBF0FBECDBF09
:101680009A8F898F7A8369834A01D22E18870F83B4
:101690003701BC2CDC0159962D913C915A972115AC
:1016A000310509F015C118968D919C91199768170D
:1016B00079070CF0D7C11A968D919C91481759075C
:1016C0000CF0D0C14C2C512CB6E0CB9E600D711D9E
:1016D00011247C876B87161617060CF0C3C1EA2D00
:1016E000F0E0FA87E98793E0EE0FFF1F9A95E1F7A4
:1016F000F88BEF87CF01840F951F181619060CF091
:10170000B1C1A98DBA8D58968C91811104C0BFEAE0
:10171000BD1508F4D394A98DBA8DED91FC91119764
:101720000284F385E02DCD010995B5E0DB9EC00173
:101730001124E981FA81FC83EB83312C212C9C015B
:101740002E593E4F388F2F8B4A2D50E05E8B4D8B9C
:10175000EF89F88DE20DF31D44919E828D82D12C8C
:10176000C12C69817A81620D731D7A8B698B842FFC
:1017700090E09C8B8B8BE98DFA8DA081B18140FF2D
:1017800082C0F1E0BF126FC0AF126DC01C96ED9128
:10179000FC912F813885A4014C0D5D1D69897A89E2
:1017A000898D9A8D0995EB89FC89F595E7954E2FE2
:1017B0005FEFC51AD50A6D817E818D899E89680F7C
:1017C000791F7E836D8398E0C916D10481F6AFEF4F
:1017D0002A1A3A0AEB81FC81E40DF51DFC83EB83A8
:1017E000F5E02F16310409F0B3CF2F813885261587
:1017F0003705B9F0A98DBA8DED91FC91B1E0BB121E
:1018000057C0AB1255C069817A816B5F7F4F0088EA
:10181000F189E02D830128E030E0A401898D9A8DC3
:101820000995A98DBA8DED91FC9111970688F789DC
:10183000E02DCD016A960FB6F894DEBF0FBECDBF86
:10184000DF91CF911F910F91FF90EF90DF90CF909C
:10185000BF90AF909F908F907F906F905F904F90D0
:101860003F902F9009941E96ED91FC91EF80F884A3
:1018700009851A8592014D815E816B817C81898DFC
:101880009A8D099590CF2F8138852615370509F453
:101890008ACF31E0B31207C0A31205C01C96ED91A8
:1018A000FC91930178CF1E96ED91FC917301E0CFEE
:1018B0006B857C85641975090684F785E02D7301B5
:1018C0000F8518899201A401898D9A8D0995A9CF58
:1018D000F90134969491329745915491D91AB7E011
:1018E000DB9E400D511D1124F901259134913C8B53
:1018F0002B8BFA0125903490FA0132967490319630
:101900003491398B329664903196449041E04C1575
:1019100018F04A1508F07FC0662D062C000C770BD6
:101920007C836B83842D042C000C990B9E838D8308
:10193000A98DBA8DED91FC9111970284F385E02D6C
:10194000CD010995512CD12CC12CEA2DF0E0FA875C
:10195000E9872B2D30E03C872B87A401440D511DD6
:1019600047FC5A95588F4F8B69817A81660D711D9E
:1019700067FC7A957E876D877989C71608F051CF05
:101980002C2D30E04D815E81420F531FA985BA8511
:101990004A9FC0014B9F900D5A9F900D1124FC014E
:1019A000E80DF91DF88BEF87852D612C4F89588D37
:1019B000420F531F5E8B4D8B671408F050C04424B8
:1019C0004394480E877041F4C1010196EB89FC896C
:1019D000E20DF31DD4901C01D7FE19C0A98DBA8D5C
:1019E000ED91FC91662D70E0B1E0BB1219C0AB1215
:1019F00017C02D853E85620F731F0484F585E02D89
:101A00002F8138854D895E89898D9A8D0995DD0CE8
:101A10006394842DD1CF1E821D821C821B8288CFAD
:101A20004B815C81640F751FAB85BC856A9FC001CB
:101A30006B9F900D7A9F900D112469817A81680FB8
:101A4000791F0684F785E02DEF80F88409851A85D3
:101A50009D014F855889898D9A8D0995D8CF570C4E
:101A6000C3948ACF6A960FB6F894DEBF0FBECDBF7F
:101A7000DF91CF911F910F91FF90EF90DF90CF906A
:101A8000BF90AF909F908F907F906F905F904F909E
:101A90003F902F9008958F929F92AF92CF92EF92A6
:101AA000FF920F931F93CF93DF93EC01262F898D25
:101AB0009A8D009709F051C06A30D1F41D861C86BA
:101AC0008D8948E0849F900111248E859F85820F27
:101AD000931F9F878E8781E090E0DF91CF911F91C8
:101AE0000F91FF90EF90CF90AF909F908F900895BF
:101AF0006D3089F3CC88AD888F898823C1F08C85BF
:101B00009D8536E0C39E800D911D11244885598521
:101B10004817590764F44E855F851D861C8638E09A
:101B2000A39EC0011124840F951F9F878E87EA888A
:101B3000FB88088919894E855F856C857D85CE0176
:101B40000E94260B2C898C859D8546E0249F800D64
:101B5000911D11249D878C87BECF6A3069F41D8644
:101B60001C86FC013896E4912D898E859F85E29F25
:101B7000800D911D1124ADCF6D3009F4ACCFFC0167
:101B800034963491631708F4A6CF3296E491E617A1
:101B900008F4A1CFFC01329685909490462F431B08
:101BA000342F47E0349F800C911C1124F4013296AD
:101BB00034913196E4913323A9F1EE2399F1CC8845
:101BC000F4013596E491AD884F89442301F10E2E3E
:101BD000000CFF0BE30FF11DCE9EA001CF9E500D18
:101BE00011246C857D85460F571F6885798564179C
:101BF00075076CF44E855F851D861C86FC01389642
:101C0000E491AE9E400D511D11245F874E87EA88F6
:101C1000FB88088919894E855F856C857D85CE0195
:101C20000E94260BF4013496E4912C898C859D85C5
:101C3000E29F800D911D11248DCF6F927F928F9224
:101C40009F92AF92BF92CF92DF92EF92FF920F934B
:101C50001F93CF93DF93EC016B015A0139014801C7
:101C6000E881F9810284F385E02D0995E881F98105
:101C70000288F389E02D87019301A501B601CE0109
:101C80000995A501480D591D41505109E881F98177
:101C90000288F389E02D9301B601CE010995E88110
:101CA000F9810088F189E02D9401A501B601CE01EA
:101CB0000995C60CD71CB60161507109E881F981FC
:101CC0000088F189E02D9401A501CE010995E881F4
:101CD000F9810688F789E02DCE01DF91CF911F9120
:101CE0000F91FF90EF90DF90CF90BF90AF909F90BB
:101CF0008F907F906F9009946F927F928F929F92B6
:101D0000AF92BF92CF92DF92EF92FF920F931F9309
:101D1000CF93DF935C01EB016A0149013801870130
:101D2000DC01ED91FC916217730719F564167506D5
:101D30002CF0962D872D3A01C92ED82E9601261902
:101D400037092F5F3F4F048CF58DE02DA301BE01B5
:101D5000C5010995DF91CF911F910F91FF90EF90F1
:101D6000DF90CF90BF90AF909F908F907F906F90BB
:101D700008954615570591F42617370724F0892D45
:101D80004B01C22FD82F9E01281939092F5F3F4FD1
:101D9000068CF78DE02DA601B401DACF0284F3851D
:101DA000E02D0995D501ED91FC910488F589E02D90
:101DB00083019401A601BE01C5010995D501ED91EC
:101DC000FC910688F789E02DC501DF91CF911F9125
:101DD0000F91FF90EF90DF90CF90BF90AF909F90CA
:101DE0008F907F906F900994EF92FF920F931F93C3
:101DF000DC011A960D911C911B9718962D913C9120
:101E00001997ED91FC9100A0F1A1E02D7B0150E02C
:101E100040E070E060E009951F910F91FF90EF9016
:101E200008954F925F926F927F928F929F92AF929E
:101E3000BF92CF92DF92EF92FF920F931F93CF93B7
:101E4000DF936C012B015A0139014801DC01ED914E
:101E5000FC910284F385E02D0995E201640C751C68
:101E6000D601ED91FC91C615D7055CF40088F18987
:101E7000E02D87019401A501BE01C60109952196B7
:101E8000EFCF0688F789E02DC601DF91CF911F9132
:101E90000F91FF90EF90DF90CF90BF90AF909F9009
:101EA0008F907F906F905F904F9009948F929F9248
:101EB000AF92BF92CF92DF92EF92FF920F931F9358
:101EC000CF93DF93EC015B014A016901E881F9815D
:101ED0000284F385E02D099595012C0D3D1D2150BF
:101EE0003109E881F9810488F589E02D78018401C0
:101EF000A401B501CE010995E881F9810688F78929
:101F0000E02DCE01DF91CF911F910F91FF90EF90C7
:101F1000DF90CF90BF90AF909F908F9009948F9259
:101F20009F92AF92BF92CF92DF92EF92FF920F9368
:101F30001F93CF93DF93EC015B014A0169017801A4
:101F4000E881F9810284F385E02D0995C80CD91C3C
:101F5000860101501109E881F9810488F589E02D95
:101F60009501A401B501CE010995E881F9810688A2
:101F7000F789E02DCE01DF91CF911F910F91FF9056
:101F8000EF90DF90CF90BF90AF909F908F9009948B
:101F9000EF92FF920F931F93DC01ED91FC9100A053
:101FA000F1A1E02D09951F910F91FF90EF900895F9
:101FB0000F931F93DC01ED91FC91068CF78DE02DC2
:101FC00009951F910F9108950F931F93DC01ED91D7
:101FD000FC91048CF58DE02D09951F910F910895CA
:101FE000DC01ED91FC910084F185E02D09943F9294
:101FF0004F925F926F927F928F929F92AF92BF9219
:10200000CF92DF92EF92FF920F931F93CF93DF93C4
:102010005C017B014A016901390187E0680E711C8E
:1020200093E0759467949A95E1F72B01400E511E49
:1020300010E000E0312CD0E0C0E0CE01877099279D
:10204000330C892B59F4FE0183E0F595E7958A95C9
:10205000E1F7E00FF11FE80DF91D349037FE0AC0DB
:1020600021E030E0A701B5016C0F7D1F86EA93E007
:102070000E94F00F2196CC16DD06F9F68FEFE81AD4
:10208000F80A060D171DE414F504A9F6DF91CF91A7
:102090001F910F91FF90EF90DF90CF90BF90AF9086
:1020A0009F908F907F906F905F904F903F9008959A
:1020B0002F923F924F925F926F927F928F929F9258
:1020C000AF92BF92CF92DF92EF92FF920F931F9346
:1020D000CF93DF9300D000D000D0CDB7DEB73C0166
:1020E0006A013E832D83FC82EB825801A41AB50A53
:1020F000B7FE03C0B194A194B1088D809E80861A6A
:10210000970A97FE03C09194819491088A149B04C6
:102110005CF0902F812F0D811E819D838E839C2DDD
:102120008D2D6B01692F782F0C151D055CF09D819D
:102130008E817E836D83692F782F902F812F86016A
:10214000C92ED82E1601201A310A2B012D813E816D
:10215000421A530A57FE03C0519441945108710129
:1021600037FE03C03FEFE31AF30AF594E7948D813D
:102170009E81861797075CF5A1E0B0E0BA83A9833A
:10218000C016D1064CF1D301ED91FC910484F58584
:10219000E02D2B813C81A8016D817E818A149B04F6
:1021A0001CF04D815E81B801C3010995E418F50862
:1021B000F7FE0AC02D813E8189819A81280F391F3F
:1021C0003E832D83E20CF31C0F5F1F4FD9CF2FEFFF
:1021D0003FEF3A832983D4CF26960FB6F894DEBF1B
:1021E0000FBECDBFDF91CF911F910F91FF90EF9068
:1021F000DF90CF90BF90AF909F908F907F906F9027
:102200005F904F903F902F90089520910802260FE5
:102210003327331F21323105ECF420912C02FC01CD
:1022200090E080E0243069F082E00895A0910802F7
:102230002191AC0148515E4FA40FB52FB11D2C93D5
:102240000196861798F380910802680F6093080240
:1022500080E0089581E0089510922C0281E080933F
:102260002E0210922D0261E082E10E94D30661E00D
:1022700083E10E94D306E9EBF0E080818E7F8083CA
:1022800080818D7F808388E48093B80085E480938B
:10229000BC000895CF93DF9391E09093E7018823EA
:1022A000B9F0C091B800D091BA008091BC008A7B8F
:1022B0008093BC0060E082E10E94D30660E083E18D
:1022C0000E94D3060E942C11D093BA00C093B8008C
:1022D000DF91CF910895E091580280915702E8175D
:1022E00030F4F0E0EE53FE4F808190E008958FEFE0
:1022F0009FEF089590915802809157022FEF3FEF82
:10230000981748F4E92FF0E0EE53FE4F208130E0BB
:102310009F5F90935802C901089580915702909150
:102320005802891B990B0895CF92DF92EF92FF928A
:102330000F931F93CF93DF937C01CB018A012091F0
:102340006902222389F0EB016B01C40ED51ECC1566
:10235000DD0569F06991D701ED91FC910190F08163
:10236000E02DC7010995F3CF642F0E940511C80124
:10237000DF91CF911F910F91FF90EF90DF90CF9061
:102380000895CF93DF931F92CDB7DEB76983209175
:1023900069022223F9F020916602203258F021E0F0
:1023A00030E0FC013383228390E080E00F90DF91E6
:1023B000CF91089580916702E82FF0E0EE55FE4F2F
:1023C000998190838F5F809367028093660281E09A
:1023D00090E0ECCF61E0CE0101960E940511F7CFAD
:1023E000CF92DF92EF92FF920F931F93CF93DF93E1
:1023F000D091660281E0D13208F09CC0C0916802A1
:102400000E943D076B017C0180912C0281116CC000
:1024100082E080932C0281E080932E028FEF8093E4
:102420002B0210925002D0934F02A2EAB1E0EFE2E9
:10243000F2E080E0D8138DC01092510280915102D9
:10244000CC0FC82BC093510280912D02813009F02E
:1024500084C010922D020E943D076B017C01809187
:1024600051028093BB008091E3019091E401A0911F
:10247000E501B091E601892B8A2B8B2BA1F00E94FC
:102480003D070091E3011091E4012091E5013091B5
:10249000E6016C197D098E099F09061717072807A1
:1024A000390708F442C08091BC0083FDD8CF85EC89
:1024B0008093BC000E943D076B017C0180912C023F
:1024C000823009F44CC080912B028F3F09F469C01F
:1024D00080912B02803209F466C080912B028033F8
:1024E00009F463C084E026C08091E3019091E40187
:1024F000A091E501B091E601892B8A2B8B2B09F481
:1025000083CF0E943D070091E3011091E4012091E7
:10251000E5013091E6016C197D098E099F090617C6
:1025200017072807390708F06FCF8091E2010E9452
:102530004A1185E0109267021092660210926902B9
:10254000DF91CF911F910F91FF90EF90DF90CF908F
:1025500008959D9191938F5F6DCF85EEA9CF809166
:10256000E3019091E401A091E501B091E601892B8E
:102570008A2B8B2B09F4A2CF0E943D070091E30127
:102580001091E4012091E5013091E6016C197D097B
:102590008E099F09061717072807390708F08ECFFD
:1025A000C4CF80E0C7CF82E0C5CF83E0C3CFEF9236
:1025B000FF920F931F93CF93DF937C01C62F8091DF
:1025C000C3039091C403009709F459C02091C70335
:1025D00031E03093690220936802109267021092F2
:1025E0006602DC01ED91FC910190F081E02D60E04C
:1025F00009958701EE24E394F12CD1E0C15080913C
:10260000C3039091C403CF3F91F1B0E2EB16F10404
:10261000D8F00E94F0118091C3039091C4032091DF
:10262000C703D09369022093680210926702109248
:102630006602DC01ED91FC910190F081E02D60E0FB
:102640000995EE24E394F12C8091C3039091C40387
:10265000F8016491DC01ED91FC910190F081E02D95
:102660000995BFEFEB1AFB0A0F5F1F4FC7CFDF9132
:10267000CF911F910F91FF90EF900C94F011E0918A
:10268000D303F091D40390818091D903809589235D
:1026900080838701C15008F438C0F80184912091EB
:1026A000C1033091C203232B29F00E94060B0F5F58
:1026B0001F4FF0CF28E030E040E8E091CF03F091E9
:1026C000D0039091D703582F5423D9F05081952BE4
:1026D0009083E091D103F091D20390815091D8037F
:1026E000952B9083E091D103F091D203508190918A
:1026F000D803909595239083469521503109E9F6AA
:10270000D6CF508190959523E3CFDF91CF911F9144
:102710000F91FF90EF9008951F93CF93DF93EC01FB
:102720008D8D9E8D009721F1162F29A131E03093D8
:102730006902209368021092670210926602DC011F
:10274000ED91FC910190F081E02D60E009958D8D77
:102750009E8DDC01ED91FC910190F081E02D612FC7
:1027600009958D8D9E8DDF91CF911F910C94F01165
:10277000ADA5BEA59C918BA9809589238C938B8D4B
:102780009C8D892B31F0862FDF91CF911F910C9476
:10279000060B28E030E080E8A9A5BAA599A9462F44
:1027A0004823C1F04C91942B9C93ABA5BCA59C9164
:1027B0004AA9942B9C93ABA5BCA54C919AA9909542
:1027C00094239C9386952150310931F7DF91CF9165
:1027D0001F9108954C9190959423E6CFDF92EF924C
:1027E000FF920F931F93CF93DF938091C303909138
:1027F000C403892B09F4A5C02091DB033091DC03CD
:102800004091DD035091DE0360E074E284EF90E0DC
:102810000E941D25205131094109510956954795BE
:10282000379527952093B80064E08EE79BE00E94DF
:10283000D7128091AA039091AB038034910509F0DF
:1028400097C060E286EA93E00E948C136091AA032D
:10285000615E86EA93E00E948C132091AC03309174
:10286000AD03C901079697FD079633E095958795C7
:102870003A95E1F72091AA033091AB03829F800142
:10288000839F100D929F100D1124C091C503D0910C
:10289000C6038091C3039091C4030C0F1D1F0097C2
:1028A00009F498C02091C70331E030936902209366
:1028B00068021092670210926602DC01ED91FC91B1
:1028C0000190F081E02D60E40995EE24E394F12C71
:1028D000DD24D3948091C3039091C4030C171D078A
:1028E00009F44FC0B0E2EB16F104D8F00E94F011E9
:1028F0008091C3039091C4032091C703D0926902D1
:10290000209368021092670210926602DC01ED913A
:10291000FC910190F081E02D60E40995EE24E394B0
:10292000F12C8091C3039091C4036991DC01ED9176
:10293000FC910190F081E02D0995BFEFEB1AFB0AA5
:10294000C9CF8091C1039091C203892B31F080914E
:10295000E4039091E5030E940D0BE091D503F09103
:10296000D60390818091DA038095892380835CCFA0
:1029700060E086EA93E00E948C136091AA036150A4
:1029800068CF0E94F0118091C3039091C403892BFA
:1029900009F461C02091DF033091E0034091E1032D
:1029A0005091E20360E074E284EF90E00E941D2504
:1029B0002051310941095109569547953795279579
:1029C0002093B800DF91CF911F910F91FF90EF906E
:1029D000DF900895E091D303F091D403808190912A
:1029E000D903892B80830C171D0769F289912091E7
:1029F000C1033091C203232B19F00E94060BF3CFC1
:102A000028E030E040E8E091CF03F091D0039091CE
:102A1000D703582F5423D9F05081952B9083E09100
:102A2000D103F091D20390815091D803952B9083DC
:102A3000E091D103F091D20350819091D803909509
:102A400095239083469521503109E9F6CCCF5081EA
:102A500090959523E3CFE091D503F091D603808143
:102A60009091DA03892B8083ADCF1F93CF93DF93AF
:102A7000EC01162F8D8D9E8D892BB1F12DA93EA9CC
:102A80004FA958AD60E074E284EF90E00E941D25EC
:102A90002051310941095109569547953795279598
:102AA0002093B80066EA111167EACE010E948C13E8
:102AB0008D8D9E8D892B41F129AD3AAD4BAD5CAD2D
:102AC00060E074E284EF90E00E941D2520513109FE
:102AD0004109510956954795379527952093B80098
:102AE000DF91CF911F9108958B8D9C8D892B21F0C3
:102AF0008EAD9FAD0E940D0BEFA5F8A990818CA91A
:102B0000809589238083CECFEFA5F8A980819CA9E9
:102B1000892B8083E5CF90E080E008958091590271
:102B200090915A02FC01019620812032D9F3F09352
:102B30005A02E09359020895CF92DF92EF92FF92EA
:102B40000F931F93CF93DF930E948E15C09159026C
:102B5000D0915A028881883209F160E070E0CB019F
:102B60003C2F2D2F0991002E000C110B0053110941
:102B70000A30110578F520E030E040E251E40E948F
:102B800049236B017C01B801110F880B990B0E943E
:102B90000E23A70196010E943F24E2CF2196D093F5
:102BA0005A02C09359020E942516E0915902F091F1
:102BB0005A022081293229F43196F0935A02E09387
:102BC0005902DF91CF911F910F91FF90EF90DF900D
:102BD000CF9008953093590220935A02F2CFCF92AA
:102BE000DF92EF92FF920E949C156B017C010E9484
:102BF0008E15E0915902F0915A0280818A3271F467
:102C00003196F0935A02E09359020E949C159B0161
:102C1000AC01C701B6010E944923E7CF8F3271F49E
:102C20003196F0935A02E09359020E949C159B0141
:102C3000AC01C701B6010E94AB24D7CFC701B601D2
:102C4000FF90EF90DF90CF900895CF92DF92EF92B8
:102C5000FF920E94EF156B017C010E948E15E0919E
:102C60005902F0915A0280818B3271F43196F093BF
:102C70005A02E09359020E94EF159B01AC01C70173
:102C8000B6010E943F24E7CF8D3271F43196F09364
:102C90005A02E09359020E94EF159B01AC01C70153
:102CA000B6010E943E24D7CFC701B601FF90EF9036
:102CB000DF90CF900895FB0101900020E9F7319754
:102CC000AF01461B570BDC01ED91FC910280F381B3
:102CD000E02D09942091AC033091AD03C901079612
:102CE00097FD079623E0959587952A95E1F7209122
:102CF000AA033091AB03829FA001839F500D929F46
:102D0000500D112470E060E08091C5039091C603DE
:102D10000C943527CF93DF930E946A16C6EAD3E05E
:102D200081E08C8B8D8B81E090E09B8B8A8B998BE3
:102D3000888B1D861C861F861E866DE771E0CE017E
:102D40000E945B161D861C8684E190E09F878E871B
:102D5000E5E2F3E04481558160817181CE010E94FA
:102D6000A20762E370E080E090E00E946207DF91DA
:102D7000CF910C94EE13CF93DF93EC01888199816E
:102D8000009711F00E94E125198218821D821C8291
:102D90001B821A82DF91CF910895FC01808191817D
:102DA000009711F00C94E12508950E9427270F93B6
:102DB0001F93CF93DF93EC0188819981009759F09D
:102DC0002A813B812617370730F081E0DF91CF91D0
:102DD0001F910F9108958B016F5F7F4F0E946A26AC
:102DE000009759F0998388831B830A832C813D8146
:102DF000232B59F7FC011082E8CF80E0E7CFEF9258
:102E0000FF920F931F93CF93DF936115710541F4E8
:102E100080E0DF91CF911F910F91FF90EF90089587
:102E200041155105B1F07B01EC010C811D81040FAE
:102E3000151FB8010E94D716882351F328813981C4
:102E40008C819D81B701820F931F0E943C271D83B7
:102E50000C8381E0DECFCF93DF9300D0CDB7DEB718
:102E600089831A8241E050E0BE016F5F7F4F85E2A7
:102E700093E00E94FF160F900F90DF91CF9108957D
:102E8000EF92FF920F931F93CF93DF93EC017B019F
:102E90008A01BA010E94D71681110BC0CE010E948F
:102EA000BB16CE01DF91CF911F910F91FF90EF9054
:102EB00008951D830C83B701888199810E943C2766
:102EC000F0CFEF92FF920F931F93CF93DF93CDB785
:102ED000DEB7A1970FB6F894DEBF0FBECDBF7C0161
:102EE000CB01BA01F701118210821382128215827E
:102EF00014828E010F5F1F4F22E044E00E94B72032
:102F00000097C9F0FC0101900020E9F73197AF016B
:102F1000481B590BBC01C7010E944017A1960FB670
:102F2000F894DEBF0FBECDBFDF91CF911F910F91FF
:102F3000FF90EF900895C7010E94BB16EFCFCF938B
:102F4000DF93EC01FB018617970749F060817181DF
:102F50006115710541F0448155810E944017CE01F1
:102F6000DF91CF9108950E94BB16F9CF85ED809334
:102F7000BC008091E3019091E401A091E501B09142
:102F8000E6010796A11DB11D23E0B695A79597957B
:102F900087952A95D1F72091BC0024FD03C010929B
:102FA0002C0208954091E3015091E4016091E50104
:102FB0007091E601452B462B472B69F30097A1053D
:102FC000B10541F02AE22A95F1F700C00197A10965
:102FD000B109E1CF8091E2010C944A111F920F9246
:102FE0000FB60F9211242F933F938F939F93AF931C
:102FF000BF938091620290916302A0916402B091AC
:10300000650230915D0223E0230F2D3758F50196BC
:10301000A11DB11D20935D02809362029093630213
:10302000A0936402B093650280915E0290915F026A
:10303000A0916002B09161020196A11DB11D809323
:103040005E0290935F02A0936002B0936102BF9111
:10305000AF919F918F913F912F910F900FBE0F9045
:103060001F90189526E8230F0296A11DB11DD2CFFF
:103070001F920F920FB60F9211242F933F934F93ED
:103080005F936F937F938F939F93AF93BF93EF93D0
:10309000FF938AE692E00E942008FF91EF91BF9192
:1030A000AF919F918F917F916F915F914F913F91E0
:1030B0002F910F900FBE0F901F9018951F920F9297
:1030C0000FB60F9211242F938F939F93EF93FF933B
:1030D000E0917A02F0917B028081E0918002F09190
:1030E000810282FD1BC09081809183028F5F8F736C
:1030F00020918402821741F0E0918302F0E0E659CA
:10310000FD4F958F80938302FF91EF919F918F9157
:103110002F910F900FBE0F901F9018958081F4CFC4
:103120001F920F920FB60F9211242F933F934F933C
:103130005F936F937F938F939F93AF93BF93EF931F
:10314000FF938091B900887F803609F44AC0F0F57A
:10315000883209F4A7C018F5803109F49BC0B8F48F
:10316000882309F4F9C0883009F494C0FF91EF91E5
:10317000BF91AF919F918F917F916F915F914F918F
:103180003F912F910F900FBE0F901F90189588318F
:1031900009F488C0803251F780932B0214C0803428
:1031A00009F49DC040F48033B9F38833F9F6809375
:1031B0002B0285ECB0C0803509F485C0883509F450
:1031C00096C0883499F60E94B617D0CF883909F492
:1031D0008CC038F5883729F050F4883611F08037E4
:1031E00029F683E080932C0210922A0257C0883877
:1031F00009F47BC0803919F0803809F0B7CF80918D
:103200002A02803208F071C0E0912A0281E08E0F1C
:1032100080932A028091BB00F0E0E65FFD4F80833F
:103220003DC0803B39F0E0F4803A09F479C0883A37
:1032300009F09CCF84E080932C0210920902109236
:103240000802E0915502F09156020995809108021A
:1032500081110FC081E0809308021092E80109C03B
:10326000803C09F4A6CF883C09F4A3CF883B09F041
:103270007DCFE091090281E08E0F80930902F0E09A
:10328000E851FE4F80818093BB00909109028091AC
:10329000080229C0809151028093BB0085EC809385
:1032A000BC0064CF9091500280914F02981758F55E
:1032B000E091500281E08E0F80935002F0E0E15DDA
:1032C000FD4F8081E9CFE091500281E08E0F809325
:1032D00050028091BB00F0E0E15DFD4F8083909152
:1032E000500280914F029817C8F285E8D8CFE0913C
:1032F000500281E08E0F809350028091BB00F0E07D
:10330000E15DFD4F808380912E0281115CCF81E0D1
:1033100080932D0284EA8093BC0010922C0226CF69
:1033200085EC8093BC0010922C0280912A0280329E
:1033300030F4E0912A02F0E0E65FFD4F10826091E8
:103340002A0270E0E0915302F09154028AE092E088
:10335000099510922A020ACF10922B0234CFCF93F4
:10336000DF9310926D0210926C0288EE93E0A0E061
:10337000B0E080936E0290936F02A0937002B093BE
:10338000710227E231E030936B0220936A0225EC50
:1033900030E0309377022093760224EC30E03093D3
:1033A00079022093780220EC30E030937B02209366
:1033B0007A0221EC30E030937D0220937C0222ECF3
:1033C00030E030937F0220937E0226EC30E0309391
:1033D0008102209380021092830210928402109244
:1033E00085021092860210929D0310929C03809396
:1033F0009E0390939F03A093A003B093A10389E33E
:1034000091E090939B0380939A031092A9031092EA
:10341000A80320E830E03093AB032093AA0380E4B4
:1034200090E09093AD038093AC033093AF0320936F
:10343000AE039093B1038093B0031092BC0310923B
:10344000B3031092B2031092B5031092B40381E05B
:103450008093BB038093BA032FEF3FEF3093B90300
:103460002093B8033093B7032093B6038093BD0332
:103470001092BE031092C0031092BF0385E591E045
:103480009093A7038093A6031092C2031092C103E6
:103490008AE993E09093C4038093C3031092C60318
:1034A0001092C5038FEF8093CA038093CB03809360
:1034B000CC038093CD038093CE0380E89AE1A6E00D
:1034C000B0E08093DB039093DC03A093DD03B09323
:1034D000DE0380EA96E8A1E0B0E08093DF039093FA
:1034E000E003A093E103B093E20380E58093E4035B
:1034F0001092E50310922D031092310310923003C5
:10350000109232038BE491E090932C0380932B0371
:10351000E7E4F3E01082148213821582369683E08A
:10352000E338F807B9F784E091E090938E03809335
:103530008D0380E091E09093900380938F0385E06A
:103540008093910384E08093920389E091E09093CB
:103550008C0380938B038AE090E090939403809394
:10356000930384EF91E090939603809395031092D8
:103570009903109298031092870310928803109277
:10358000890310928A0310929703109226031092D7
:103590002503109228031092270310922A031092F9
:1035A000290350E040E067E971E085E293E00E9482
:1035B0004017C7E0D3E0198218821B821A821D824D
:1035C0001C8250E040E067E971E0CE010E944017A4
:1035D000269683E0C532D80771F7DF91CF91089521
:1035E000CF93DF93CDB7DEB72C970FB6F894DEBF3D
:1035F0000FBECDBF789484B5826084BD84B58160F0
:1036000084BD85B5826085BD85B5816085BD8091AD
:103610006E00816080936E00109281008091810025
:10362000826080938100809181008160809381001D
:10363000809180008160809380008091B1008460DF
:103640008093B1008091B00081608093B000809140
:103650007A00846080937A0080917A0082608093FF
:103660007A0080917A00816080937A0080917A005C
:10367000806880937A001092C100E0917A02F09104
:103680007B0282E08083E0917602F09177021082E3
:10369000E0917802F09179028FEC8083109282029F
:1036A000E0917E02F0917F0286E08083E0917C02CF
:1036B000F0917D02808180618083E0917C02F091B5
:1036C0007D02808188608083E0917C02F0917D02A0
:1036D000808180688083E0917C02F0917D0280810E
:1036E0008F7D80838091C5039091C603892B11F152
:1036F0000E946A162091AC033091AD038091AA0319
:103700009091AB03213231050CF0A0C0B901605299
:10371000710977FF02C06F5F7F4F7595679583577B
:10372000910997FD019600E210E023E730E044E8BC
:1037300056E09FC02091AC033091AD03C9010796BC
:1037400097FD0796B3E095958795BA95E1F7209197
:10375000AA033091AB03AC01429FC001439F900D7F
:10376000529F900D11240E9445259093C60380938B
:10377000C503892B09F0BCCF0E946A1681E08093B3
:10378000BA038093BB0381E090E09093B9038093E8
:10379000B8039093B7038093B6031092B3031092CB
:1037A000B20384E190E09093B5038093B40369E899
:1037B00071E086EA93E00E945B160E94EE1360EDD2
:1037C00077E080E090E00E9462070E948A16412C18
:1037D000512C32014394BB24B39446E0A42EB09202
:1037E00097038FB7F8944091620250916302609101
:1037F0006402709165028FBF809187039091880366
:10380000A0918903B0918A03481B590B6A0B7B0B6B
:103810008091930390919403B0E0A0E08417950702
:10382000A607B70708F029C310E080919103181785
:1038300008F011C2E0918D03F0918E03E10FF11DAC
:1038400062E080810E9401071F5FEFCFB9016054E1
:10385000710977FF02C06F5F7F4F7595679582553D
:10386000910997FD019600E410E022E530E044E67E
:1038700058E0959587950E94F70F82E08093C803E2
:103880008091C3039091C403892B09F4DFC08CE3BA
:103890008093C70310925802109257021092670249
:1038A000109266020E942C118FE997E090935602C5
:1038B0008093550280EA97E09093540280935302DC
:1038C0008091CE0387FD1EC061E00E94010761E088
:1038D0008091CE030E94D30661E070E080E090E02A
:1038E0000E94620760E08091CE030E94D3066AE0E6
:1038F00070E080E090E00E94620761E08091CE037A
:103900000E94D3068091C3039091C403892B09F4CC
:103910005CC12091DB033091DC034091DD035091C9
:10392000DE0360E074E284EF90E00E941D252051E8
:1039300031094109510956954795379527952093A7
:10394000B80064E080E896E00E94D7126091AC0372
:10395000615086EA93E00E948C1364E08CE796E065
:103960000E94D7128091C80360E1813009F064E1C0
:1039700086EA93E00E948C1364E088E796E00E9458
:10398000D7128FE88093E3038091AA039091AB0351
:103990008038910509F030C18091AC039091AD035E
:1039A0008034910509F038C18091C803813009F055
:1039B00046C18FE98093E30312E16AED86EA93E062
:1039C0000E948C13612F86EA93E00E948C1361E8B9
:1039D00086EA93E00E948C136091E30386EA93E009
:1039E0000E948C1369ED86EA93E00E948C1380910B
:1039F000C80362E2813009F061EF86EA93E00E9439
:103A00008C1366E082E796E00E94D7128091C30390
:103A10009091C403892B09F414C12091DF033091E4
:103A2000E0034091E1035091E20360E074E284EF2F
:103A300090E00E941D2520513109410951095695F8
:103A40004795379527952093B80096CE61E08091F1
:103A5000CC030E94010761E08091CD030E94010721
:103A60008091CC03082E000C990BFC01EE5BF44F07
:103A7000E491F0E0EE0FFF1FE25DF44F25913491E9
:103A80003093D4032093D303FC01EA5AF44FE4911A
:103A9000E093D9038091CD03082E000C990BFC0113
:103AA000EE5BF44FE491F0E0EE0FFF1FE25DF44FA8
:103AB000A591B491B093D603A093D503FC01EA5A23
:103AC000F44FE491E093DA038C91E82BEC9380912E
:103AD000C1039091C203892B09F434C01FB7F89435
:103AE00080915202811127C0ECE4FBE08491E0E672
:103AF000FBE09491E82FF0E0EE0FFF1FEC5DF44F38
:103B0000A591B491EC91E92321F461E08AE00E944F
:103B1000D30661E08AE00E9401078CB580618CBD0C
:103B20008CB580648CBD61E08DE00E94010761E08E
:103B30008BE00E940107809152028F5F80935202B6
:103B40001FBFBECE61E08091CA030E94010761E001
:103B50008091CB030E9401078091CA03082E000CBC
:103B6000990BFC01EE5BF44FE491F0E0EE0FFF1FC8
:103B7000E25DF44F259134913093D0032093CF032D
:103B8000FC01EA5AF44FE491E093D7038091CB0310
:103B9000082E000C990BFC01EE5BF44FE491F0E071
:103BA000EE0FFF1FE25DF44FA591B491B093D203E5
:103BB000A093D103FC01EA5AF44FE491E093D803B7
:103BC0008C91E095E823EC937BCE8091C10390919A
:103BD000C203892B31F08091E4039091E5030E94A8
:103BE0000D0BE091D503F091D60390818091DA031B
:103BF000809589238083A5CE8036910589F48091B4
:103C0000AC039091AD03409739F48091C8038130A3
:103C100029F480E18093E30312E0CFCE8FEAFACF5C
:103C200080349105C9F78091AC039091AD038097E2
:103C300099F78091C803813011F480E1BBCE8FECFD
:103C4000B9CEE091D503F091D60380819091DA034B
:103C5000892B808391CD312C80919203381608F006
:103C600061C0E32CF12CE0918F03F0919003EE0DF5
:103C7000FF1D61E080810E940107E0918F03F091B8
:103C80009003EE0DFF1D60E080810E94D306D301FA
:103C9000C201032C04C0880F991FAA1FBB1F0A94DE
:103CA000D2F74C016C01C094D094212C80919103E7
:103CB000281608F5022D10E0E0918D03F0918E0397
:103CC000E00FF11F80810E94AA060C5F1F4F000FBA
:103CD000111FF801E55DFC4F892B41F48081918132
:103CE00088299929918380832394E0CF80819181D1
:103CF0008C219D21F7CFE0918F03F0919003EE0D81
:103D0000FF1D61E080810E94D30680918F03909116
:103D10009003E80EF91E60E0F70180810E94010720
:103D200033949ACF2BE2E22E23E0F22E8701F801A2
:103D3000878D90A1892B31F4148E4FEF5FEF568F52
:103D4000458F11A20A5F1F4F87E693E08017910706
:103D500071F7D12C80919103D81608F052C0C12C74
:103D60008D2C912C880C991CF401ED5CFC4F4F01BB
:103D700020919203C21608F042C0F4016081718163
:103D80000C2C02C0769567950A94E2F7D29E9001BA
:103D900011242C0D311DEBE2F3E080E0458D568DB2
:103DA0002417350709F4BAC18F5F36968A30B1F708
:103DB00060FF23C0EBE2F3E090E080E0448D41112E
:103DC00017C0E0918B03F0918C03E20FF31F408149
:103DD000A89EF001A99EF00D1124E55DFC4F448FD3
:103DE000368F258F10A2178E61E00E94110605C044
:103DF000019636968A30910509F7C394B9CFD394CA
:103E0000A9CF80E0F70191A19111892FF6E0EF0E83
:103E1000F11CE016F106B1F79FB7F89440916202E9
:103E20005091630260916402709165029FBF40935C
:103E30008703509388036093890370938A038823D0
:103E4000E1F080914C038823C1F000914A03109166
:103E50004B030130110589F4F0904703F11010C0B5
:103E600040E050E0452B09F4BACC0E940C088823AE
:103E700009F4B1CC0E940000AECC10929703F0CFB1
:103E80006FE871E08AE692E00E945B166F2D8AE689
:103E900092E00E94420842E050E065E971E08AE663
:103EA00092E00E94A2074DE3F412B2C01A82198276
:103EB0001C821B821E821D8265E273E0CE01019688
:103EC0000E949F1789819A8190935A028093590288
:103ED0000E9425166B017C01CE0101960E94CD1631
:103EE000B701A601CE0101960E94611718861F82B4
:103EF0001A8619861C861B8665E273E0CE0107963A
:103F00000E949F1741E050E068E971E0CE010796FA
:103F10000E94FF16811104C0CE0107960E94BB16B5
:103F20004D815E8169817A81CE0107960E94FF16DC
:103F3000811104C0CE0107960E94BB1600915B025E
:103F400010915C02A09EC001A19E900D1124BE01A3
:103F5000695F7F4F895F9C4F0E949F17CE01079634
:103F60000E94CD16CE0101960E94CD160F5F1F4F05
:103F7000053011057CF510935C0200935B02B701DC
:103F8000A601CE0101960E946117809125039091B0
:103F90002603009731F169817A8161157105F9F085
:103FA00040912703509128032D813E8142175307EA
:103FB000B0F00E943C278D819E8190932A038093CC
:103FC00029031E821D82CE0101960E94CD160E94F9
:103FD0008A1646CF10925C0210925B02D0CF0E94EC
:103FE000E12589819A8190932603809325038B8113
:103FF0009C8190932803809327038D819E819093C9
:104000002A03809329031A8219821C821B82D9CF2A
:1040100053E2F51209C050E040E067E971E085E243
:1040200093E00E944017D3CF82E4F81213C080912E
:10403000290390912A03009751F20197E0912503FB
:10404000F0912603E80FF91F90932A038093290328
:104050001082BDCF98E4F9124CC00E946A16B0924B
:10406000BA03B092BB031093B9030093B803109343
:10407000B7030093B6031092B3031092B2031092E9
:10408000B5031092B4036AE971E086EA93E00E94F6
:104090005B1607E013E08CE0E82EF12CF801448178
:1040A000558141155105A9F060817181FB01808125
:1040B000882379F01092B3031092B203F092B50303
:1040C000E092B40386EA93E00E94A207FAE0EF0EC2
:1040D000F11C0A5F1F4F45E253E040175107F1F60C
:1040E0000E94EE1360EA7FE080E090E00E946207A9
:1040F0006ECF51E48BE2F51621F083E5F81204C08F
:104100008DE20E942B1763CF9DE48AE2F916C9F372
:10411000E4E48FE2FE16A9F38F2DF3CF617065CE34
:104120008FE193E00E94CD1689E193E00E94CD16C5
:1041300083E193E00E94CD168DE093E00E94CD16BE
:1041400087E093E00E94CD1685E293E00E94CD16B1
:1041500085E591E09093A7038093A6038091C50322
:104160009091C603009711F00C94E1250895EF9209
:104170000F931F93CF93DF93E80134E047FD34E1C1
:10418000042E000C550B57FF03C051954195510962
:10419000E32E022F242FAE010E94D520CE01DF9105
:1041A000CF911F910F91EF900895A9E0B0E0EBED52
:1041B000F0E20C940D246A01F22EB02E102FFBE3D6
:1041C000AF2EA01608F41BE31F5F012F27E0AE01FE
:1041D0004F5F5F4F0E943422BC018981982F9970F4
:1041E000913009F43FC09BE2E1FC04C09E2D917028
:1041F000E0FC3AC05E2D5071E82FE87083FF46C0A6
:1042000084E0911101C083E0EF2DE81B8F1508F0C9
:10421000E0E0D6018E2F20E2552351F1992329F0B9
:10422000D6019C93C60101966C0196012D5F3F4F0C
:10423000E2FE24C08EE4D6018C9391E411969C9307
:10424000119712968C93D9018E2F90E281111BC089
:10425000E20FF32FF11D10828EEF9FEF2996ECE015
:104260000C9429249DE2C6CF90E2C4CF2D938150B7
:104270008111FCCFCE0ED11CE0E0D0CF8EE6D6016E
:104280008C9391E6DBCF9D938150E0CF482F447013
:1042900082FF3DC084E0911101C083E08F1510F4CE
:1042A000EF2DE81BD6018E2F20E2552309F199232B
:1042B00029F0D6019C93C60101966C0196012D5FF1
:1042C0003F4FE2FE1BC089E4D6018C938EE4119629
:1042D0008C93119786E412968C93D9018E2F90E2DD
:1042E000882309F4B5CF9D938150FACF2D93815047
:1042F0008111FCCFCE0ED11CE0E0D9CF89E6D601EA
:104300008C938EE611968C93119786E6E4CF9B01F1
:1043100077FF02C030E020E0A1E0B0E0911102C0E0
:10432000B0E0A0E0F9013196AE0FBF1F8B2C912CAD
:10433000BB2009F461C05401EFEFAE1ABE0AAA0D0A
:10434000BB1DFA161B0619F014F04F2D4A1B511114
:1043500088C0E3FC59C07601A42FB0E2A1114FC080
:10436000C40ED11C992309F45BC040E0D60111961C
:10437000F60190836D01552309F448C0012F060F03
:104380009A81582F507184FF03C0913309F4015072
:1043900010160CF047C0093008F008E0EEE2FE2EDF
:1043A0005B01A01AB10885019194819491082F3F77
:1043B000320729F4D601FC92F60131966F0162179B
:1043C000730794F1021713077CF5DB01A21BB30BF3
:1043D000AA24A394B12CAC0EBD1EAA0DBB1D119630
:1043E0008C9121503109D601119628153905F4F028
:1043F000F60180836D01DBCFB12CA12CA0CFF7019A
:10440000B1937F01A150AACF9111B0CFD601942FC3
:1044100050E302C05D9391509111FCCFC40ED11CAA
:1044200040E0ACCF01E0BACF80E3DBCF6217730787
:1044300031F4963388F4953311F4552369F0F6017D
:104440008083FD01842F90E2811108C0A40FB11D6B
:104450001C9290E080E002CF81E3F1CF91938150F4
:10446000F3CF911183CF8ACF283008F027E033278C
:10447000DA01990F311D87FD916000966105710584
:1044800039F432602E5F3D9330E32A95E1F70895C9
:104490009F3F30F080387105610509F03C5F3C5F5B
:1044A0003D93913008F08068911DDF93CF931F9367
:1044B0000F93FF92EF92192F987F9695E92F96957B
:1044C0009695E90FFF27EE53FF4F99273327EE24E8
:1044D000FF24A701E70105900894079428F4360FFC
:1044E000E71EF81E491F511D660F771F881F991F71
:1044F0000694A1F70590079428F4E70EF81E491FCB
:10450000561FC11D770F881F991F661F0694A1F7BC
:104510000590079428F4F80E491F561FC71FD11D98
:10452000880F991F661F771F0694A1F705900794BF
:1045300020F4490F561FC71FD81F990F661F771FFA
:10454000881F0694A9F784911095177041F0D695AD
:10455000C79557954795F794E7941A95C1F7E8E6FC
:10456000F0E06894159015913591659195910590BD
:104570007FE27395E118F10A430B560BC90BD00982
:10458000C0F7E10CF11E431F561FC91FD01D7EF45A
:10459000703311F48A95E6CFE894015030F0080F9B
:1045A0000AF40027021708F4202F2395022F7A33EC
:1045B00028F079E37D932A95E9F710C07D932A9539
:1045C00089F6069497956795379517951794E1188E
:1045D000F10A430B560BC90BD00998F023957E9135
:1045E00073957A3308F070E37C932013B8F77E91CB
:1045F00070617D9330F0839571E37D9370E32A952C
:10460000E1F71124EF90FF900F911F91CF91DF916F
:10461000992787FD90950895E89409C097FB3EF48B
:1046200090958095709561957F4F8F4F9F4F9923FF
:10463000A9F0F92F96E9BB279395F695879577957D
:104640006795B795F111F8CFFAF4BB0F11F460FF3D
:104650001BC06F5F7F4F8F4F9F4F16C0882311F095
:1046600096E911C0772321F09EE8872F762F05C0A9
:10467000662371F096E8862F70E060E02AF09A9544
:10468000660F771F881FDAF7880F9695879597F939
:1046900008950E945C230C94CD230E94BF2338F020
:1046A0000E94C62320F0952311F00C94B6230C949D
:1046B000BC2311240C9401240E94DE2370F3959FE7
:1046C000C1F3950F50E0551F629FF001729FBB2709
:1046D000F00DB11D639FAA27F00DB11DAA1F649FA5
:1046E0006627B00DA11D661F829F2227B00DA11D58
:1046F000621F739FB00DA11D621F839FA00D611DDE
:10470000221F749F3327A00D611D231F849F600DFE
:10471000211D822F762F6A2F11249F5750409AF027
:10472000F1F088234AF0EE0FFF1FBB1F661F771FB3
:10473000881F91505040A9F79E3F510580F00C947E
:10474000B6230C9401245F3FE4F3983ED4F386959E
:1047500077956795B795F795E7959F5FC1F7FE2B1E
:10476000880F911D9695879597F9089597F99F67FA
:1047700080E870E060E008959FEF80EC08950024E9
:104780000A941616170618060906089500240A94B6
:1047900012161306140605060895092E0394000C3C
:1047A00011F4882352F0BB0F40F4BF2B11F460FFCB
:1047B00004C06F5F7F4F8F4F9F4F089557FD9058F4
:1047C000440F551F59F05F3F71F04795880F97FBD5
:1047D000991F61F09F3F79F087950895121613068F
:1047E0001406551FF2CF4695F1DF08C016161706BE
:1047F0001806991FF1CF86957105610508940895F3
:10480000E894BB2766277727CB0197F908952F9265
:104810003F924F925F926F927F928F929F92AF9250
:10482000BF92CF92DF92EF92FF920F931F93CF939D
:10483000DF93CDB7DEB7CA1BDB0B0FB6F894DEBF34
:104840000FBECDBF09942A88398848885F846E845A
:104850007D848C849B84AA84B984C884DF80EE80A4
:10486000FD800C811B81AA81B981CE0FD11D0FB6AD
:10487000F894DEBF0FBECDBFED0108955058BB27A1
:10488000AA270E9456240C94CD230E94BF2338F0FF
:104890000E94C62320F039F49F3F19F426F40C94AB
:1048A000BC230EF4E095E7FB0C94B623E92F0E949D
:1048B000DE2358F3BA17620773078407950720F0C1
:1048C00079F4A6F50C9400240EF4E0950B2EBA2F83
:1048D000A02D0B01B90190010C01CA01A001112406
:1048E000FF27591B99F0593F50F4503E68F11A16B2
:1048F000F040A22F232F342F4427585FF3CF469543
:1049000037952795A795F0405395C9F77EF41F1664
:10491000BA0B620B730B840BBAF09150A1F0FF0F2E
:10492000BB1F661F771F881FC2F70EC0BA0F621F1A
:10493000731F841F48F4879577956795B795F7950A
:104940009E3F08F0B0CF9395880F08F09927EE0F9F
:104950009795879508950E94BF240C94CD230E94BB
:10496000C62358F00E94BF2340F029F45F3F29F08E
:104970000C94B62351110C9401240C94BC230E9476
:10498000DE2368F39923B1F3552391F3951B550B5F
:10499000BB27AA2762177307840738F09F5F5F4F12
:1049A000220F331F441FAA1FA9F335D00E2E3AF051
:1049B000E0E832D091505040E695001CCAF72BD069
:1049C000FE2F29D0660F771F881FBB1F26173707BA
:1049D0004807AB07B0E809F0BB0B802DBF01FF27EC
:1049E00093585F4F3AF09E3F510578F00C94B623F0
:1049F0000C9401245F3FE4F3983ED4F386957795B9
:104A00006795B795F7959F5FC9F7880F911D9695A4
:104A1000879597F90895E1E0660F771F881FBB1F00
:104A2000621773078407BA0720F0621B730B840BAD
:104A3000BA0BEE1F88F7E0950895A1E21A2EAA1B83
:104A4000BB1BFD010DC0AA1FBB1FEE1FFF1FA2173E
:104A5000B307E407F50720F0A21BB30BE40BF50B3B
:104A6000661F771F881F991F1A9469F760957095C4
:104A7000809590959B01AC01BD01CF010895EE0F8B
:104A8000FF1F0590F491E02D09940F931F93CF938E
:104A9000DF938230910510F482E090E0E091E8032A
:104AA000F091E90330E020E0B0E0A0E0309799F425
:104AB0002115310509F44AC0281B390B2430310572
:104AC000D8F58A819B816115710589F1FB0193837A
:104AD0008283FE0111C040815181028113814817F8
:104AE0005907E0F04817590799F4109761F01296AA
:104AF0000C93129713961C933296CF01DF91CF91AE
:104B00001F910F9108950093E8031093E903F4CFE8
:104B10002115310551F04217530738F0A901DB0187
:104B20009A01BD01DF01F801C1CFEF01F9CF9093E8
:104B3000E9038093E803CDCFFE01E20FF31F8193D9
:104B400091932250310939832883D7CF2091E603EE
:104B50003091E703232B41F420911F013091200174
:104B60003093E7032093E60320911D0130911E014D
:104B70002115310541F42DB73EB7409121015091E7
:104B80002201241B350BE091E603F091E703E217C5
:104B9000F307A0F42E1B3F0B2817390778F0AC0160
:104BA0004E5F5F4F2417350748F04E0F5F1F50933D
:104BB000E7034093E603819391939FCFF0E0E0E019
:104BC0009CCFCF93DF930097E9F0FC0132971382DB
:104BD0001282A091E803B091E903ED0130E020E0FA
:104BE0001097A1F420813181820F931F2091E60359
:104BF0003091E7032817390709F061C0F093E70304
:104C0000E093E603DF91CF910895EA01CE17DF0725
:104C1000E8F54A815B819E0141155105B1F7E90133
:104C2000FB83EA8349915991C40FD51FEC17FD0707
:104C300061F4808191810296840F951FE901998327
:104C40008883828193819B838A83F0E0E0E01296DF
:104C50008D919C9113970097B9F52D913C911197E7
:104C6000CD010296820F931F2091E6033091E70356
:104C70002817390739F6309751F51092E903109249
:104C8000E803B093E703A093E603BCCFD383C283CA
:104C900040815181840F951FC817D90761F44E5F79
:104CA0005F4F88819981480F591F518340838A81C2
:104CB0009B81938382832115310509F0B0CFF09356
:104CC000E903E093E8039ECFFD01DC01C0CF13822E
:104CD0001282D7CFB0E0A0E0E0E7F6E20C9409241E
:104CE0008C01009751F4CB010E9445258C01C8012D
:104CF000CDB7DEB7E0E10C942524FC01E60FF71FE9
:104D00009C0122503109E217F30708F49DC0D90134
:104D1000CD91DC911197C617D70798F0C530D10512
:104D200030F3CE0104978617970708F3C61BD70BFD
:104D30002297C193D1936D937C93CF010E94E1257B
:104D4000D6CF5B01AC1ABD0A4C018C0E9D1EA09102
:104D5000E803B091E903512C412CF12CE12C109780
:104D600031F58091E6039091E7038815990509F0E4
:104D70005CC04616570608F058C080911D019091FE
:104D80001E01009741F48DB79EB7409121015091CB
:104D90002201841B950BE817F90708F055C0F09322
:104DA000E703E093E603F90171836083A0CF8D915F
:104DB0009C91119712966C90129713967C90139772
:104DC000A815B90559F56C0142E0C40ED11CCA14EE
:104DD000DB0420F1AC014A195B09DA011296159740
:104DE00080F06282738251834083D9016D937C93FA
:104DF000E114F10471F0D7011396FC93EE9312972E
:104E000076CF22968C0F9D1FF90191838083F30149
:104E1000EFCFF093E903E093E80369CF4816590612
:104E200008F42C017D01D3019ACFCB010E944525C6
:104E30007C01009749F0AE01B8010E942C27C801FF
:104E40000E94E125870153CF10E000E050CF81E0C0
:104E500090E0F8940C944327FB01DC0102C0019020
:104E60000D9241505040D8F70895DC0101C06D9378
:104E700041505040E0F70895FB01DC0101900D9294
:104E80000020E1F7089515E0C2ECD5E004C0FE0172
:104E90000E943F252196C33CD107C9F7F894FFCF64
:104EA0000708090A02030405063132334134353656
:104EB000533738394D303D2344282948420000EA11
:104EC000038000000000004208A207CF078F0800FF
:104ED00008DE07F20700000000C11194118B15EDE8
:104EE000058D117A116B1100000000940798079C42
:104EF00007000000004B0DA2078B15A107560AED15
:104F000005F00FC80FE40FD80F5810ED05110B3541
:104F100015C6090F0A110FF40E7C0E1D0E424F44E8
:104F20004D41532043414C43005245414459004BAD
:104F300065793A20000D0A003D00484953544F520C
:024F4000590016
:00000001FF
